{
  "_format": "hh-sol-artifact-1",
  "contractName": "DaoGovernor",
  "sourceName": "contracts/Governor.sol",
  "abi": [
    {
      "inputs": [
        {
          "internalType": "string",
          "name": "name",
          "type": "string"
        },
        {
          "internalType": "uint256",
          "name": "votingDelay",
          "type": "uint256"
        },
        {
          "internalType": "uint256",
          "name": "votingPeriod",
          "type": "uint256"
        },
        {
          "internalType": "uint256",
          "name": "proposalThreshold_",
          "type": "uint256"
        },
        {
          "internalType": "contract IVotes",
          "name": "voteToken",
          "type": "address"
        },
        {
          "internalType": "uint256",
          "name": "quorumFraction",
          "type": "uint256"
        },
        {
          "internalType": "contract TimelockController",
          "name": "timelock",
          "type": "address"
        }
      ],
      "stateMutability": "nonpayable",
      "type": "constructor"
    },
    {
      "anonymous": false,
      "inputs": [
        {
          "indexed": false,
          "internalType": "uint256",
          "name": "proposalId",
          "type": "uint256"
        }
      ],
      "name": "ProposalCanceled",
      "type": "event"
    },
    {
      "anonymous": false,
      "inputs": [
        {
          "indexed": false,
          "internalType": "uint256",
          "name": "proposalId",
          "type": "uint256"
        },
        {
          "indexed": false,
          "internalType": "address",
          "name": "proposer",
          "type": "address"
        },
        {
          "indexed": false,
          "internalType": "address[]",
          "name": "targets",
          "type": "address[]"
        },
        {
          "indexed": false,
          "internalType": "uint256[]",
          "name": "values",
          "type": "uint256[]"
        },
        {
          "indexed": false,
          "internalType": "string[]",
          "name": "signatures",
          "type": "string[]"
        },
        {
          "indexed": false,
          "internalType": "bytes[]",
          "name": "calldatas",
          "type": "bytes[]"
        },
        {
          "indexed": false,
          "internalType": "uint256",
          "name": "startBlock",
          "type": "uint256"
        },
        {
          "indexed": false,
          "internalType": "uint256",
          "name": "endBlock",
          "type": "uint256"
        },
        {
          "indexed": false,
          "internalType": "string",
          "name": "description",
          "type": "string"
        }
      ],
      "name": "ProposalCreated",
      "type": "event"
    },
    {
      "anonymous": false,
      "inputs": [
        {
          "indexed": false,
          "internalType": "uint256",
          "name": "proposalId",
          "type": "uint256"
        }
      ],
      "name": "ProposalExecuted",
      "type": "event"
    },
    {
      "anonymous": false,
      "inputs": [
        {
          "indexed": false,
          "internalType": "uint256",
          "name": "proposalId",
          "type": "uint256"
        },
        {
          "indexed": false,
          "internalType": "uint256",
          "name": "eta",
          "type": "uint256"
        }
      ],
      "name": "ProposalQueued",
      "type": "event"
    },
    {
      "anonymous": false,
      "inputs": [
        {
          "indexed": false,
          "internalType": "uint256",
          "name": "oldProposalThreshold",
          "type": "uint256"
        },
        {
          "indexed": false,
          "internalType": "uint256",
          "name": "newProposalThreshold",
          "type": "uint256"
        }
      ],
      "name": "ProposalThresholdSet",
      "type": "event"
    },
    {
      "anonymous": false,
      "inputs": [
        {
          "indexed": false,
          "internalType": "uint256",
          "name": "oldQuorumNumerator",
          "type": "uint256"
        },
        {
          "indexed": false,
          "internalType": "uint256",
          "name": "newQuorumNumerator",
          "type": "uint256"
        }
      ],
      "name": "QuorumNumeratorUpdated",
      "type": "event"
    },
    {
      "anonymous": false,
      "inputs": [
        {
          "indexed": false,
          "internalType": "address",
          "name": "oldTimelock",
          "type": "address"
        },
        {
          "indexed": false,
          "internalType": "address",
          "name": "newTimelock",
          "type": "address"
        }
      ],
      "name": "TimelockChange",
      "type": "event"
    },
    {
      "anonymous": false,
      "inputs": [
        {
          "indexed": true,
          "internalType": "address",
          "name": "voter",
          "type": "address"
        },
        {
          "indexed": false,
          "internalType": "uint256",
          "name": "proposalId",
          "type": "uint256"
        },
        {
          "indexed": false,
          "internalType": "uint8",
          "name": "support",
          "type": "uint8"
        },
        {
          "indexed": false,
          "internalType": "uint256",
          "name": "weight",
          "type": "uint256"
        },
        {
          "indexed": false,
          "internalType": "string",
          "name": "reason",
          "type": "string"
        }
      ],
      "name": "VoteCast",
      "type": "event"
    },
    {
      "anonymous": false,
      "inputs": [
        {
          "indexed": false,
          "internalType": "uint256",
          "name": "oldVotingDelay",
          "type": "uint256"
        },
        {
          "indexed": false,
          "internalType": "uint256",
          "name": "newVotingDelay",
          "type": "uint256"
        }
      ],
      "name": "VotingDelaySet",
      "type": "event"
    },
    {
      "anonymous": false,
      "inputs": [
        {
          "indexed": false,
          "internalType": "uint256",
          "name": "oldVotingPeriod",
          "type": "uint256"
        },
        {
          "indexed": false,
          "internalType": "uint256",
          "name": "newVotingPeriod",
          "type": "uint256"
        }
      ],
      "name": "VotingPeriodSet",
      "type": "event"
    },
    {
      "inputs": [],
      "name": "BALLOT_TYPEHASH",
      "outputs": [
        {
          "internalType": "bytes32",
          "name": "",
          "type": "bytes32"
        }
      ],
      "stateMutability": "view",
      "type": "function"
    },
    {
      "inputs": [],
      "name": "COUNTING_MODE",
      "outputs": [
        {
          "internalType": "string",
          "name": "",
          "type": "string"
        }
      ],
      "stateMutability": "pure",
      "type": "function"
    },
    {
      "inputs": [
        {
          "internalType": "uint256",
          "name": "proposalId",
          "type": "uint256"
        },
        {
          "internalType": "uint8",
          "name": "support",
          "type": "uint8"
        }
      ],
      "name": "castVote",
      "outputs": [
        {
          "internalType": "uint256",
          "name": "",
          "type": "uint256"
        }
      ],
      "stateMutability": "nonpayable",
      "type": "function"
    },
    {
      "inputs": [
        {
          "internalType": "uint256",
          "name": "proposalId",
          "type": "uint256"
        },
        {
          "internalType": "uint8",
          "name": "support",
          "type": "uint8"
        },
        {
          "internalType": "uint8",
          "name": "v",
          "type": "uint8"
        },
        {
          "internalType": "bytes32",
          "name": "r",
          "type": "bytes32"
        },
        {
          "internalType": "bytes32",
          "name": "s",
          "type": "bytes32"
        }
      ],
      "name": "castVoteBySig",
      "outputs": [
        {
          "internalType": "uint256",
          "name": "",
          "type": "uint256"
        }
      ],
      "stateMutability": "nonpayable",
      "type": "function"
    },
    {
      "inputs": [
        {
          "internalType": "uint256",
          "name": "proposalId",
          "type": "uint256"
        },
        {
          "internalType": "uint8",
          "name": "support",
          "type": "uint8"
        },
        {
          "internalType": "string",
          "name": "reason",
          "type": "string"
        }
      ],
      "name": "castVoteWithReason",
      "outputs": [
        {
          "internalType": "uint256",
          "name": "",
          "type": "uint256"
        }
      ],
      "stateMutability": "nonpayable",
      "type": "function"
    },
    {
      "inputs": [
        {
          "internalType": "address[]",
          "name": "targets",
          "type": "address[]"
        },
        {
          "internalType": "uint256[]",
          "name": "values",
          "type": "uint256[]"
        },
        {
          "internalType": "bytes[]",
          "name": "calldatas",
          "type": "bytes[]"
        },
        {
          "internalType": "bytes32",
          "name": "descriptionHash",
          "type": "bytes32"
        }
      ],
      "name": "execute",
      "outputs": [
        {
          "internalType": "uint256",
          "name": "",
          "type": "uint256"
        }
      ],
      "stateMutability": "payable",
      "type": "function"
    },
    {
      "inputs": [
        {
          "internalType": "address",
          "name": "account",
          "type": "address"
        },
        {
          "internalType": "uint256",
          "name": "blockNumber",
          "type": "uint256"
        }
      ],
      "name": "getVotes",
      "outputs": [
        {
          "internalType": "uint256",
          "name": "",
          "type": "uint256"
        }
      ],
      "stateMutability": "view",
      "type": "function"
    },
    {
      "inputs": [
        {
          "internalType": "uint256",
          "name": "proposalId",
          "type": "uint256"
        },
        {
          "internalType": "address",
          "name": "account",
          "type": "address"
        }
      ],
      "name": "hasVoted",
      "outputs": [
        {
          "internalType": "bool",
          "name": "",
          "type": "bool"
        }
      ],
      "stateMutability": "view",
      "type": "function"
    },
    {
      "inputs": [
        {
          "internalType": "address[]",
          "name": "targets",
          "type": "address[]"
        },
        {
          "internalType": "uint256[]",
          "name": "values",
          "type": "uint256[]"
        },
        {
          "internalType": "bytes[]",
          "name": "calldatas",
          "type": "bytes[]"
        },
        {
          "internalType": "bytes32",
          "name": "descriptionHash",
          "type": "bytes32"
        }
      ],
      "name": "hashProposal",
      "outputs": [
        {
          "internalType": "uint256",
          "name": "",
          "type": "uint256"
        }
      ],
      "stateMutability": "pure",
      "type": "function"
    },
    {
      "inputs": [],
      "name": "name",
      "outputs": [
        {
          "internalType": "string",
          "name": "",
          "type": "string"
        }
      ],
      "stateMutability": "view",
      "type": "function"
    },
    {
      "inputs": [
        {
          "internalType": "uint256",
          "name": "proposalId",
          "type": "uint256"
        }
      ],
      "name": "proposalDeadline",
      "outputs": [
        {
          "internalType": "uint256",
          "name": "",
          "type": "uint256"
        }
      ],
      "stateMutability": "view",
      "type": "function"
    },
    {
      "inputs": [
        {
          "internalType": "uint256",
          "name": "proposalId",
          "type": "uint256"
        }
      ],
      "name": "proposalEta",
      "outputs": [
        {
          "internalType": "uint256",
          "name": "",
          "type": "uint256"
        }
      ],
      "stateMutability": "view",
      "type": "function"
    },
    {
      "inputs": [
        {
          "internalType": "uint256",
          "name": "proposalId",
          "type": "uint256"
        }
      ],
      "name": "proposalSnapshot",
      "outputs": [
        {
          "internalType": "uint256",
          "name": "",
          "type": "uint256"
        }
      ],
      "stateMutability": "view",
      "type": "function"
    },
    {
      "inputs": [],
      "name": "proposalThreshold",
      "outputs": [
        {
          "internalType": "uint256",
          "name": "",
          "type": "uint256"
        }
      ],
      "stateMutability": "view",
      "type": "function"
    },
    {
      "inputs": [
        {
          "internalType": "uint256",
          "name": "proposalId",
          "type": "uint256"
        }
      ],
      "name": "proposalVotes",
      "outputs": [
        {
          "internalType": "uint256",
          "name": "againstVotes",
          "type": "uint256"
        },
        {
          "internalType": "uint256",
          "name": "forVotes",
          "type": "uint256"
        },
        {
          "internalType": "uint256",
          "name": "abstainVotes",
          "type": "uint256"
        }
      ],
      "stateMutability": "view",
      "type": "function"
    },
    {
      "inputs": [
        {
          "internalType": "address[]",
          "name": "targets",
          "type": "address[]"
        },
        {
          "internalType": "uint256[]",
          "name": "values",
          "type": "uint256[]"
        },
        {
          "internalType": "bytes[]",
          "name": "calldatas",
          "type": "bytes[]"
        },
        {
          "internalType": "string",
          "name": "description",
          "type": "string"
        }
      ],
      "name": "propose",
      "outputs": [
        {
          "internalType": "uint256",
          "name": "",
          "type": "uint256"
        }
      ],
      "stateMutability": "nonpayable",
      "type": "function"
    },
    {
      "inputs": [
        {
          "internalType": "address[]",
          "name": "targets",
          "type": "address[]"
        },
        {
          "internalType": "uint256[]",
          "name": "values",
          "type": "uint256[]"
        },
        {
          "internalType": "bytes[]",
          "name": "calldatas",
          "type": "bytes[]"
        },
        {
          "internalType": "bytes32",
          "name": "descriptionHash",
          "type": "bytes32"
        }
      ],
      "name": "queue",
      "outputs": [
        {
          "internalType": "uint256",
          "name": "",
          "type": "uint256"
        }
      ],
      "stateMutability": "nonpayable",
      "type": "function"
    },
    {
      "inputs": [
        {
          "internalType": "uint256",
          "name": "blockNumber",
          "type": "uint256"
        }
      ],
      "name": "quorum",
      "outputs": [
        {
          "internalType": "uint256",
          "name": "",
          "type": "uint256"
        }
      ],
      "stateMutability": "view",
      "type": "function"
    },
    {
      "inputs": [],
      "name": "quorumDenominator",
      "outputs": [
        {
          "internalType": "uint256",
          "name": "",
          "type": "uint256"
        }
      ],
      "stateMutability": "view",
      "type": "function"
    },
    {
      "inputs": [],
      "name": "quorumNumerator",
      "outputs": [
        {
          "internalType": "uint256",
          "name": "",
          "type": "uint256"
        }
      ],
      "stateMutability": "view",
      "type": "function"
    },
    {
      "inputs": [
        {
          "internalType": "address",
          "name": "target",
          "type": "address"
        },
        {
          "internalType": "uint256",
          "name": "value",
          "type": "uint256"
        },
        {
          "internalType": "bytes",
          "name": "data",
          "type": "bytes"
        }
      ],
      "name": "relay",
      "outputs": [],
      "stateMutability": "nonpayable",
      "type": "function"
    },
    {
      "inputs": [
        {
          "internalType": "uint256",
          "name": "newProposalThreshold",
          "type": "uint256"
        }
      ],
      "name": "setProposalThreshold",
      "outputs": [],
      "stateMutability": "nonpayable",
      "type": "function"
    },
    {
      "inputs": [
        {
          "internalType": "uint256",
          "name": "newVotingDelay",
          "type": "uint256"
        }
      ],
      "name": "setVotingDelay",
      "outputs": [],
      "stateMutability": "nonpayable",
      "type": "function"
    },
    {
      "inputs": [
        {
          "internalType": "uint256",
          "name": "newVotingPeriod",
          "type": "uint256"
        }
      ],
      "name": "setVotingPeriod",
      "outputs": [],
      "stateMutability": "nonpayable",
      "type": "function"
    },
    {
      "inputs": [
        {
          "internalType": "uint256",
          "name": "proposalId",
          "type": "uint256"
        }
      ],
      "name": "state",
      "outputs": [
        {
          "internalType": "enum IGovernor.ProposalState",
          "name": "",
          "type": "uint8"
        }
      ],
      "stateMutability": "view",
      "type": "function"
    },
    {
      "inputs": [
        {
          "internalType": "bytes4",
          "name": "interfaceId",
          "type": "bytes4"
        }
      ],
      "name": "supportsInterface",
      "outputs": [
        {
          "internalType": "bool",
          "name": "",
          "type": "bool"
        }
      ],
      "stateMutability": "view",
      "type": "function"
    },
    {
      "inputs": [],
      "name": "timelock",
      "outputs": [
        {
          "internalType": "address",
          "name": "",
          "type": "address"
        }
      ],
      "stateMutability": "view",
      "type": "function"
    },
    {
      "inputs": [],
      "name": "token",
      "outputs": [
        {
          "internalType": "contract IVotes",
          "name": "",
          "type": "address"
        }
      ],
      "stateMutability": "view",
      "type": "function"
    },
    {
      "inputs": [
        {
          "internalType": "uint256",
          "name": "newQuorumNumerator",
          "type": "uint256"
        }
      ],
      "name": "updateQuorumNumerator",
      "outputs": [],
      "stateMutability": "nonpayable",
      "type": "function"
    },
    {
      "inputs": [
        {
          "internalType": "contract TimelockController",
          "name": "newTimelock",
          "type": "address"
        }
      ],
      "name": "updateTimelock",
      "outputs": [],
      "stateMutability": "nonpayable",
      "type": "function"
    },
    {
      "inputs": [],
      "name": "version",
      "outputs": [
        {
          "internalType": "string",
          "name": "",
          "type": "string"
        }
      ],
      "stateMutability": "view",
      "type": "function"
    },
    {
      "inputs": [],
      "name": "votingDelay",
      "outputs": [
        {
          "internalType": "uint256",
          "name": "",
          "type": "uint256"
        }
      ],
      "stateMutability": "view",
      "type": "function"
    },
    {
      "inputs": [],
      "name": "votingPeriod",
      "outputs": [
        {
          "internalType": "uint256",
          "name": "",
          "type": "uint256"
        }
      ],
      "stateMutability": "view",
      "type": "function"
    },
    {
      "stateMutability": "payable",
      "type": "receive"
    }
  ],
  "bytecode": "0x6101606040523480156200001257600080fd5b5060405162005cd438038062005cd4833981810160405281019062000038919062000612565b8082848888888c8062000050620001bf60201b60201c565b60008280519060200120905060008280519060200120905060007f8b73c3c69bb8fe3d512ecc4cf759cc79239f7b179b0ffacaa9a75d522b39400f90508260e081815250508161010081815250504660a08181525050620000b9818484620001fc60201b60201c565b608081815250503073ffffffffffffffffffffffffffffffffffffffff1660c08173ffffffffffffffffffffffffffffffffffffffff1660601b81525050806101208181525050505050505080600090805190602001906200011d9291906200049f565b505062000130836200023860201b60201c565b62000141826200027f60201b60201c565b62000152816200030c60201b60201c565b5050508073ffffffffffffffffffffffffffffffffffffffff166101408173ffffffffffffffffffffffffffffffffffffffff1660601b81525050506200019f816200035360201b60201c565b50620001b181620003f560201b60201c565b505050505050505062000b8b565b60606040518060400160405280600181526020017f3100000000000000000000000000000000000000000000000000000000000000815250905090565b600083838346306040516020016200021995949392919062000792565b6040516020818303038152906040528051906020012090509392505050565b7fc565b045403dc03c2eea82b81a0465edad9e2e7fc4d97e11421c209da93d7a93600254826040516200026d92919062000833565b60405180910390a18060028190555050565b60008111620002c5576040517f08c379a0000000000000000000000000000000000000000000000000000000008152600401620002bc9062000811565b60405180910390fd5b7f7e3f7f0708a84de9203036abaa450dccc85ad5ff52f78c170f3edb55cf5e882860035482604051620002fa92919062000833565b60405180910390a18060038190555050565b7fccb45da8d5717e6c4544694297c4ba5cf151d455c9bb0ed4fc7a38411bc05461600454826040516200034192919062000833565b60405180910390a18060048190555050565b620003636200049660201b60201c565b811115620003a8576040517f08c379a00000000000000000000000000000000000000000000000000000000081526004016200039f90620007ef565b60405180910390fd5b60006006549050816006819055507f0553476bf02ef2726e8ce5ced78d63e26e602e4a2257b1f559418e24b46339978183604051620003e992919062000833565b60405180910390a15050565b7f08f74ea46ef7894f65eabfb5e6e695de773a000b47c529ab559178069b226401600760009054906101000a900473ffffffffffffffffffffffffffffffffffffffff16826040516200044a92919062000765565b60405180910390a180600760006101000a81548173ffffffffffffffffffffffffffffffffffffffff021916908373ffffffffffffffffffffffffffffffffffffffff16021790555050565b60006064905090565b828054620004ad906200098a565b90600052602060002090601f016020900481019282620004d157600085556200051d565b82601f10620004ec57805160ff19168380011785556200051d565b828001600101855582156200051d579182015b828111156200051c578251825591602001919060010190620004ff565b5b5090506200052c919062000530565b5090565b5b808211156200054b57600081600090555060010162000531565b5090565b600062000566620005608462000889565b62000860565b90508281526020810184848401111562000585576200058462000a59565b5b6200059284828562000954565b509392505050565b600081519050620005ab8162000b3d565b92915050565b600081519050620005c28162000b57565b92915050565b600082601f830112620005e057620005df62000a54565b5b8151620005f28482602086016200054f565b91505092915050565b6000815190506200060c8162000b71565b92915050565b600080600080600080600060e0888a03121562000634576200063362000a63565b5b600088015167ffffffffffffffff81111562000655576200065462000a5e565b5b620006638a828b01620005c8565b9750506020620006768a828b01620005fb565b9650506040620006898a828b01620005fb565b95505060606200069c8a828b01620005fb565b9450506080620006af8a828b016200059a565b93505060a0620006c28a828b01620005fb565b92505060c0620006d58a828b01620005b1565b91505092959891949750929550565b620006ef81620008d0565b82525050565b6200070081620008f8565b82525050565b600062000715604383620008bf565b9150620007228262000a79565b606082019050919050565b60006200073c602783620008bf565b9150620007498262000aee565b604082019050919050565b6200075f816200094a565b82525050565b60006040820190506200077c6000830185620006e4565b6200078b6020830184620006e4565b9392505050565b600060a082019050620007a96000830188620006f5565b620007b86020830187620006f5565b620007c76040830186620006f5565b620007d6606083018562000754565b620007e56080830184620006e4565b9695505050505050565b600060208201905081810360008301526200080a8162000706565b9050919050565b600060208201905081810360008301526200082c816200072d565b9050919050565b60006040820190506200084a600083018562000754565b62000859602083018462000754565b9392505050565b60006200086c6200087f565b90506200087a8282620009c0565b919050565b6000604051905090565b600067ffffffffffffffff821115620008a757620008a662000a25565b5b620008b28262000a68565b9050602081019050919050565b600082825260208201905092915050565b6000620008dd826200092a565b9050919050565b6000620008f1826200092a565b9050919050565b6000819050919050565b60006200090f82620008d0565b9050919050565b60006200092382620008e4565b9050919050565b600073ffffffffffffffffffffffffffffffffffffffff82169050919050565b6000819050919050565b60005b838110156200097457808201518184015260208101905062000957565b8381111562000984576000848401525b50505050565b60006002820490506001821680620009a357607f821691505b60208210811415620009ba57620009b9620009f6565b5b50919050565b620009cb8262000a68565b810181811067ffffffffffffffff82111715620009ed57620009ec62000a25565b5b80604052505050565b7f4e487b7100000000000000000000000000000000000000000000000000000000600052602260045260246000fd5b7f4e487b7100000000000000000000000000000000000000000000000000000000600052604160045260246000fd5b600080fd5b600080fd5b600080fd5b600080fd5b6000601f19601f8301169050919050565b7f476f7665726e6f72566f74657351756f72756d4672616374696f6e3a2071756f60008201527f72756d4e756d657261746f72206f7665722071756f72756d44656e6f6d696e6160208201527f746f720000000000000000000000000000000000000000000000000000000000604082015250565b7f476f7665726e6f7253657474696e67733a20766f74696e6720706572696f642060008201527f746f6f206c6f7700000000000000000000000000000000000000000000000000602082015250565b62000b488162000902565b811462000b5457600080fd5b50565b62000b628162000916565b811462000b6e57600080fd5b50565b62000b7c816200094a565b811462000b8857600080fd5b50565b60805160a05160c05160601c60e05161010051610120516101405160601c6150da62000bfa6000396000818161184f0152818161199c0152611a60015260006123c001526000612402015260006123e1015260006123160152600061236c0152600061239501526150da6000f3fe6080604052600436106101f25760003560e01c80637d5e81e21161010d578063c59057e4116100a0578063ea0217cf1161006f578063ea0217cf146107da578063eb9019d414610803578063ece40cc114610840578063f8ce560a14610869578063fc0c546a146108a657610238565b8063c59057e41461071c578063d33219b414610759578063dd4e2ba514610784578063deaaa7cc146107af57610238565b8063ab58fb8e116100dc578063ab58fb8e1461064e578063b58131b01461068b578063c01f9e37146106b6578063c28bc2fa146106f357610238565b80637d5e81e21461059257806397c3d334146105cf578063a7713a70146105fa578063a890c9101461062557610238565b80633bccf4fd1161018557806354fd4d501161015457806354fd4d50146104c457806356781388146104ef57806370b0f6601461052c5780637b3c71d31461055557610238565b80633bccf4fd146103ce5780633e4f49e61461040b5780634385963214610448578063544ffc9c1461048557610238565b8063160cbed7116101c1578063160cbed7146102f95780632656227d146103365780632d63f693146103665780633932abb1146103a357610238565b806301ffc9a71461023d57806302a251a31461027a57806306f3f9e6146102a557806306fdde03146102ce57610238565b36610238573073ffffffffffffffffffffffffffffffffffffffff166102166108d1565b73ffffffffffffffffffffffffffffffffffffffff161461023657600080fd5b005b600080fd5b34801561024957600080fd5b50610264600480360381019061025f91906133f1565b6108e0565b6040516102719190613e59565b60405180910390f35b34801561028657600080fd5b5061028f6108f2565b60405161029c9190614216565b60405180910390f35b3480156102b157600080fd5b506102cc60048036038101906102c7919061344b565b6108fc565b005b3480156102da57600080fd5b506102e3610984565b6040516102f09190613f94565b60405180910390f35b34801561030557600080fd5b50610320600480360381019061031b9190613205565b610a16565b60405161032d9190614216565b60405180910390f35b610350600480360381019061034b9190613205565b610cee565b60405161035d9190614216565b60405180910390f35b34801561037257600080fd5b5061038d6004803603810190610388919061344b565b610e21565b60405161039a9190614216565b60405180910390f35b3480156103af57600080fd5b506103b8610e8f565b6040516103c59190614216565b60405180910390f35b3480156103da57600080fd5b506103f560048036038101906103f09190613599565b610e99565b6040516104029190614216565b60405180910390f35b34801561041757600080fd5b50610432600480360381019061042d919061344b565b610f23565b60405161043f9190613f79565b60405180910390f35b34801561045457600080fd5b5061046f600480360381019061046a91906134a5565b610f35565b60405161047c9190613e59565b60405180910390f35b34801561049157600080fd5b506104ac60048036038101906104a7919061344b565b610fa0565b6040516104bb9392919061430a565b60405180910390f35b3480156104d057600080fd5b506104d9610fd8565b6040516104e69190613f94565b60405180910390f35b3480156104fb57600080fd5b50610516600480360381019061051191906134e5565b611015565b6040516105239190614216565b60405180910390f35b34801561053857600080fd5b50610553600480360381019061054e919061344b565b611046565b005b34801561056157600080fd5b5061057c60048036038101906105779190613525565b6110ce565b6040516105899190614216565b60405180910390f35b34801561059e57600080fd5b506105b960048036038101906105b491906132c0565b611136565b6040516105c69190614216565b60405180910390f35b3480156105db57600080fd5b506105e4611436565b6040516105f19190614216565b60405180910390f35b34801561060657600080fd5b5061060f61143f565b60405161061c9190614216565b60405180910390f35b34801561063157600080fd5b5061064c6004803603810190610647919061341e565b611449565b005b34801561065a57600080fd5b506106756004803603810190610670919061344b565b6114d1565b6040516106829190614216565b60405180910390f35b34801561069757600080fd5b506106a06115ad565b6040516106ad9190614216565b60405180910390f35b3480156106c257600080fd5b506106dd60048036038101906106d8919061344b565b6115bc565b6040516106ea9190614216565b60405180910390f35b3480156106ff57600080fd5b5061071a60048036038101906107159190613191565b61162a565b005b34801561072857600080fd5b50610743600480360381019061073e9190613205565b6116fc565b6040516107509190614216565b60405180910390f35b34801561076557600080fd5b5061076e611738565b60405161077b9190613cb4565b60405180910390f35b34801561079057600080fd5b50610799611762565b6040516107a69190613f94565b60405180910390f35b3480156107bb57600080fd5b506107c461179f565b6040516107d19190613e74565b60405180910390f35b3480156107e657600080fd5b5061080160048036038101906107fc919061344b565b6117c3565b005b34801561080f57600080fd5b5061082a60048036038101906108259190613151565b61184b565b6040516108379190614216565b60405180910390f35b34801561084c57600080fd5b506108676004803603810190610862919061344b565b611900565b005b34801561087557600080fd5b50610890600480360381019061088b919061344b565b611988565b60405161089d9190614216565b60405180910390f35b3480156108b257600080fd5b506108bb611a5e565b6040516108c89190613f5e565b60405180910390f35b60006108db611a82565b905090565b60006108eb82611aac565b9050919050565b6000600354905090565b6109046108d1565b73ffffffffffffffffffffffffffffffffffffffff16610922611b26565b73ffffffffffffffffffffffffffffffffffffffff1614610978576040517f08c379a000000000000000000000000000000000000000000000000000000000815260040161096f90613fd6565b60405180910390fd5b61098181611b2e565b50565b606060008054610993906148c4565b80601f01602080910402602001604051908101604052809291908181526020018280546109bf906148c4565b8015610a0c5780601f106109e157610100808354040283529160200191610a0c565b820191906000526020600020905b8154815290600101906020018083116109ef57829003601f168201915b5050505050905090565b600080610a25868686866116fc565b905060046007811115610a3b57610a3a61498f565b5b610a4482610f23565b6007811115610a5657610a5561498f565b5b14610a96576040517f08c379a0000000000000000000000000000000000000000000000000000000008152600401610a8d90614176565b60405180910390fd5b6000600760009054906101000a900473ffffffffffffffffffffffffffffffffffffffff1673ffffffffffffffffffffffffffffffffffffffff1663f27a0c926040518163ffffffff1660e01b815260040160206040518083038186803b158015610b0057600080fd5b505afa158015610b14573d6000803e3d6000fd5b505050506040513d601f19601f82011682018060405250810190610b389190613478565b9050600760009054906101000a900473ffffffffffffffffffffffffffffffffffffffff1673ffffffffffffffffffffffffffffffffffffffff1663b1c5f4278888886000896040518663ffffffff1660e01b8152600401610b9e959493929190613d7b565b60206040518083038186803b158015610bb657600080fd5b505afa158015610bca573d6000803e3d6000fd5b505050506040513d601f19601f82011682018060405250810190610bee91906133c4565b6008600084815260200190815260200160002081905550600760009054906101000a900473ffffffffffffffffffffffffffffffffffffffff1673ffffffffffffffffffffffffffffffffffffffff16638f2a0bb0888888600089876040518763ffffffff1660e01b8152600401610c6b96959493929190613de3565b600060405180830381600087803b158015610c8557600080fd5b505af1158015610c99573d6000803e3d6000fd5b505050507f9a2e42fd6722813d69113e7d0079d3d940171428df7373df9c7f7617cfda2892828242610ccb91906145db565b604051610cd99291906142e1565b60405180910390a18192505050949350505050565b600080610cfd868686866116fc565b90506000610d0a82610f23565b905060046007811115610d2057610d1f61498f565b5b816007811115610d3357610d3261498f565b5b1480610d63575060056007811115610d4e57610d4d61498f565b5b816007811115610d6157610d6061498f565b5b145b610da2576040517f08c379a0000000000000000000000000000000000000000000000000000000008152600401610d9990614176565b60405180910390fd5b600180600084815260200190815260200160002060020160006101000a81548160ff0219169083151502179055507f712ae1383f79ac853f8d882153778e0260ef8f03b504e2866e0593e04d2b291f82604051610dff9190614216565b60405180910390a1610e148288888888611bc3565b8192505050949350505050565b6000610e7e600160008481526020019081526020016000206000016040518060200160405290816000820160009054906101000a900467ffffffffffffffff1667ffffffffffffffff1667ffffffffffffffff1681525050611bd7565b67ffffffffffffffff169050919050565b6000600254905090565b600080610efa610ef27f150214d74d59b7d1e90c73fc22ef3d991dd0a76b046543d4d80ab92d2a50328f8989604051602001610ed793929190613ee2565b60405160208183030381529060405280519060200120611be5565b868686611bff565b9050610f1787828860405180602001604052806000815250611c2a565b91505095945050505050565b6000610f2e82611d7e565b9050919050565b60006005600084815260200190815260200160002060030160008373ffffffffffffffffffffffffffffffffffffffff1673ffffffffffffffffffffffffffffffffffffffff16815260200190815260200160002060009054906101000a900460ff16905092915050565b600080600080600560008681526020019081526020016000209050806000015481600101548260020154935093509350509193909250565b60606040518060400160405280600181526020017f3100000000000000000000000000000000000000000000000000000000000000815250905090565b600080611020611b26565b905061103d84828560405180602001604052806000815250611c2a565b91505092915050565b61104e6108d1565b73ffffffffffffffffffffffffffffffffffffffff1661106c611b26565b73ffffffffffffffffffffffffffffffffffffffff16146110c2576040517f08c379a00000000000000000000000000000000000000000000000000000000081526004016110b990613fd6565b60405180910390fd5b6110cb81611f70565b50565b6000806110d9611b26565b905061112b86828787878080601f016020809104026020016040519081016040528093929190818152602001838380828437600081840152601f19601f82011690508083019250505050505050611c2a565b915050949350505050565b60006111406115ad565b6111563360014361115191906146fa565b61184b565b1015611197576040517f08c379a000000000000000000000000000000000000000000000000000000000815260040161118e90614016565b60405180910390fd5b60006111ac86868686805190602001206116fc565b905084518651146111f2576040517f08c379a00000000000000000000000000000000000000000000000000000000081526004016111e990614056565b60405180910390fd5b8351865114611236576040517f08c379a000000000000000000000000000000000000000000000000000000000815260040161122d90614056565b60405180910390fd5b600086511161127a576040517f08c379a000000000000000000000000000000000000000000000000000000000815260040161127190614116565b60405180910390fd5b60006001600083815260200190815260200160002090506112da816000016040518060200160405290816000820160009054906101000a900467ffffffffffffffff1667ffffffffffffffff1667ffffffffffffffff1681525050611fb5565b611319576040517f08c379a0000000000000000000000000000000000000000000000000000000008152600401611310906141d6565b60405180910390fd5b600061132b611326610e8f565b611fcf565b61133443611fcf565b61133e9190614631565b9050600061135261134d6108f2565b611fcf565b8261135d9190614631565b9050611375828460000161202690919063ffffffff16565b61138b818460010161202690919063ffffffff16565b7f7d84a6263ae0d98d3329bd7b46bb4e8d6f98cd35a7adb45c274c8b7fd5ebd5e0846113b5611b26565b8b8b8d5167ffffffffffffffff8111156113d2576113d16149ed565b5b60405190808252806020026020018201604052801561140557816020015b60608152602001906001900390816113f05790505b508c88888e60405161141f99989796959493929190614231565b60405180910390a183945050505050949350505050565b60006064905090565b6000600654905090565b6114516108d1565b73ffffffffffffffffffffffffffffffffffffffff1661146f611b26565b73ffffffffffffffffffffffffffffffffffffffff16146114c5576040517f08c379a00000000000000000000000000000000000000000000000000000000081526004016114bc90613fd6565b60405180910390fd5b6114ce81612055565b50565b600080600760009054906101000a900473ffffffffffffffffffffffffffffffffffffffff1673ffffffffffffffffffffffffffffffffffffffff1663d45c443560086000868152602001908152602001600020546040518263ffffffff1660e01b81526004016115429190613e74565b60206040518083038186803b15801561155a57600080fd5b505afa15801561156e573d6000803e3d6000fd5b505050506040513d601f19601f820116820180604052508101906115929190613478565b9050600181146115a257806115a5565b60005b915050919050565b60006115b76120f4565b905090565b6000611619600160008481526020019081526020016000206001016040518060200160405290816000820160009054906101000a900467ffffffffffffffff1667ffffffffffffffff1667ffffffffffffffff1681525050611bd7565b67ffffffffffffffff169050919050565b6116326108d1565b73ffffffffffffffffffffffffffffffffffffffff16611650611b26565b73ffffffffffffffffffffffffffffffffffffffff16146116a6576040517f08c379a000000000000000000000000000000000000000000000000000000000815260040161169d90613fd6565b60405180910390fd5b6116f58483838080601f016020809104026020016040519081016040528093929190818152602001838380828437600081840152601f19601f82011690508083019250505050505050856120fe565b5050505050565b6000848484846040516020016117159493929190613d21565b6040516020818303038152906040528051906020012060001c9050949350505050565b6000600760009054906101000a900473ffffffffffffffffffffffffffffffffffffffff16905090565b60606040518060400160405280602081526020017f737570706f72743d627261766f2671756f72756d3d666f722c6162737461696e815250905090565b7f150214d74d59b7d1e90c73fc22ef3d991dd0a76b046543d4d80ab92d2a50328f81565b6117cb6108d1565b73ffffffffffffffffffffffffffffffffffffffff166117e9611b26565b73ffffffffffffffffffffffffffffffffffffffff161461183f576040517f08c379a000000000000000000000000000000000000000000000000000000000815260040161183690613fd6565b60405180910390fd5b6118488161212d565b50565b60007f000000000000000000000000000000000000000000000000000000000000000073ffffffffffffffffffffffffffffffffffffffff16633a46b1a884846040518363ffffffff1660e01b81526004016118a8929190613cf8565b60206040518083038186803b1580156118c057600080fd5b505afa1580156118d4573d6000803e3d6000fd5b505050506040513d601f19601f820116820180604052508101906118f89190613478565b905092915050565b6119086108d1565b73ffffffffffffffffffffffffffffffffffffffff16611926611b26565b73ffffffffffffffffffffffffffffffffffffffff161461197c576040517f08c379a000000000000000000000000000000000000000000000000000000000815260040161197390613fd6565b60405180910390fd5b611985816121b5565b50565b6000611992611436565b61199a61143f565b7f000000000000000000000000000000000000000000000000000000000000000073ffffffffffffffffffffffffffffffffffffffff16638e539e8c856040518263ffffffff1660e01b81526004016119f39190614216565b60206040518083038186803b158015611a0b57600080fd5b505afa158015611a1f573d6000803e3d6000fd5b505050506040513d601f19601f82011682018060405250810190611a439190613478565b611a4d91906146a0565b611a57919061466f565b9050919050565b7f000000000000000000000000000000000000000000000000000000000000000081565b6000600760009054906101000a900473ffffffffffffffffffffffffffffffffffffffff16905090565b60007f6e665ced000000000000000000000000000000000000000000000000000000007bffffffffffffffffffffffffffffffffffffffffffffffffffffffff1916827bffffffffffffffffffffffffffffffffffffffffffffffffffffffff19161480611b1f5750611b1e826121fa565b5b9050919050565b600033905090565b611b36611436565b811115611b78576040517f08c379a0000000000000000000000000000000000000000000000000000000008152600401611b6f90613ff6565b60405180910390fd5b60006006549050816006819055507f0553476bf02ef2726e8ce5ced78d63e26e602e4a2257b1f559418e24b46339978183604051611bb79291906142e1565b60405180910390a15050565b611bd08585858585612274565b5050505050565b600081600001519050919050565b6000611bf8611bf2612312565b8361242c565b9050919050565b6000806000611c108787878761245f565b91509150611c1d8161256c565b8192505050949350505050565b60008060016000878152602001908152602001600020905060016007811115611c5657611c5561498f565b5b611c5f87610f23565b6007811115611c7157611c7061498f565b5b14611cb1576040517f08c379a0000000000000000000000000000000000000000000000000000000008152600401611ca8906140f6565b60405180910390fd5b6000611d0f86611d00846000016040518060200160405290816000820160009054906101000a900467ffffffffffffffff1667ffffffffffffffff1667ffffffffffffffff1681525050611bd7565b67ffffffffffffffff1661184b565b9050611d1d87878784612741565b8573ffffffffffffffffffffffffffffffffffffffff167fb8e138887d0aa13bab447e82de9d5c1777041ecd21ca36ba824ff1e6c07ddda488878488604051611d699493929190614341565b60405180910390a28092505050949350505050565b600080611d8a83612947565b905060046007811115611da057611d9f61498f565b5b816007811115611db357611db261498f565b5b14611dc15780915050611f6b565b6000600860008581526020019081526020016000205490506000801b811415611dee578192505050611f6b565b600760009054906101000a900473ffffffffffffffffffffffffffffffffffffffff1673ffffffffffffffffffffffffffffffffffffffff16632ab0f529826040518263ffffffff1660e01b8152600401611e499190613e74565b60206040518083038186803b158015611e6157600080fd5b505afa158015611e75573d6000803e3d6000fd5b505050506040513d601f19601f82011682018060405250810190611e999190613397565b15611ea957600792505050611f6b565b600760009054906101000a900473ffffffffffffffffffffffffffffffffffffffff1673ffffffffffffffffffffffffffffffffffffffff1663584b153e826040518263ffffffff1660e01b8152600401611f049190613e74565b60206040518083038186803b158015611f1c57600080fd5b505afa158015611f30573d6000803e3d6000fd5b505050506040513d601f19601f82011682018060405250810190611f549190613397565b15611f6457600592505050611f6b565b6002925050505b919050565b7fc565b045403dc03c2eea82b81a0465edad9e2e7fc4d97e11421c209da93d7a9360025482604051611fa39291906142e1565b60405180910390a18060028190555050565b600080826000015167ffffffffffffffff16149050919050565b600067ffffffffffffffff801682111561201e576040517f08c379a000000000000000000000000000000000000000000000000000000000815260040161201590614156565b60405180910390fd5b819050919050565b808260000160006101000a81548167ffffffffffffffff021916908367ffffffffffffffff1602179055505050565b7f08f74ea46ef7894f65eabfb5e6e695de773a000b47c529ab559178069b226401600760009054906101000a900473ffffffffffffffffffffffffffffffffffffffff16826040516120a8929190613ccf565b60405180910390a180600760006101000a81548173ffffffffffffffffffffffffffffffffffffffff021916908373ffffffffffffffffffffffffffffffffffffffff16021790555050565b6000600454905090565b606061212484848460405180606001604052806029815260200161507c60299139612a5c565b90509392505050565b60008111612170576040517f08c379a000000000000000000000000000000000000000000000000000000000815260040161216790614076565b60405180910390fd5b7f7e3f7f0708a84de9203036abaa450dccc85ad5ff52f78c170f3edb55cf5e8828600354826040516121a39291906142e1565b60405180910390a18060038190555050565b7fccb45da8d5717e6c4544694297c4ba5cf151d455c9bb0ed4fc7a38411bc05461600454826040516121e89291906142e1565b60405180910390a18060048190555050565b60007fbf26d897000000000000000000000000000000000000000000000000000000007bffffffffffffffffffffffffffffffffffffffffffffffffffffffff1916827bffffffffffffffffffffffffffffffffffffffffffffffffffffffff1916148061226d575061226c82612b70565b5b9050919050565b600760009054906101000a900473ffffffffffffffffffffffffffffffffffffffff1673ffffffffffffffffffffffffffffffffffffffff1663e38335e5348686866000876040518763ffffffff1660e01b81526004016122d9959493929190613d7b565b6000604051808303818588803b1580156122f257600080fd5b505af1158015612306573d6000803e3d6000fd5b50505050505050505050565b60007f000000000000000000000000000000000000000000000000000000000000000073ffffffffffffffffffffffffffffffffffffffff163073ffffffffffffffffffffffffffffffffffffffff1614801561238e57507f000000000000000000000000000000000000000000000000000000000000000046145b156123bb577f00000000000000000000000000000000000000000000000000000000000000009050612429565b6124267f00000000000000000000000000000000000000000000000000000000000000007f00000000000000000000000000000000000000000000000000000000000000007f0000000000000000000000000000000000000000000000000000000000000000612bda565b90505b90565b60008282604051602001612441929190613c7d565b60405160208183030381529060405280519060200120905092915050565b6000807f7fffffffffffffffffffffffffffffff5d576e7357a4501ddfe92f46681b20a08360001c111561249a576000600391509150612563565b601b8560ff16141580156124b25750601c8560ff1614155b156124c4576000600491509150612563565b6000600187878787604051600081526020016040526040516124e99493929190613f19565b6020604051602081039080840390855afa15801561250b573d6000803e3d6000fd5b505050602060405103519050600073ffffffffffffffffffffffffffffffffffffffff168173ffffffffffffffffffffffffffffffffffffffff16141561255a57600060019250925050612563565b80600092509250505b94509492505050565b600060048111156125805761257f61498f565b5b8160048111156125935761259261498f565b5b141561259e5761273e565b600160048111156125b2576125b161498f565b5b8160048111156125c5576125c461498f565b5b1415612606576040517f08c379a00000000000000000000000000000000000000000000000000000000081526004016125fd90613fb6565b60405180910390fd5b6002600481111561261a5761261961498f565b5b81600481111561262d5761262c61498f565b5b141561266e576040517f08c379a000000000000000000000000000000000000000000000000000000000815260040161266590614036565b60405180910390fd5b600360048111156126825761268161498f565b5b8160048111156126955761269461498f565b5b14156126d6576040517f08c379a00000000000000000000000000000000000000000000000000000000081526004016126cd90614096565b60405180910390fd5b6004808111156126e9576126e861498f565b5b8160048111156126fc576126fb61498f565b5b141561273d576040517f08c379a000000000000000000000000000000000000000000000000000000000815260040161273490614136565b60405180910390fd5b5b50565b60006005600086815260200190815260200160002090508060030160008573ffffffffffffffffffffffffffffffffffffffff1673ffffffffffffffffffffffffffffffffffffffff16815260200190815260200160002060009054906101000a900460ff16156127e7576040517f08c379a00000000000000000000000000000000000000000000000000000000081526004016127de906140b6565b60405180910390fd5b60018160030160008673ffffffffffffffffffffffffffffffffffffffff1673ffffffffffffffffffffffffffffffffffffffff16815260200190815260200160002060006101000a81548160ff021916908315150217905550600060028111156128555761285461498f565b5b60ff168360ff161415612882578181600001600082825461287691906145db565b92505081905550612940565b600160028111156128965761289561498f565b5b60ff168360ff1614156128c357818160010160008282546128b791906145db565b9250508190555061293f565b6002808111156128d6576128d561498f565b5b60ff168360ff16141561290357818160020160008282546128f791906145db565b9250508190555061293e565b6040517f08c379a0000000000000000000000000000000000000000000000000000000008152600401612935906141b6565b60405180910390fd5b5b5b5050505050565b6000806001600084815260200190815260200160002090508060020160009054906101000a900460ff1615612980576007915050612a57565b8060020160019054906101000a900460ff16156129a1576002915050612a57565b60006129ac84610e21565b905060008114156129f2576040517f08c379a00000000000000000000000000000000000000000000000000000000081526004016129e990614196565b60405180910390fd5b438110612a0457600092505050612a57565b6000612a0f856115bc565b9050438110612a245760019350505050612a57565b612a2d85612c14565b8015612a3e5750612a3d85612c5b565b5b15612a4f5760049350505050612a57565b600393505050505b919050565b606082471015612aa1576040517f08c379a0000000000000000000000000000000000000000000000000000000008152600401612a98906140d6565b60405180910390fd5b612aaa85612c86565b612ae9576040517f08c379a0000000000000000000000000000000000000000000000000000000008152600401612ae0906141f6565b60405180910390fd5b6000808673ffffffffffffffffffffffffffffffffffffffff168587604051612b129190613c66565b60006040518083038185875af1925050503d8060008114612b4f576040519150601f19603f3d011682016040523d82523d6000602084013e612b54565b606091505b5091509150612b64828286612ca9565b92505050949350505050565b60007f01ffc9a7000000000000000000000000000000000000000000000000000000007bffffffffffffffffffffffffffffffffffffffffffffffffffffffff1916827bffffffffffffffffffffffffffffffffffffffffffffffffffffffff1916149050919050565b60008383834630604051602001612bf5959493929190613e8f565b6040516020818303038152906040528051906020012090509392505050565b60008060056000848152602001908152602001600020905080600201548160010154612c4091906145db565b612c51612c4c85610e21565b611988565b1115915050919050565b6000806005600084815260200190815260200160002090508060000154816001015411915050919050565b6000808273ffffffffffffffffffffffffffffffffffffffff163b119050919050565b60608315612cb957829050612d09565b600083511115612ccc5782518084602001fd5b816040517f08c379a0000000000000000000000000000000000000000000000000000000008152600401612d009190613f94565b60405180910390fd5b9392505050565b6000612d23612d1e846143b2565b61438d565b90508083825260208201905082856020860282011115612d4657612d45614a26565b5b60005b85811015612d765781612d5c8882612f02565b845260208401935060208301925050600181019050612d49565b5050509392505050565b6000612d93612d8e846143de565b61438d565b90508083825260208201905082856020860282011115612db657612db5614a26565b5b60005b85811015612e0457813567ffffffffffffffff811115612ddc57612ddb614a21565b5b808601612de9898261304b565b85526020850194506020840193505050600181019050612db9565b5050509392505050565b6000612e21612e1c8461440a565b61438d565b90508083825260208201905082856020860282011115612e4457612e43614a26565b5b60005b85811015612e745781612e5a8882613112565b845260208401935060208301925050600181019050612e47565b5050509392505050565b6000612e91612e8c84614436565b61438d565b905082815260208101848484011115612ead57612eac614a2b565b5b612eb8848285614882565b509392505050565b6000612ed3612ece84614467565b61438d565b905082815260208101848484011115612eef57612eee614a2b565b5b612efa848285614882565b509392505050565b600081359050612f1181614fda565b92915050565b600082601f830112612f2c57612f2b614a21565b5b8135612f3c848260208601612d10565b91505092915050565b600082601f830112612f5a57612f59614a21565b5b8135612f6a848260208601612d80565b91505092915050565b600082601f830112612f8857612f87614a21565b5b8135612f98848260208601612e0e565b91505092915050565b600081519050612fb081614ff1565b92915050565b600081359050612fc581615008565b92915050565b600081519050612fda81615008565b92915050565b600081359050612fef8161501f565b92915050565b60008083601f84011261300b5761300a614a21565b5b8235905067ffffffffffffffff81111561302857613027614a1c565b5b60208301915083600182028301111561304457613043614a26565b5b9250929050565b600082601f8301126130605761305f614a21565b5b8135613070848260208601612e7e565b91505092915050565b60008135905061308881615036565b92915050565b60008083601f8401126130a4576130a3614a21565b5b8235905067ffffffffffffffff8111156130c1576130c0614a1c565b5b6020830191508360018202830111156130dd576130dc614a26565b5b9250929050565b600082601f8301126130f9576130f8614a21565b5b8135613109848260208601612ec0565b91505092915050565b6000813590506131218161504d565b92915050565b6000815190506131368161504d565b92915050565b60008135905061314b81615064565b92915050565b6000806040838503121561316857613167614a35565b5b600061317685828601612f02565b925050602061318785828601613112565b9150509250929050565b600080600080606085870312156131ab576131aa614a35565b5b60006131b987828801612f02565b94505060206131ca87828801613112565b935050604085013567ffffffffffffffff8111156131eb576131ea614a30565b5b6131f787828801612ff5565b925092505092959194509250565b6000806000806080858703121561321f5761321e614a35565b5b600085013567ffffffffffffffff81111561323d5761323c614a30565b5b61324987828801612f17565b945050602085013567ffffffffffffffff81111561326a57613269614a30565b5b61327687828801612f73565b935050604085013567ffffffffffffffff81111561329757613296614a30565b5b6132a387828801612f45565b92505060606132b487828801612fb6565b91505092959194509250565b600080600080608085870312156132da576132d9614a35565b5b600085013567ffffffffffffffff8111156132f8576132f7614a30565b5b61330487828801612f17565b945050602085013567ffffffffffffffff81111561332557613324614a30565b5b61333187828801612f73565b935050604085013567ffffffffffffffff81111561335257613351614a30565b5b61335e87828801612f45565b925050606085013567ffffffffffffffff81111561337f5761337e614a30565b5b61338b878288016130e4565b91505092959194509250565b6000602082840312156133ad576133ac614a35565b5b60006133bb84828501612fa1565b91505092915050565b6000602082840312156133da576133d9614a35565b5b60006133e884828501612fcb565b91505092915050565b60006020828403121561340757613406614a35565b5b600061341584828501612fe0565b91505092915050565b60006020828403121561343457613433614a35565b5b600061344284828501613079565b91505092915050565b60006020828403121561346157613460614a35565b5b600061346f84828501613112565b91505092915050565b60006020828403121561348e5761348d614a35565b5b600061349c84828501613127565b91505092915050565b600080604083850312156134bc576134bb614a35565b5b60006134ca85828601613112565b92505060206134db85828601612f02565b9150509250929050565b600080604083850312156134fc576134fb614a35565b5b600061350a85828601613112565b925050602061351b8582860161313c565b9150509250929050565b6000806000806060858703121561353f5761353e614a35565b5b600061354d87828801613112565b945050602061355e8782880161313c565b935050604085013567ffffffffffffffff81111561357f5761357e614a30565b5b61358b8782880161308e565b925092505092959194509250565b600080600080600060a086880312156135b5576135b4614a35565b5b60006135c388828901613112565b95505060206135d48882890161313c565b94505060406135e58882890161313c565b93505060606135f688828901612fb6565b925050608061360788828901612fb6565b9150509295509295909350565b6000613620838361366c565b60208301905092915050565b60006136388383613865565b905092915050565b600061364c83836138fc565b905092915050565b60006136608383613c2a565b60208301905092915050565b6136758161472e565b82525050565b6136848161472e565b82525050565b6000613695826144d8565b61369f818561454e565b93506136aa83614498565b8060005b838110156136db5781516136c28882613614565b97506136cd8361451a565b9250506001810190506136ae565b5085935050505092915050565b60006136f3826144e3565b6136fd818561455f565b93508360208202850161370f856144a8565b8060005b8581101561374b578484038952815161372c858261362c565b945061373783614527565b925060208a01995050600181019050613713565b50829750879550505050505092915050565b6000613768826144ee565b6137728185614570565b935083602082028501613784856144b8565b8060005b858110156137c057848403895281516137a18582613640565b94506137ac83614534565b925060208a01995050600181019050613788565b50829750879550505050505092915050565b60006137dd826144f9565b6137e78185614581565b93506137f2836144c8565b8060005b8381101561382357815161380a8882613654565b975061381583614541565b9250506001810190506137f6565b5085935050505092915050565b61383981614752565b82525050565b6138488161475e565b82525050565b61385f61385a8261475e565b614927565b82525050565b600061387082614504565b61387a8185614592565b935061388a818560208601614891565b61389381614a3a565b840191505092915050565b60006138a982614504565b6138b381856145a3565b93506138c3818560208601614891565b80840191505092915050565b6138d88161480e565b82525050565b6138e781614820565b82525050565b6138f681614832565b82525050565b60006139078261450f565b61391181856145ae565b9350613921818560208601614891565b61392a81614a3a565b840191505092915050565b60006139408261450f565b61394a81856145bf565b935061395a818560208601614891565b61396381614a3a565b840191505092915050565b600061397b6018836145bf565b915061398682614a58565b602082019050919050565b600061399e6018836145bf565b91506139a982614a81565b602082019050919050565b60006139c16043836145bf565b91506139cc82614aaa565b606082019050919050565b60006139e46043836145bf565b91506139ef82614b1f565b606082019050919050565b6000613a07601f836145bf565b9150613a1282614b94565b602082019050919050565b6000613a2a6002836145d0565b9150613a3582614bbd565b600282019050919050565b6000613a4d6021836145bf565b9150613a5882614be6565b604082019050919050565b6000613a706027836145bf565b9150613a7b82614c35565b604082019050919050565b6000613a936022836145bf565b9150613a9e82614c84565b604082019050919050565b6000613ab66027836145bf565b9150613ac182614cd3565b604082019050919050565b6000613ad96026836145bf565b9150613ae482614d22565b604082019050919050565b6000613afc6023836145bf565b9150613b0782614d71565b604082019050919050565b6000613b1f6018836145bf565b9150613b2a82614dc0565b602082019050919050565b6000613b426022836145bf565b9150613b4d82614de9565b604082019050919050565b6000613b656026836145bf565b9150613b7082614e38565b604082019050919050565b6000613b886021836145bf565b9150613b9382614e87565b604082019050919050565b6000613bab601d836145bf565b9150613bb682614ed6565b602082019050919050565b6000613bce6035836145bf565b9150613bd982614eff565b604082019050919050565b6000613bf16021836145bf565b9150613bfc82614f4e565b604082019050919050565b6000613c14601d836145bf565b9150613c1f82614f9d565b602082019050919050565b613c33816147e3565b82525050565b613c42816147e3565b82525050565b613c5181614870565b82525050565b613c6081614801565b82525050565b6000613c72828461389e565b915081905092915050565b6000613c8882613a1d565b9150613c94828561384e565b602082019150613ca4828461384e565b6020820191508190509392505050565b6000602082019050613cc9600083018461367b565b92915050565b6000604082019050613ce4600083018561367b565b613cf1602083018461367b565b9392505050565b6000604082019050613d0d600083018561367b565b613d1a6020830184613c39565b9392505050565b60006080820190508181036000830152613d3b818761368a565b90508181036020830152613d4f81866137d2565b90508181036040830152613d6381856136e8565b9050613d72606083018461383f565b95945050505050565b600060a0820190508181036000830152613d95818861368a565b90508181036020830152613da981876137d2565b90508181036040830152613dbd81866136e8565b9050613dcc60608301856138ed565b613dd9608083018461383f565b9695505050505050565b600060c0820190508181036000830152613dfd818961368a565b90508181036020830152613e1181886137d2565b90508181036040830152613e2581876136e8565b9050613e3460608301866138ed565b613e41608083018561383f565b613e4e60a0830184613c39565b979650505050505050565b6000602082019050613e6e6000830184613830565b92915050565b6000602082019050613e89600083018461383f565b92915050565b600060a082019050613ea4600083018861383f565b613eb1602083018761383f565b613ebe604083018661383f565b613ecb6060830185613c39565b613ed8608083018461367b565b9695505050505050565b6000606082019050613ef7600083018661383f565b613f046020830185613c39565b613f116040830184613c57565b949350505050565b6000608082019050613f2e600083018761383f565b613f3b6020830186613c57565b613f48604083018561383f565b613f55606083018461383f565b95945050505050565b6000602082019050613f7360008301846138cf565b92915050565b6000602082019050613f8e60008301846138de565b92915050565b60006020820190508181036000830152613fae8184613935565b905092915050565b60006020820190508181036000830152613fcf8161396e565b9050919050565b60006020820190508181036000830152613fef81613991565b9050919050565b6000602082019050818103600083015261400f816139b4565b9050919050565b6000602082019050818103600083015261402f816139d7565b9050919050565b6000602082019050818103600083015261404f816139fa565b9050919050565b6000602082019050818103600083015261406f81613a40565b9050919050565b6000602082019050818103600083015261408f81613a63565b9050919050565b600060208201905081810360008301526140af81613a86565b9050919050565b600060208201905081810360008301526140cf81613aa9565b9050919050565b600060208201905081810360008301526140ef81613acc565b9050919050565b6000602082019050818103600083015261410f81613aef565b9050919050565b6000602082019050818103600083015261412f81613b12565b9050919050565b6000602082019050818103600083015261414f81613b35565b9050919050565b6000602082019050818103600083015261416f81613b58565b9050919050565b6000602082019050818103600083015261418f81613b7b565b9050919050565b600060208201905081810360008301526141af81613b9e565b9050919050565b600060208201905081810360008301526141cf81613bc1565b9050919050565b600060208201905081810360008301526141ef81613be4565b9050919050565b6000602082019050818103600083015261420f81613c07565b9050919050565b600060208201905061422b6000830184613c39565b92915050565b600061012082019050614247600083018c613c39565b614254602083018b61367b565b8181036040830152614266818a61368a565b9050818103606083015261427a81896137d2565b9050818103608083015261428e818861375d565b905081810360a08301526142a281876136e8565b90506142b160c0830186613c48565b6142be60e0830185613c48565b8181036101008301526142d18184613935565b90509a9950505050505050505050565b60006040820190506142f66000830185613c39565b6143036020830184613c39565b9392505050565b600060608201905061431f6000830186613c39565b61432c6020830185613c39565b6143396040830184613c39565b949350505050565b60006080820190506143566000830187613c39565b6143636020830186613c57565b6143706040830185613c39565b81810360608301526143828184613935565b905095945050505050565b60006143976143a8565b90506143a382826148f6565b919050565b6000604051905090565b600067ffffffffffffffff8211156143cd576143cc6149ed565b5b602082029050602081019050919050565b600067ffffffffffffffff8211156143f9576143f86149ed565b5b602082029050602081019050919050565b600067ffffffffffffffff821115614425576144246149ed565b5b602082029050602081019050919050565b600067ffffffffffffffff821115614451576144506149ed565b5b61445a82614a3a565b9050602081019050919050565b600067ffffffffffffffff821115614482576144816149ed565b5b61448b82614a3a565b9050602081019050919050565b6000819050602082019050919050565b6000819050602082019050919050565b6000819050602082019050919050565b6000819050602082019050919050565b600081519050919050565b600081519050919050565b600081519050919050565b600081519050919050565b600081519050919050565b600081519050919050565b6000602082019050919050565b6000602082019050919050565b6000602082019050919050565b6000602082019050919050565b600082825260208201905092915050565b600082825260208201905092915050565b600082825260208201905092915050565b600082825260208201905092915050565b600082825260208201905092915050565b600081905092915050565b600082825260208201905092915050565b600082825260208201905092915050565b600081905092915050565b60006145e6826147e3565b91506145f1836147e3565b9250827fffffffffffffffffffffffffffffffffffffffffffffffffffffffffffffffff0382111561462657614625614931565b5b828201905092915050565b600061463c826147ed565b9150614647836147ed565b92508267ffffffffffffffff0382111561466457614663614931565b5b828201905092915050565b600061467a826147e3565b9150614685836147e3565b92508261469557614694614960565b5b828204905092915050565b60006146ab826147e3565b91506146b6836147e3565b9250817fffffffffffffffffffffffffffffffffffffffffffffffffffffffffffffffff04831182151516156146ef576146ee614931565b5b828202905092915050565b6000614705826147e3565b9150614710836147e3565b92508282101561472357614722614931565b5b828203905092915050565b6000614739826147c3565b9050919050565b600061474b826147c3565b9050919050565b60008115159050919050565b6000819050919050565b60007fffffffff0000000000000000000000000000000000000000000000000000000082169050919050565b600061479f82614740565b9050919050565b60008190506147b482614fc6565b919050565b6000819050919050565b600073ffffffffffffffffffffffffffffffffffffffff82169050919050565b6000819050919050565b600067ffffffffffffffff82169050919050565b600060ff82169050919050565b60006148198261484c565b9050919050565b600061482b826147a6565b9050919050565b6000614845614840836147b9565b614a4b565b9050919050565b60006148578261485e565b9050919050565b6000614869826147c3565b9050919050565b600061487b826147ed565b9050919050565b82818337600083830152505050565b60005b838110156148af578082015181840152602081019050614894565b838111156148be576000848401525b50505050565b600060028204905060018216806148dc57607f821691505b602082108114156148f0576148ef6149be565b5b50919050565b6148ff82614a3a565b810181811067ffffffffffffffff8211171561491e5761491d6149ed565b5b80604052505050565b6000819050919050565b7f4e487b7100000000000000000000000000000000000000000000000000000000600052601160045260246000fd5b7f4e487b7100000000000000000000000000000000000000000000000000000000600052601260045260246000fd5b7f4e487b7100000000000000000000000000000000000000000000000000000000600052602160045260246000fd5b7f4e487b7100000000000000000000000000000000000000000000000000000000600052602260045260246000fd5b7f4e487b7100000000000000000000000000000000000000000000000000000000600052604160045260246000fd5b600080fd5b600080fd5b600080fd5b600080fd5b600080fd5b600080fd5b6000601f19601f8301169050919050565b60008160001b9050919050565b7f45434453413a20696e76616c6964207369676e61747572650000000000000000600082015250565b7f476f7665726e6f723a206f6e6c79476f7665726e616e63650000000000000000600082015250565b7f476f7665726e6f72566f74657351756f72756d4672616374696f6e3a2071756f60008201527f72756d4e756d657261746f72206f7665722071756f72756d44656e6f6d696e6160208201527f746f720000000000000000000000000000000000000000000000000000000000604082015250565b7f476f7665726e6f72436f6d7061746962696c697479427261766f3a2070726f7060008201527f6f73657220766f7465732062656c6f772070726f706f73616c2074687265736860208201527f6f6c640000000000000000000000000000000000000000000000000000000000604082015250565b7f45434453413a20696e76616c6964207369676e6174757265206c656e67746800600082015250565b7f1901000000000000000000000000000000000000000000000000000000000000600082015250565b7f476f7665726e6f723a20696e76616c69642070726f706f73616c206c656e677460008201527f6800000000000000000000000000000000000000000000000000000000000000602082015250565b7f476f7665726e6f7253657474696e67733a20766f74696e6720706572696f642060008201527f746f6f206c6f7700000000000000000000000000000000000000000000000000602082015250565b7f45434453413a20696e76616c6964207369676e6174757265202773272076616c60008201527f7565000000000000000000000000000000000000000000000000000000000000602082015250565b7f476f7665726e6f72566f74696e6753696d706c653a20766f746520616c72656160008201527f6479206361737400000000000000000000000000000000000000000000000000602082015250565b7f416464726573733a20696e73756666696369656e742062616c616e636520666f60008201527f722063616c6c0000000000000000000000000000000000000000000000000000602082015250565b7f476f7665726e6f723a20766f7465206e6f742063757272656e746c792061637460008201527f6976650000000000000000000000000000000000000000000000000000000000602082015250565b7f476f7665726e6f723a20656d7074792070726f706f73616c0000000000000000600082015250565b7f45434453413a20696e76616c6964207369676e6174757265202776272076616c60008201527f7565000000000000000000000000000000000000000000000000000000000000602082015250565b7f53616665436173743a2076616c756520646f65736e27742066697420696e203660008201527f3420626974730000000000000000000000000000000000000000000000000000602082015250565b7f476f7665726e6f723a2070726f706f73616c206e6f742073756363657373667560008201527f6c00000000000000000000000000000000000000000000000000000000000000602082015250565b7f476f7665726e6f723a20756e6b6e6f776e2070726f706f73616c206964000000600082015250565b7f476f7665726e6f72566f74696e6753696d706c653a20696e76616c696420766160008201527f6c756520666f7220656e756d20566f7465547970650000000000000000000000602082015250565b7f476f7665726e6f723a2070726f706f73616c20616c726561647920657869737460008201527f7300000000000000000000000000000000000000000000000000000000000000602082015250565b7f416464726573733a2063616c6c20746f206e6f6e2d636f6e7472616374000000600082015250565b60088110614fd757614fd661498f565b5b50565b614fe38161472e565b8114614fee57600080fd5b50565b614ffa81614752565b811461500557600080fd5b50565b6150118161475e565b811461501c57600080fd5b50565b61502881614768565b811461503357600080fd5b50565b61503f81614794565b811461504a57600080fd5b50565b615056816147e3565b811461506157600080fd5b50565b61506d81614801565b811461507857600080fd5b5056fe416464726573733a206c6f772d6c6576656c2063616c6c20776974682076616c7565206661696c6564a26469706673582212202340bd2910b50d7afadd2efb4ce1c4a5d96bfb6fda7417246530b316f3b75d1364736f6c63430008070033",
  "linkReferences": {},
  "deployedLinkReferences": {}
}