{
  "_format": "hh-sol-artifact-1",
  "contractName": "DaoToken",
  "sourceName": "contracts/GovernanceToken.sol",
  "abi": [
    {
      "inputs": [
        {
          "internalType": "string",
          "name": "name",
          "type": "string"
        },
        {
          "internalType": "string",
          "name": "symbol",
          "type": "string"
        }
      ],
      "stateMutability": "nonpayable",
      "type": "constructor"
    },
    {
      "anonymous": false,
      "inputs": [
        {
          "indexed": true,
          "internalType": "address",
          "name": "owner",
          "type": "address"
        },
        {
          "indexed": true,
          "internalType": "address",
          "name": "spender",
          "type": "address"
        },
        {
          "indexed": false,
          "internalType": "uint256",
          "name": "value",
          "type": "uint256"
        }
      ],
      "name": "Approval",
      "type": "event"
    },
    {
      "anonymous": false,
      "inputs": [
        {
          "indexed": true,
          "internalType": "address",
          "name": "delegator",
          "type": "address"
        },
        {
          "indexed": true,
          "internalType": "address",
          "name": "fromDelegate",
          "type": "address"
        },
        {
          "indexed": true,
          "internalType": "address",
          "name": "toDelegate",
          "type": "address"
        }
      ],
      "name": "DelegateChanged",
      "type": "event"
    },
    {
      "anonymous": false,
      "inputs": [
        {
          "indexed": true,
          "internalType": "address",
          "name": "delegate",
          "type": "address"
        },
        {
          "indexed": false,
          "internalType": "uint256",
          "name": "previousBalance",
          "type": "uint256"
        },
        {
          "indexed": false,
          "internalType": "uint256",
          "name": "newBalance",
          "type": "uint256"
        }
      ],
      "name": "DelegateVotesChanged",
      "type": "event"
    },
    {
      "anonymous": false,
      "inputs": [
        {
          "indexed": true,
          "internalType": "address",
          "name": "from",
          "type": "address"
        },
        {
          "indexed": true,
          "internalType": "address",
          "name": "to",
          "type": "address"
        },
        {
          "indexed": false,
          "internalType": "uint256",
          "name": "value",
          "type": "uint256"
        }
      ],
      "name": "Transfer",
      "type": "event"
    },
    {
      "inputs": [],
      "name": "DOMAIN_SEPARATOR",
      "outputs": [
        {
          "internalType": "bytes32",
          "name": "",
          "type": "bytes32"
        }
      ],
      "stateMutability": "view",
      "type": "function"
    },
    {
      "inputs": [
        {
          "internalType": "address",
          "name": "owner",
          "type": "address"
        },
        {
          "internalType": "address",
          "name": "spender",
          "type": "address"
        }
      ],
      "name": "allowance",
      "outputs": [
        {
          "internalType": "uint256",
          "name": "",
          "type": "uint256"
        }
      ],
      "stateMutability": "view",
      "type": "function"
    },
    {
      "inputs": [
        {
          "internalType": "address",
          "name": "spender",
          "type": "address"
        },
        {
          "internalType": "uint256",
          "name": "amount",
          "type": "uint256"
        }
      ],
      "name": "approve",
      "outputs": [
        {
          "internalType": "bool",
          "name": "",
          "type": "bool"
        }
      ],
      "stateMutability": "nonpayable",
      "type": "function"
    },
    {
      "inputs": [
        {
          "internalType": "address",
          "name": "account",
          "type": "address"
        }
      ],
      "name": "balanceOf",
      "outputs": [
        {
          "internalType": "uint256",
          "name": "",
          "type": "uint256"
        }
      ],
      "stateMutability": "view",
      "type": "function"
    },
    {
      "inputs": [
        {
          "internalType": "address",
          "name": "account",
          "type": "address"
        },
        {
          "internalType": "uint32",
          "name": "pos",
          "type": "uint32"
        }
      ],
      "name": "checkpoints",
      "outputs": [
        {
          "components": [
            {
              "internalType": "uint32",
              "name": "fromBlock",
              "type": "uint32"
            },
            {
              "internalType": "uint224",
              "name": "votes",
              "type": "uint224"
            }
          ],
          "internalType": "struct ERC20Votes.Checkpoint",
          "name": "",
          "type": "tuple"
        }
      ],
      "stateMutability": "view",
      "type": "function"
    },
    {
      "inputs": [],
      "name": "decimals",
      "outputs": [
        {
          "internalType": "uint8",
          "name": "",
          "type": "uint8"
        }
      ],
      "stateMutability": "view",
      "type": "function"
    },
    {
      "inputs": [
        {
          "internalType": "address",
          "name": "spender",
          "type": "address"
        },
        {
          "internalType": "uint256",
          "name": "subtractedValue",
          "type": "uint256"
        }
      ],
      "name": "decreaseAllowance",
      "outputs": [
        {
          "internalType": "bool",
          "name": "",
          "type": "bool"
        }
      ],
      "stateMutability": "nonpayable",
      "type": "function"
    },
    {
      "inputs": [
        {
          "internalType": "address",
          "name": "delegatee",
          "type": "address"
        }
      ],
      "name": "delegate",
      "outputs": [],
      "stateMutability": "nonpayable",
      "type": "function"
    },
    {
      "inputs": [
        {
          "internalType": "address",
          "name": "delegatee",
          "type": "address"
        },
        {
          "internalType": "uint256",
          "name": "nonce",
          "type": "uint256"
        },
        {
          "internalType": "uint256",
          "name": "expiry",
          "type": "uint256"
        },
        {
          "internalType": "uint8",
          "name": "v",
          "type": "uint8"
        },
        {
          "internalType": "bytes32",
          "name": "r",
          "type": "bytes32"
        },
        {
          "internalType": "bytes32",
          "name": "s",
          "type": "bytes32"
        }
      ],
      "name": "delegateBySig",
      "outputs": [],
      "stateMutability": "nonpayable",
      "type": "function"
    },
    {
      "inputs": [
        {
          "internalType": "address",
          "name": "account",
          "type": "address"
        }
      ],
      "name": "delegates",
      "outputs": [
        {
          "internalType": "address",
          "name": "",
          "type": "address"
        }
      ],
      "stateMutability": "view",
      "type": "function"
    },
    {
      "inputs": [
        {
          "internalType": "uint256",
          "name": "blockNumber",
          "type": "uint256"
        }
      ],
      "name": "getPastTotalSupply",
      "outputs": [
        {
          "internalType": "uint256",
          "name": "",
          "type": "uint256"
        }
      ],
      "stateMutability": "view",
      "type": "function"
    },
    {
      "inputs": [
        {
          "internalType": "address",
          "name": "account",
          "type": "address"
        },
        {
          "internalType": "uint256",
          "name": "blockNumber",
          "type": "uint256"
        }
      ],
      "name": "getPastVotes",
      "outputs": [
        {
          "internalType": "uint256",
          "name": "",
          "type": "uint256"
        }
      ],
      "stateMutability": "view",
      "type": "function"
    },
    {
      "inputs": [
        {
          "internalType": "address",
          "name": "account",
          "type": "address"
        }
      ],
      "name": "getVotes",
      "outputs": [
        {
          "internalType": "uint256",
          "name": "",
          "type": "uint256"
        }
      ],
      "stateMutability": "view",
      "type": "function"
    },
    {
      "inputs": [
        {
          "internalType": "address",
          "name": "spender",
          "type": "address"
        },
        {
          "internalType": "uint256",
          "name": "addedValue",
          "type": "uint256"
        }
      ],
      "name": "increaseAllowance",
      "outputs": [
        {
          "internalType": "bool",
          "name": "",
          "type": "bool"
        }
      ],
      "stateMutability": "nonpayable",
      "type": "function"
    },
    {
      "inputs": [],
      "name": "maxSupply",
      "outputs": [
        {
          "internalType": "uint256",
          "name": "",
          "type": "uint256"
        }
      ],
      "stateMutability": "view",
      "type": "function"
    },
    {
      "inputs": [],
      "name": "name",
      "outputs": [
        {
          "internalType": "string",
          "name": "",
          "type": "string"
        }
      ],
      "stateMutability": "view",
      "type": "function"
    },
    {
      "inputs": [
        {
          "internalType": "address",
          "name": "owner",
          "type": "address"
        }
      ],
      "name": "nonces",
      "outputs": [
        {
          "internalType": "uint256",
          "name": "",
          "type": "uint256"
        }
      ],
      "stateMutability": "view",
      "type": "function"
    },
    {
      "inputs": [
        {
          "internalType": "address",
          "name": "account",
          "type": "address"
        }
      ],
      "name": "numCheckpoints",
      "outputs": [
        {
          "internalType": "uint32",
          "name": "",
          "type": "uint32"
        }
      ],
      "stateMutability": "view",
      "type": "function"
    },
    {
      "inputs": [
        {
          "internalType": "address",
          "name": "owner",
          "type": "address"
        },
        {
          "internalType": "address",
          "name": "spender",
          "type": "address"
        },
        {
          "internalType": "uint256",
          "name": "value",
          "type": "uint256"
        },
        {
          "internalType": "uint256",
          "name": "deadline",
          "type": "uint256"
        },
        {
          "internalType": "uint8",
          "name": "v",
          "type": "uint8"
        },
        {
          "internalType": "bytes32",
          "name": "r",
          "type": "bytes32"
        },
        {
          "internalType": "bytes32",
          "name": "s",
          "type": "bytes32"
        }
      ],
      "name": "permit",
      "outputs": [],
      "stateMutability": "nonpayable",
      "type": "function"
    },
    {
      "inputs": [],
      "name": "symbol",
      "outputs": [
        {
          "internalType": "string",
          "name": "",
          "type": "string"
        }
      ],
      "stateMutability": "view",
      "type": "function"
    },
    {
      "inputs": [],
      "name": "totalSupply",
      "outputs": [
        {
          "internalType": "uint256",
          "name": "",
          "type": "uint256"
        }
      ],
      "stateMutability": "view",
      "type": "function"
    },
    {
      "inputs": [
        {
          "internalType": "address",
          "name": "to",
          "type": "address"
        },
        {
          "internalType": "uint256",
          "name": "amount",
          "type": "uint256"
        }
      ],
      "name": "transfer",
      "outputs": [
        {
          "internalType": "bool",
          "name": "",
          "type": "bool"
        }
      ],
      "stateMutability": "nonpayable",
      "type": "function"
    },
    {
      "inputs": [
        {
          "internalType": "address",
          "name": "from",
          "type": "address"
        },
        {
          "internalType": "address",
          "name": "to",
          "type": "address"
        },
        {
          "internalType": "uint256",
          "name": "amount",
          "type": "uint256"
        }
      ],
      "name": "transferFrom",
      "outputs": [
        {
          "internalType": "bool",
          "name": "",
          "type": "bool"
        }
      ],
      "stateMutability": "nonpayable",
      "type": "function"
    }
  ],
  "bytecode": "0x6101606040527f6e71edae12b1b97f4d1f60370fef10105fa2faae0126114a169c64845d6126c961014090815250683635c9adc5dea000006009553480156200004757600080fd5b5060405162004b4d38038062004b4d83398181016040528101906200006d919062000c3f565b81806040518060400160405280600181526020017f310000000000000000000000000000000000000000000000000000000000000081525084848160039080519060200190620000bf92919062000b11565b508060049080519060200190620000d892919062000b11565b50505060008280519060200120905060008280519060200120905060007f8b73c3c69bb8fe3d512ecc4cf759cc79239f7b179b0ffacaa9a75d522b39400f90508260e081815250508161010081815250504660a0818152505062000144818484620001ad60201b60201c565b608081815250503073ffffffffffffffffffffffffffffffffffffffff1660c08173ffffffffffffffffffffffffffffffffffffffff1660601b81525050806101208181525050505050505050620001a533600954620001e960201b60201c565b5050620012ab565b60008383834630604051602001620001ca95949392919062000d93565b6040516020818303038152906040528051906020012090509392505050565b6200020082826200020460201b62000f901760201c565b5050565b6200021b8282620002c260201b6200101d1760201c565b6200022b6200043b60201b60201c565b7bffffffffffffffffffffffffffffffffffffffffffffffffffffffff16620002596200045f60201b60201c565b11156200029d576040517f08c379a0000000000000000000000000000000000000000000000000000000008152600401620002949062000df0565b60405180910390fd5b620002bc60086200046960201b6200117d17836200048160201b60201c565b50505050565b600073ffffffffffffffffffffffffffffffffffffffff168273ffffffffffffffffffffffffffffffffffffffff16141562000335576040517f08c379a00000000000000000000000000000000000000000000000000000000081526004016200032c9062000e56565b60405180910390fd5b62000349600083836200073260201b60201c565b80600260008282546200035d919062000f32565b92505081905550806000808473ffffffffffffffffffffffffffffffffffffffff1673ffffffffffffffffffffffffffffffffffffffff1681526020019081526020016000206000828254620003b4919062000f32565b925050819055508173ffffffffffffffffffffffffffffffffffffffff16600073ffffffffffffffffffffffffffffffffffffffff167fddf252ad1be2c89b69c2b068fc378daa952ba7f163c4a11628f55a4df523b3ef836040516200041b919062000e78565b60405180910390a362000437600083836200073760201b60201c565b5050565b60007bffffffffffffffffffffffffffffffffffffffffffffffffffffffff905090565b6000600254905090565b6000818362000479919062000f32565b905092915050565b60008060008580549050905060008114620004f65785600182620004a6919062000f8f565b81548110620004ba57620004b962001112565b5b9060005260206000200160000160049054906101000a90047bffffffffffffffffffffffffffffffffffffffffffffffffffffffff16620004f9565b60005b7bffffffffffffffffffffffffffffffffffffffffffffffffffffffff1692506200052583858760201c565b91506000811180156200057e5750438660018362000544919062000f8f565b8154811062000558576200055762001112565b5b9060005260206000200160000160009054906101000a900463ffffffff1663ffffffff16145b156200061f576200059a826200075460201b620011931760201c565b86600183620005aa919062000f8f565b81548110620005be57620005bd62001112565b5b9060005260206000200160000160046101000a8154817bffffffffffffffffffffffffffffffffffffffffffffffffffffffff02191690837bffffffffffffffffffffffffffffffffffffffffffffffffffffffff16021790555062000729565b8560405180604001604052806200064143620007c260201b620011fe1760201c565b63ffffffff16815260200162000662856200075460201b620011931760201c565b7bffffffffffffffffffffffffffffffffffffffffffffffffffffffff168152509080600181540180825580915050600190039060005260206000200160009091909190915060008201518160000160006101000a81548163ffffffff021916908363ffffffff16021790555060208201518160000160046101000a8154817bffffffffffffffffffffffffffffffffffffffffffffffffffffffff02191690837bffffffffffffffffffffffffffffffffffffffffffffffffffffffff16021790555050505b50935093915050565b505050565b6200074f8383836200081860201b620012511760201c565b505050565b60007bffffffffffffffffffffffffffffffffffffffffffffffffffffffff8016821115620007ba576040517f08c379a0000000000000000000000000000000000000000000000000000000008152600401620007b19062000e12565b60405180910390fd5b819050919050565b600063ffffffff801682111562000810576040517f08c379a0000000000000000000000000000000000000000000000000000000008152600401620008079062000e34565b60405180910390fd5b819050919050565b620008308383836200086860201b6200127c1760201c565b6200086362000845846200086d60201b60201c565b62000856846200086d60201b60201c565b83620008d660201b60201c565b505050565b505050565b6000600660008373ffffffffffffffffffffffffffffffffffffffff1673ffffffffffffffffffffffffffffffffffffffff16815260200190815260200160002060009054906101000a900473ffffffffffffffffffffffffffffffffffffffff169050919050565b8173ffffffffffffffffffffffffffffffffffffffff168373ffffffffffffffffffffffffffffffffffffffff1614158015620009135750600081115b1562000af457600073ffffffffffffffffffffffffffffffffffffffff168373ffffffffffffffffffffffffffffffffffffffff161462000a0657600080620009ad600760008773ffffffffffffffffffffffffffffffffffffffff1673ffffffffffffffffffffffffffffffffffffffff16815260200190815260200160002062000af960201b6200128117856200048160201b60201c565b915091508473ffffffffffffffffffffffffffffffffffffffff167fdec2bacdd2f05b59de34da9b523dff8be42e5e38e818c82fdb0bae774387a7248383604051620009fb92919062000e95565b60405180910390a250505b600073ffffffffffffffffffffffffffffffffffffffff168273ffffffffffffffffffffffffffffffffffffffff161462000af35760008062000a9a600760008673ffffffffffffffffffffffffffffffffffffffff1673ffffffffffffffffffffffffffffffffffffffff1681526020019081526020016000206200046960201b6200117d17856200048160201b60201c565b915091508373ffffffffffffffffffffffffffffffffffffffff167fdec2bacdd2f05b59de34da9b523dff8be42e5e38e818c82fdb0bae774387a724838360405162000ae892919062000e95565b60405180910390a250505b5b505050565b6000818362000b09919062000f8f565b905092915050565b82805462000b1f9062001048565b90600052602060002090601f01602090048101928262000b43576000855562000b8f565b82601f1062000b5e57805160ff191683800117855562000b8f565b8280016001018555821562000b8f579182015b8281111562000b8e57825182559160200191906001019062000b71565b5b50905062000b9e919062000ba2565b5090565b5b8082111562000bbd57600081600090555060010162000ba3565b5090565b600062000bd862000bd28462000eeb565b62000ec2565b90508281526020810184848401111562000bf75762000bf662001175565b5b62000c0484828562001012565b509392505050565b600082601f83011262000c245762000c2362001170565b5b815162000c3684826020860162000bc1565b91505092915050565b6000806040838503121562000c595762000c586200117f565b5b600083015167ffffffffffffffff81111562000c7a5762000c796200117a565b5b62000c888582860162000c0c565b925050602083015167ffffffffffffffff81111562000cac5762000cab6200117a565b5b62000cba8582860162000c0c565b9150509250929050565b62000ccf8162000fca565b82525050565b62000ce08162000fde565b82525050565b600062000cf560308362000f21565b915062000d028262001195565b604082019050919050565b600062000d1c60278362000f21565b915062000d2982620011e4565b604082019050919050565b600062000d4360268362000f21565b915062000d508262001233565b604082019050919050565b600062000d6a601f8362000f21565b915062000d778262001282565b602082019050919050565b62000d8d8162001008565b82525050565b600060a08201905062000daa600083018862000cd5565b62000db9602083018762000cd5565b62000dc8604083018662000cd5565b62000dd7606083018562000d82565b62000de6608083018462000cc4565b9695505050505050565b6000602082019050818103600083015262000e0b8162000ce6565b9050919050565b6000602082019050818103600083015262000e2d8162000d0d565b9050919050565b6000602082019050818103600083015262000e4f8162000d34565b9050919050565b6000602082019050818103600083015262000e718162000d5b565b9050919050565b600060208201905062000e8f600083018462000d82565b92915050565b600060408201905062000eac600083018562000d82565b62000ebb602083018462000d82565b9392505050565b600062000ece62000ee1565b905062000edc82826200107e565b919050565b6000604051905090565b600067ffffffffffffffff82111562000f095762000f0862001141565b5b62000f148262001184565b9050602081019050919050565b600082825260208201905092915050565b600062000f3f8262001008565b915062000f4c8362001008565b9250827fffffffffffffffffffffffffffffffffffffffffffffffffffffffffffffffff0382111562000f845762000f83620010b4565b5b828201905092915050565b600062000f9c8262001008565b915062000fa98362001008565b92508282101562000fbf5762000fbe620010b4565b5b828203905092915050565b600062000fd78262000fe8565b9050919050565b6000819050919050565b600073ffffffffffffffffffffffffffffffffffffffff82169050919050565b6000819050919050565b60005b838110156200103257808201518184015260208101905062001015565b8381111562001042576000848401525b50505050565b600060028204905060018216806200106157607f821691505b60208210811415620010785762001077620010e3565b5b50919050565b620010898262001184565b810181811067ffffffffffffffff82111715620010ab57620010aa62001141565b5b80604052505050565b7f4e487b7100000000000000000000000000000000000000000000000000000000600052601160045260246000fd5b7f4e487b7100000000000000000000000000000000000000000000000000000000600052602260045260246000fd5b7f4e487b7100000000000000000000000000000000000000000000000000000000600052603260045260246000fd5b7f4e487b7100000000000000000000000000000000000000000000000000000000600052604160045260246000fd5b600080fd5b600080fd5b600080fd5b600080fd5b6000601f19601f8301169050919050565b7f4552433230566f7465733a20746f74616c20737570706c79207269736b73206f60008201527f766572666c6f77696e6720766f74657300000000000000000000000000000000602082015250565b7f53616665436173743a2076616c756520646f65736e27742066697420696e203260008201527f3234206269747300000000000000000000000000000000000000000000000000602082015250565b7f53616665436173743a2076616c756520646f65736e27742066697420696e203360008201527f3220626974730000000000000000000000000000000000000000000000000000602082015250565b7f45524332303a206d696e7420746f20746865207a65726f206164647265737300600082015250565b60805160a05160c05160601c60e051610100516101205161014051613844620013096000396000610cf80152600061182501526000611867015260006118460152600061177b015260006117d1015260006117fa01526138446000f3fe608060405234801561001057600080fd5b506004361061014d5760003560e01c806370a08231116100c3578063a9059cbb1161007c578063a9059cbb14610414578063c3cda52014610444578063d505accf14610460578063d5abeb011461047c578063dd62ed3e1461049a578063f1127ed8146104ca5761014d565b806370a08231146103065780637ecebe00146103365780638e539e8c1461036657806395d89b41146103965780639ab24eb0146103b4578063a457c2d7146103e45761014d565b80633644e515116101155780633644e5151461020c578063395093511461022a5780633a46b1a81461025a578063587cde1e1461028a5780635c19a95c146102ba5780636fcfff45146102d65761014d565b806306fdde0314610152578063095ea7b31461017057806318160ddd146101a057806323b872dd146101be578063313ce567146101ee575b600080fd5b61015a6104fa565b6040516101679190612c7c565b60405180910390f35b61018a600480360381019061018591906125a6565b61058c565b6040516101979190612b08565b60405180910390f35b6101a86105af565b6040516101b59190612f39565b60405180910390f35b6101d860048036038101906101d391906124b1565b6105b9565b6040516101e59190612b08565b60405180910390f35b6101f66105e8565b6040516102039190612f98565b60405180910390f35b6102146105f1565b6040516102219190612b23565b60405180910390f35b610244600480360381019061023f91906125a6565b610600565b6040516102519190612b08565b60405180910390f35b610274600480360381019061026f91906125a6565b6106aa565b6040516102819190612f39565b60405180910390f35b6102a4600480360381019061029f9190612444565b61073e565b6040516102b19190612aed565b60405180910390f35b6102d460048036038101906102cf9190612444565b6107a7565b005b6102f060048036038101906102eb9190612444565b6107bb565b6040516102fd9190612f7d565b60405180910390f35b610320600480360381019061031b9190612444565b61080f565b60405161032d9190612f39565b60405180910390f35b610350600480360381019061034b9190612444565b610857565b60405161035d9190612f39565b60405180910390f35b610380600480360381019061037b91906126b3565b6108a7565b60405161038d9190612f39565b60405180910390f35b61039e6108fd565b6040516103ab9190612c7c565b60405180910390f35b6103ce60048036038101906103c99190612444565b61098f565b6040516103db9190612f39565b60405180910390f35b6103fe60048036038101906103f991906125a6565b610aa0565b60405161040b9190612b08565b60405180910390f35b61042e600480360381019061042991906125a6565b610b8a565b60405161043b9190612b08565b60405180910390f35b61045e600480360381019061045991906125e6565b610bad565b005b61047a60048036038101906104759190612504565b610cb1565b005b610484610df3565b6040516104919190612f39565b60405180910390f35b6104b460048036038101906104af9190612471565b610df9565b6040516104c19190612f39565b60405180910390f35b6104e460048036038101906104df9190612673565b610e80565b6040516104f19190612f1e565b60405180910390f35b6060600380546105099061315f565b80601f01602080910402602001604051908101604052809291908181526020018280546105359061315f565b80156105825780601f1061055757610100808354040283529160200191610582565b820191906000526020600020905b81548152906001019060200180831161056557829003601f168201915b5050505050905090565b600080610597611297565b90506105a481858561129f565b600191505092915050565b6000600254905090565b6000806105c4611297565b90506105d185828561146a565b6105dc8585856114f6565b60019150509392505050565b60006012905090565b60006105fb611777565b905090565b60008061060b611297565b905061069f818585600160008673ffffffffffffffffffffffffffffffffffffffff1673ffffffffffffffffffffffffffffffffffffffff16815260200190815260200160002060008973ffffffffffffffffffffffffffffffffffffffff1673ffffffffffffffffffffffffffffffffffffffff1681526020019081526020016000205461069a9190612fda565b61129f565b600191505092915050565b60004382106106ee576040517f08c379a00000000000000000000000000000000000000000000000000000000081526004016106e590612cde565b60405180910390fd5b610736600760008573ffffffffffffffffffffffffffffffffffffffff1673ffffffffffffffffffffffffffffffffffffffff16815260200190815260200160002083611891565b905092915050565b6000600660008373ffffffffffffffffffffffffffffffffffffffff1673ffffffffffffffffffffffffffffffffffffffff16815260200190815260200160002060009054906101000a900473ffffffffffffffffffffffffffffffffffffffff169050919050565b6107b86107b2611297565b8261199d565b50565b6000610808600760008473ffffffffffffffffffffffffffffffffffffffff1673ffffffffffffffffffffffffffffffffffffffff168152602001908152602001600020805490506111fe565b9050919050565b60008060008373ffffffffffffffffffffffffffffffffffffffff1673ffffffffffffffffffffffffffffffffffffffff168152602001908152602001600020549050919050565b60006108a0600560008473ffffffffffffffffffffffffffffffffffffffff1673ffffffffffffffffffffffffffffffffffffffff168152602001908152602001600020611ab7565b9050919050565b60004382106108eb576040517f08c379a00000000000000000000000000000000000000000000000000000000081526004016108e290612cde565b60405180910390fd5b6108f6600883611891565b9050919050565b60606004805461090c9061315f565b80601f01602080910402602001604051908101604052809291908181526020018280546109389061315f565b80156109855780601f1061095a57610100808354040283529160200191610985565b820191906000526020600020905b81548152906001019060200180831161096857829003601f168201915b5050505050905090565b600080600760008473ffffffffffffffffffffffffffffffffffffffff1673ffffffffffffffffffffffffffffffffffffffff16815260200190815260200160002080549050905060008114610a7757600760008473ffffffffffffffffffffffffffffffffffffffff1673ffffffffffffffffffffffffffffffffffffffff168152602001908152602001600020600182610a2b9190613061565b81548110610a3c57610a3b613257565b5b9060005260206000200160000160049054906101000a90047bffffffffffffffffffffffffffffffffffffffffffffffffffffffff16610a7a565b60005b7bffffffffffffffffffffffffffffffffffffffffffffffffffffffff16915050919050565b600080610aab611297565b90506000600160008373ffffffffffffffffffffffffffffffffffffffff1673ffffffffffffffffffffffffffffffffffffffff16815260200190815260200160002060008673ffffffffffffffffffffffffffffffffffffffff1673ffffffffffffffffffffffffffffffffffffffff16815260200190815260200160002054905083811015610b71576040517f08c379a0000000000000000000000000000000000000000000000000000000008152600401610b6890612ede565b60405180910390fd5b610b7e828686840361129f565b60019250505092915050565b600080610b95611297565b9050610ba28185856114f6565b600191505092915050565b83421115610bf0576040517f08c379a0000000000000000000000000000000000000000000000000000000008152600401610be790612cfe565b60405180910390fd5b6000610c52610c4a7fe48329057bfd03d55e49b547132e39cffd9c1820ad7b9d4c5307691425d15adf898989604051602001610c2f9493929190612b9f565b60405160208183030381529060405280519060200120611ac5565b858585611adf565b9050610c5d81611b0a565b8614610c9e576040517f08c379a0000000000000000000000000000000000000000000000000000000008152600401610c9590612d3e565b60405180910390fd5b610ca8818861199d565b50505050505050565b83421115610cf4576040517f08c379a0000000000000000000000000000000000000000000000000000000008152600401610ceb90612d9e565b60405180910390fd5b60007f0000000000000000000000000000000000000000000000000000000000000000888888610d238c611b0a565b89604051602001610d3996959493929190612b3e565b6040516020818303038152906040528051906020012090506000610d5c82611ac5565b90506000610d6c82878787611adf565b90508973ffffffffffffffffffffffffffffffffffffffff168173ffffffffffffffffffffffffffffffffffffffff1614610ddc576040517f08c379a0000000000000000000000000000000000000000000000000000000008152600401610dd390612e1e565b60405180910390fd5b610de78a8a8a61129f565b50505050505050505050565b60095481565b6000600160008473ffffffffffffffffffffffffffffffffffffffff1673ffffffffffffffffffffffffffffffffffffffff16815260200190815260200160002060008373ffffffffffffffffffffffffffffffffffffffff1673ffffffffffffffffffffffffffffffffffffffff16815260200190815260200160002054905092915050565b610e8861239d565b600760008473ffffffffffffffffffffffffffffffffffffffff1673ffffffffffffffffffffffffffffffffffffffff1681526020019081526020016000208263ffffffff1681548110610edf57610ede613257565b5b906000526020600020016040518060400160405290816000820160009054906101000a900463ffffffff1663ffffffff1663ffffffff1681526020016000820160049054906101000a90047bffffffffffffffffffffffffffffffffffffffffffffffffffffffff167bffffffffffffffffffffffffffffffffffffffffffffffffffffffff167bffffffffffffffffffffffffffffffffffffffffffffffffffffffff1681525050905092915050565b610f9a828261101d565b610fa2611b68565b7bffffffffffffffffffffffffffffffffffffffffffffffffffffffff16610fc86105af565b1115611009576040517f08c379a000000000000000000000000000000000000000000000000000000000815260040161100090612e3e565b60405180910390fd5b611017600861117d83611b8c565b50505050565b600073ffffffffffffffffffffffffffffffffffffffff168273ffffffffffffffffffffffffffffffffffffffff16141561108d576040517f08c379a000000000000000000000000000000000000000000000000000000000815260040161108490612efe565b60405180910390fd5b61109960008383611e04565b80600260008282546110ab9190612fda565b92505081905550806000808473ffffffffffffffffffffffffffffffffffffffff1673ffffffffffffffffffffffffffffffffffffffff16815260200190815260200160002060008282546111009190612fda565b925050819055508173ffffffffffffffffffffffffffffffffffffffff16600073ffffffffffffffffffffffffffffffffffffffff167fddf252ad1be2c89b69c2b068fc378daa952ba7f163c4a11628f55a4df523b3ef836040516111659190612f39565b60405180910390a361117960008383611e09565b5050565b6000818361118b9190612fda565b905092915050565b60007bffffffffffffffffffffffffffffffffffffffffffffffffffffffff80168211156111f6576040517f08c379a00000000000000000000000000000000000000000000000000000000081526004016111ed90612e5e565b60405180910390fd5b819050919050565b600063ffffffff8016821115611249576040517f08c379a000000000000000000000000000000000000000000000000000000000815260040161124090612e9e565b60405180910390fd5b819050919050565b61125c83838361127c565b6112776112688461073e565b6112718461073e565b83611e19565b505050565b505050565b6000818361128f9190613061565b905092915050565b600033905090565b600073ffffffffffffffffffffffffffffffffffffffff168373ffffffffffffffffffffffffffffffffffffffff16141561130f576040517f08c379a000000000000000000000000000000000000000000000000000000000815260040161130690612ebe565b60405180910390fd5b600073ffffffffffffffffffffffffffffffffffffffff168273ffffffffffffffffffffffffffffffffffffffff16141561137f576040517f08c379a000000000000000000000000000000000000000000000000000000000815260040161137690612d5e565b60405180910390fd5b80600160008573ffffffffffffffffffffffffffffffffffffffff1673ffffffffffffffffffffffffffffffffffffffff16815260200190815260200160002060008473ffffffffffffffffffffffffffffffffffffffff1673ffffffffffffffffffffffffffffffffffffffff168152602001908152602001600020819055508173ffffffffffffffffffffffffffffffffffffffff168373ffffffffffffffffffffffffffffffffffffffff167f8c5be1e5ebec7d5bd14f71427d1e84f3dd0314c0f7b2291e5b200ac8c7c3b9258360405161145d9190612f39565b60405180910390a3505050565b60006114768484610df9565b90507fffffffffffffffffffffffffffffffffffffffffffffffffffffffffffffffff81146114f057818110156114e2576040517f08c379a00000000000000000000000000000000000000000000000000000000081526004016114d990612d7e565b60405180910390fd5b6114ef848484840361129f565b5b50505050565b600073ffffffffffffffffffffffffffffffffffffffff168373ffffffffffffffffffffffffffffffffffffffff161415611566576040517f08c379a000000000000000000000000000000000000000000000000000000000815260040161155d90612e7e565b60405180910390fd5b600073ffffffffffffffffffffffffffffffffffffffff168273ffffffffffffffffffffffffffffffffffffffff1614156115d6576040517f08c379a00000000000000000000000000000000000000000000000000000000081526004016115cd90612cbe565b60405180910390fd5b6115e1838383611e04565b60008060008573ffffffffffffffffffffffffffffffffffffffff1673ffffffffffffffffffffffffffffffffffffffff16815260200190815260200160002054905081811015611667576040517f08c379a000000000000000000000000000000000000000000000000000000000815260040161165e90612dbe565b60405180910390fd5b8181036000808673ffffffffffffffffffffffffffffffffffffffff1673ffffffffffffffffffffffffffffffffffffffff16815260200190815260200160002081905550816000808573ffffffffffffffffffffffffffffffffffffffff1673ffffffffffffffffffffffffffffffffffffffff16815260200190815260200160002060008282546116fa9190612fda565b925050819055508273ffffffffffffffffffffffffffffffffffffffff168473ffffffffffffffffffffffffffffffffffffffff167fddf252ad1be2c89b69c2b068fc378daa952ba7f163c4a11628f55a4df523b3ef8460405161175e9190612f39565b60405180910390a3611771848484611e09565b50505050565b60007f000000000000000000000000000000000000000000000000000000000000000073ffffffffffffffffffffffffffffffffffffffff163073ffffffffffffffffffffffffffffffffffffffff161480156117f357507f000000000000000000000000000000000000000000000000000000000000000046145b15611820577f0000000000000000000000000000000000000000000000000000000000000000905061188e565b61188b7f00000000000000000000000000000000000000000000000000000000000000007f00000000000000000000000000000000000000000000000000000000000000007f0000000000000000000000000000000000000000000000000000000000000000612012565b90505b90565b6000808380549050905060005b818110156119105760006118b2828461204c565b9050848682815481106118c8576118c7613257565b5b9060005260206000200160000160009054906101000a900463ffffffff1663ffffffff1611156118fa5780925061190a565b6001816119079190612fda565b91505b5061189e565b6000821461197257846001836119269190613061565b8154811061193757611936613257565b5b9060005260206000200160000160049054906101000a90047bffffffffffffffffffffffffffffffffffffffffffffffffffffffff16611975565b60005b7bffffffffffffffffffffffffffffffffffffffffffffffffffffffff169250505092915050565b60006119a88361073e565b905060006119b58461080f565b905082600660008673ffffffffffffffffffffffffffffffffffffffff1673ffffffffffffffffffffffffffffffffffffffff16815260200190815260200160002060006101000a81548173ffffffffffffffffffffffffffffffffffffffff021916908373ffffffffffffffffffffffffffffffffffffffff1602179055508273ffffffffffffffffffffffffffffffffffffffff168273ffffffffffffffffffffffffffffffffffffffff168573ffffffffffffffffffffffffffffffffffffffff167f3134e8a2e6d97e929a7e54011ea5485d7d196dd5f0ba4d4ef95803e8e3fc257f60405160405180910390a4611ab1828483611e19565b50505050565b600081600001549050919050565b6000611ad8611ad2611777565b83612072565b9050919050565b6000806000611af0878787876120a5565b91509150611afd816121b2565b8192505050949350505050565b600080600560008473ffffffffffffffffffffffffffffffffffffffff1673ffffffffffffffffffffffffffffffffffffffff1681526020019081526020016000209050611b5781611ab7565b9150611b6281612387565b50919050565b60007bffffffffffffffffffffffffffffffffffffffffffffffffffffffff905090565b60008060008580549050905060008114611bfa5785600182611bae9190613061565b81548110611bbf57611bbe613257565b5b9060005260206000200160000160049054906101000a90047bffffffffffffffffffffffffffffffffffffffffffffffffffffffff16611bfd565b60005b7bffffffffffffffffffffffffffffffffffffffffffffffffffffffff169250611c2b83858763ffffffff16565b9150600081118015611c7e57504386600183611c479190613061565b81548110611c5857611c57613257565b5b9060005260206000200160000160009054906101000a900463ffffffff1663ffffffff16145b15611d0b57611c8c82611193565b86600183611c9a9190613061565b81548110611cab57611caa613257565b5b9060005260206000200160000160046101000a8154817bffffffffffffffffffffffffffffffffffffffffffffffffffffffff02191690837bffffffffffffffffffffffffffffffffffffffffffffffffffffffff160217905550611dfb565b856040518060400160405280611d20436111fe565b63ffffffff168152602001611d3485611193565b7bffffffffffffffffffffffffffffffffffffffffffffffffffffffff168152509080600181540180825580915050600190039060005260206000200160009091909190915060008201518160000160006101000a81548163ffffffff021916908363ffffffff16021790555060208201518160000160046101000a8154817bffffffffffffffffffffffffffffffffffffffffffffffffffffffff02191690837bffffffffffffffffffffffffffffffffffffffffffffffffffffffff16021790555050505b50935093915050565b505050565b611e14838383611251565b505050565b8173ffffffffffffffffffffffffffffffffffffffff168373ffffffffffffffffffffffffffffffffffffffff1614158015611e555750600081115b1561200d57600073ffffffffffffffffffffffffffffffffffffffff168373ffffffffffffffffffffffffffffffffffffffff1614611f3357600080611edc600760008773ffffffffffffffffffffffffffffffffffffffff1673ffffffffffffffffffffffffffffffffffffffff16815260200190815260200160002061128185611b8c565b915091508473ffffffffffffffffffffffffffffffffffffffff167fdec2bacdd2f05b59de34da9b523dff8be42e5e38e818c82fdb0bae774387a7248383604051611f28929190612f54565b60405180910390a250505b600073ffffffffffffffffffffffffffffffffffffffff168273ffffffffffffffffffffffffffffffffffffffff161461200c57600080611fb5600760008673ffffffffffffffffffffffffffffffffffffffff1673ffffffffffffffffffffffffffffffffffffffff16815260200190815260200160002061117d85611b8c565b915091508373ffffffffffffffffffffffffffffffffffffffff167fdec2bacdd2f05b59de34da9b523dff8be42e5e38e818c82fdb0bae774387a7248383604051612001929190612f54565b60405180910390a250505b5b505050565b6000838383463060405160200161202d959493929190612be4565b6040516020818303038152906040528051906020012090509392505050565b6000600282841861205d9190613030565b82841661206a9190612fda565b905092915050565b60008282604051602001612087929190612ab6565b60405160208183030381529060405280519060200120905092915050565b6000807f7fffffffffffffffffffffffffffffff5d576e7357a4501ddfe92f46681b20a08360001c11156120e05760006003915091506121a9565b601b8560ff16141580156120f85750601c8560ff1614155b1561210a5760006004915091506121a9565b60006001878787876040516000815260200160405260405161212f9493929190612c37565b6020604051602081039080840390855afa158015612151573d6000803e3d6000fd5b505050602060405103519050600073ffffffffffffffffffffffffffffffffffffffff168173ffffffffffffffffffffffffffffffffffffffff1614156121a0576000600192509250506121a9565b80600092509250505b94509492505050565b600060048111156121c6576121c56131f9565b5b8160048111156121d9576121d86131f9565b5b14156121e457612384565b600160048111156121f8576121f76131f9565b5b81600481111561220b5761220a6131f9565b5b141561224c576040517f08c379a000000000000000000000000000000000000000000000000000000000815260040161224390612c9e565b60405180910390fd5b600260048111156122605761225f6131f9565b5b816004811115612273576122726131f9565b5b14156122b4576040517f08c379a00000000000000000000000000000000000000000000000000000000081526004016122ab90612d1e565b60405180910390fd5b600360048111156122c8576122c76131f9565b5b8160048111156122db576122da6131f9565b5b141561231c576040517f08c379a000000000000000000000000000000000000000000000000000000000815260040161231390612dde565b60405180910390fd5b60048081111561232f5761232e6131f9565b5b816004811115612342576123416131f9565b5b1415612383576040517f08c379a000000000000000000000000000000000000000000000000000000000815260040161237a90612dfe565b60405180910390fd5b5b50565b6001816000016000828254019250508190555050565b6040518060400160405280600063ffffffff16815260200160007bffffffffffffffffffffffffffffffffffffffffffffffffffffffff1681525090565b6000813590506123ea8161379b565b92915050565b6000813590506123ff816137b2565b92915050565b600081359050612414816137c9565b92915050565b600081359050612429816137e0565b92915050565b60008135905061243e816137f7565b92915050565b60006020828403121561245a57612459613286565b5b6000612468848285016123db565b91505092915050565b6000806040838503121561248857612487613286565b5b6000612496858286016123db565b92505060206124a7858286016123db565b9150509250929050565b6000806000606084860312156124ca576124c9613286565b5b60006124d8868287016123db565b93505060206124e9868287016123db565b92505060406124fa86828701612405565b9150509250925092565b600080600080600080600060e0888a03121561252357612522613286565b5b60006125318a828b016123db565b97505060206125428a828b016123db565b96505060406125538a828b01612405565b95505060606125648a828b01612405565b94505060806125758a828b0161242f565b93505060a06125868a828b016123f0565b92505060c06125978a828b016123f0565b91505092959891949750929550565b600080604083850312156125bd576125bc613286565b5b60006125cb858286016123db565b92505060206125dc85828601612405565b9150509250929050565b60008060008060008060c0878903121561260357612602613286565b5b600061261189828a016123db565b965050602061262289828a01612405565b955050604061263389828a01612405565b945050606061264489828a0161242f565b935050608061265589828a016123f0565b92505060a061266689828a016123f0565b9150509295509295509295565b6000806040838503121561268a57612689613286565b5b6000612698858286016123db565b92505060206126a98582860161241a565b9150509250929050565b6000602082840312156126c9576126c8613286565b5b60006126d784828501612405565b91505092915050565b6126e981613095565b82525050565b6126f8816130a7565b82525050565b612707816130b3565b82525050565b61271e612719826130b3565b613191565b82525050565b600061272f82612fb3565b6127398185612fbe565b935061274981856020860161312c565b6127528161328b565b840191505092915050565b600061276a601883612fbe565b91506127758261329c565b602082019050919050565b600061278d602383612fbe565b9150612798826132c5565b604082019050919050565b60006127b0601f83612fbe565b91506127bb82613314565b602082019050919050565b60006127d3601d83612fbe565b91506127de8261333d565b602082019050919050565b60006127f6601f83612fbe565b915061280182613366565b602082019050919050565b6000612819601983612fbe565b91506128248261338f565b602082019050919050565b600061283c602283612fbe565b9150612847826133b8565b604082019050919050565b600061285f600283612fcf565b915061286a82613407565b600282019050919050565b6000612882601d83612fbe565b915061288d82613430565b602082019050919050565b60006128a5601d83612fbe565b91506128b082613459565b602082019050919050565b60006128c8602683612fbe565b91506128d382613482565b604082019050919050565b60006128eb602283612fbe565b91506128f6826134d1565b604082019050919050565b600061290e602283612fbe565b915061291982613520565b604082019050919050565b6000612931601e83612fbe565b915061293c8261356f565b602082019050919050565b6000612954603083612fbe565b915061295f82613598565b604082019050919050565b6000612977602783612fbe565b9150612982826135e7565b604082019050919050565b600061299a602583612fbe565b91506129a582613636565b604082019050919050565b60006129bd602683612fbe565b91506129c882613685565b604082019050919050565b60006129e0602483612fbe565b91506129eb826136d4565b604082019050919050565b6000612a03602583612fbe565b9150612a0e82613723565b604082019050919050565b6000612a26601f83612fbe565b9150612a3182613772565b602082019050919050565b604082016000820151612a526000850182612a89565b506020820151612a656020850182612a6b565b50505050565b612a74816130dd565b82525050565b612a8381613105565b82525050565b612a928161310f565b82525050565b612aa18161310f565b82525050565b612ab08161311f565b82525050565b6000612ac182612852565b9150612acd828561270d565b602082019150612add828461270d565b6020820191508190509392505050565b6000602082019050612b0260008301846126e0565b92915050565b6000602082019050612b1d60008301846126ef565b92915050565b6000602082019050612b3860008301846126fe565b92915050565b600060c082019050612b5360008301896126fe565b612b6060208301886126e0565b612b6d60408301876126e0565b612b7a6060830186612a7a565b612b876080830185612a7a565b612b9460a0830184612a7a565b979650505050505050565b6000608082019050612bb460008301876126fe565b612bc160208301866126e0565b612bce6040830185612a7a565b612bdb6060830184612a7a565b95945050505050565b600060a082019050612bf960008301886126fe565b612c0660208301876126fe565b612c1360408301866126fe565b612c206060830185612a7a565b612c2d60808301846126e0565b9695505050505050565b6000608082019050612c4c60008301876126fe565b612c596020830186612aa7565b612c6660408301856126fe565b612c7360608301846126fe565b95945050505050565b60006020820190508181036000830152612c968184612724565b905092915050565b60006020820190508181036000830152612cb78161275d565b9050919050565b60006020820190508181036000830152612cd781612780565b9050919050565b60006020820190508181036000830152612cf7816127a3565b9050919050565b60006020820190508181036000830152612d17816127c6565b9050919050565b60006020820190508181036000830152612d37816127e9565b9050919050565b60006020820190508181036000830152612d578161280c565b9050919050565b60006020820190508181036000830152612d778161282f565b9050919050565b60006020820190508181036000830152612d9781612875565b9050919050565b60006020820190508181036000830152612db781612898565b9050919050565b60006020820190508181036000830152612dd7816128bb565b9050919050565b60006020820190508181036000830152612df7816128de565b9050919050565b60006020820190508181036000830152612e1781612901565b9050919050565b60006020820190508181036000830152612e3781612924565b9050919050565b60006020820190508181036000830152612e5781612947565b9050919050565b60006020820190508181036000830152612e778161296a565b9050919050565b60006020820190508181036000830152612e978161298d565b9050919050565b60006020820190508181036000830152612eb7816129b0565b9050919050565b60006020820190508181036000830152612ed7816129d3565b9050919050565b60006020820190508181036000830152612ef7816129f6565b9050919050565b60006020820190508181036000830152612f1781612a19565b9050919050565b6000604082019050612f336000830184612a3c565b92915050565b6000602082019050612f4e6000830184612a7a565b92915050565b6000604082019050612f696000830185612a7a565b612f766020830184612a7a565b9392505050565b6000602082019050612f926000830184612a98565b92915050565b6000602082019050612fad6000830184612aa7565b92915050565b600081519050919050565b600082825260208201905092915050565b600081905092915050565b6000612fe582613105565b9150612ff083613105565b9250827fffffffffffffffffffffffffffffffffffffffffffffffffffffffffffffffff038211156130255761302461319b565b5b828201905092915050565b600061303b82613105565b915061304683613105565b925082613056576130556131ca565b5b828204905092915050565b600061306c82613105565b915061307783613105565b92508282101561308a5761308961319b565b5b828203905092915050565b60006130a0826130bd565b9050919050565b60008115159050919050565b6000819050919050565b600073ffffffffffffffffffffffffffffffffffffffff82169050919050565b60007bffffffffffffffffffffffffffffffffffffffffffffffffffffffff82169050919050565b6000819050919050565b600063ffffffff82169050919050565b600060ff82169050919050565b60005b8381101561314a57808201518184015260208101905061312f565b83811115613159576000848401525b50505050565b6000600282049050600182168061317757607f821691505b6020821081141561318b5761318a613228565b5b50919050565b6000819050919050565b7f4e487b7100000000000000000000000000000000000000000000000000000000600052601160045260246000fd5b7f4e487b7100000000000000000000000000000000000000000000000000000000600052601260045260246000fd5b7f4e487b7100000000000000000000000000000000000000000000000000000000600052602160045260246000fd5b7f4e487b7100000000000000000000000000000000000000000000000000000000600052602260045260246000fd5b7f4e487b7100000000000000000000000000000000000000000000000000000000600052603260045260246000fd5b600080fd5b6000601f19601f8301169050919050565b7f45434453413a20696e76616c6964207369676e61747572650000000000000000600082015250565b7f45524332303a207472616e7366657220746f20746865207a65726f206164647260008201527f6573730000000000000000000000000000000000000000000000000000000000602082015250565b7f4552433230566f7465733a20626c6f636b206e6f7420796574206d696e656400600082015250565b7f4552433230566f7465733a207369676e61747572652065787069726564000000600082015250565b7f45434453413a20696e76616c6964207369676e6174757265206c656e67746800600082015250565b7f4552433230566f7465733a20696e76616c6964206e6f6e636500000000000000600082015250565b7f45524332303a20617070726f766520746f20746865207a65726f20616464726560008201527f7373000000000000000000000000000000000000000000000000000000000000602082015250565b7f1901000000000000000000000000000000000000000000000000000000000000600082015250565b7f45524332303a20696e73756666696369656e7420616c6c6f77616e6365000000600082015250565b7f45524332305065726d69743a206578706972656420646561646c696e65000000600082015250565b7f45524332303a207472616e7366657220616d6f756e742065786365656473206260008201527f616c616e63650000000000000000000000000000000000000000000000000000602082015250565b7f45434453413a20696e76616c6964207369676e6174757265202773272076616c60008201527f7565000000000000000000000000000000000000000000000000000000000000602082015250565b7f45434453413a20696e76616c6964207369676e6174757265202776272076616c60008201527f7565000000000000000000000000000000000000000000000000000000000000602082015250565b7f45524332305065726d69743a20696e76616c6964207369676e61747572650000600082015250565b7f4552433230566f7465733a20746f74616c20737570706c79207269736b73206f60008201527f766572666c6f77696e6720766f74657300000000000000000000000000000000602082015250565b7f53616665436173743a2076616c756520646f65736e27742066697420696e203260008201527f3234206269747300000000000000000000000000000000000000000000000000602082015250565b7f45524332303a207472616e736665722066726f6d20746865207a65726f20616460008201527f6472657373000000000000000000000000000000000000000000000000000000602082015250565b7f53616665436173743a2076616c756520646f65736e27742066697420696e203360008201527f3220626974730000000000000000000000000000000000000000000000000000602082015250565b7f45524332303a20617070726f76652066726f6d20746865207a65726f2061646460008201527f7265737300000000000000000000000000000000000000000000000000000000602082015250565b7f45524332303a2064656372656173656420616c6c6f77616e63652062656c6f7760008201527f207a65726f000000000000000000000000000000000000000000000000000000602082015250565b7f45524332303a206d696e7420746f20746865207a65726f206164647265737300600082015250565b6137a481613095565b81146137af57600080fd5b50565b6137bb816130b3565b81146137c657600080fd5b50565b6137d281613105565b81146137dd57600080fd5b50565b6137e98161310f565b81146137f457600080fd5b50565b6138008161311f565b811461380b57600080fd5b5056fea2646970667358221220836671ad4bf62dbd7b04c524277854424ef9278d2abd69471ad097576f07316a64736f6c63430008070033",
  "linkReferences": {},
  "deployedLinkReferences": {}
}