{
  "_format": "hh-sol-artifact-1",
  "contractName": "DaoToken",
  "sourceName": "contracts/GovernanceToken.sol",
  "abi": [
    {
      "inputs": [
        {
          "internalType": "string",
          "name": "name",
          "type": "string"
        },
        {
          "internalType": "string",
          "name": "symbol",
          "type": "string"
        },
        {
          "internalType": "uint256",
          "name": "initialSupply",
          "type": "uint256"
        }
      ],
      "stateMutability": "nonpayable",
      "type": "constructor"
    },
    {
      "anonymous": false,
      "inputs": [
        {
          "indexed": true,
          "internalType": "address",
          "name": "owner",
          "type": "address"
        },
        {
          "indexed": true,
          "internalType": "address",
          "name": "spender",
          "type": "address"
        },
        {
          "indexed": false,
          "internalType": "uint256",
          "name": "value",
          "type": "uint256"
        }
      ],
      "name": "Approval",
      "type": "event"
    },
    {
      "anonymous": false,
      "inputs": [
        {
          "indexed": true,
          "internalType": "address",
          "name": "delegator",
          "type": "address"
        },
        {
          "indexed": true,
          "internalType": "address",
          "name": "fromDelegate",
          "type": "address"
        },
        {
          "indexed": true,
          "internalType": "address",
          "name": "toDelegate",
          "type": "address"
        }
      ],
      "name": "DelegateChanged",
      "type": "event"
    },
    {
      "anonymous": false,
      "inputs": [
        {
          "indexed": true,
          "internalType": "address",
          "name": "delegate",
          "type": "address"
        },
        {
          "indexed": false,
          "internalType": "uint256",
          "name": "previousBalance",
          "type": "uint256"
        },
        {
          "indexed": false,
          "internalType": "uint256",
          "name": "newBalance",
          "type": "uint256"
        }
      ],
      "name": "DelegateVotesChanged",
      "type": "event"
    },
    {
      "anonymous": false,
      "inputs": [
        {
          "indexed": true,
          "internalType": "address",
          "name": "previousOwner",
          "type": "address"
        },
        {
          "indexed": true,
          "internalType": "address",
          "name": "newOwner",
          "type": "address"
        }
      ],
      "name": "OwnershipTransferred",
      "type": "event"
    },
    {
      "anonymous": false,
      "inputs": [
        {
          "indexed": true,
          "internalType": "address",
          "name": "from",
          "type": "address"
        },
        {
          "indexed": true,
          "internalType": "address",
          "name": "to",
          "type": "address"
        },
        {
          "indexed": false,
          "internalType": "uint256",
          "name": "value",
          "type": "uint256"
        }
      ],
      "name": "Transfer",
      "type": "event"
    },
    {
      "inputs": [],
      "name": "DOMAIN_SEPARATOR",
      "outputs": [
        {
          "internalType": "bytes32",
          "name": "",
          "type": "bytes32"
        }
      ],
      "stateMutability": "view",
      "type": "function"
    },
    {
      "inputs": [
        {
          "internalType": "address",
          "name": "owner",
          "type": "address"
        },
        {
          "internalType": "address",
          "name": "spender",
          "type": "address"
        }
      ],
      "name": "allowance",
      "outputs": [
        {
          "internalType": "uint256",
          "name": "",
          "type": "uint256"
        }
      ],
      "stateMutability": "view",
      "type": "function"
    },
    {
      "inputs": [
        {
          "internalType": "address",
          "name": "spender",
          "type": "address"
        },
        {
          "internalType": "uint256",
          "name": "amount",
          "type": "uint256"
        }
      ],
      "name": "approve",
      "outputs": [
        {
          "internalType": "bool",
          "name": "",
          "type": "bool"
        }
      ],
      "stateMutability": "nonpayable",
      "type": "function"
    },
    {
      "inputs": [
        {
          "internalType": "address",
          "name": "account",
          "type": "address"
        }
      ],
      "name": "balanceOf",
      "outputs": [
        {
          "internalType": "uint256",
          "name": "",
          "type": "uint256"
        }
      ],
      "stateMutability": "view",
      "type": "function"
    },
    {
      "inputs": [
        {
          "internalType": "address",
          "name": "account",
          "type": "address"
        },
        {
          "internalType": "uint32",
          "name": "pos",
          "type": "uint32"
        }
      ],
      "name": "checkpoints",
      "outputs": [
        {
          "components": [
            {
              "internalType": "uint32",
              "name": "fromBlock",
              "type": "uint32"
            },
            {
              "internalType": "uint224",
              "name": "votes",
              "type": "uint224"
            }
          ],
          "internalType": "struct ERC20Votes.Checkpoint",
          "name": "",
          "type": "tuple"
        }
      ],
      "stateMutability": "view",
      "type": "function"
    },
    {
      "inputs": [],
      "name": "decimals",
      "outputs": [
        {
          "internalType": "uint8",
          "name": "",
          "type": "uint8"
        }
      ],
      "stateMutability": "view",
      "type": "function"
    },
    {
      "inputs": [
        {
          "internalType": "address",
          "name": "spender",
          "type": "address"
        },
        {
          "internalType": "uint256",
          "name": "subtractedValue",
          "type": "uint256"
        }
      ],
      "name": "decreaseAllowance",
      "outputs": [
        {
          "internalType": "bool",
          "name": "",
          "type": "bool"
        }
      ],
      "stateMutability": "nonpayable",
      "type": "function"
    },
    {
      "inputs": [
        {
          "internalType": "address",
          "name": "delegatee",
          "type": "address"
        }
      ],
      "name": "delegate",
      "outputs": [],
      "stateMutability": "nonpayable",
      "type": "function"
    },
    {
      "inputs": [
        {
          "internalType": "address",
          "name": "delegatee",
          "type": "address"
        },
        {
          "internalType": "uint256",
          "name": "nonce",
          "type": "uint256"
        },
        {
          "internalType": "uint256",
          "name": "expiry",
          "type": "uint256"
        },
        {
          "internalType": "uint8",
          "name": "v",
          "type": "uint8"
        },
        {
          "internalType": "bytes32",
          "name": "r",
          "type": "bytes32"
        },
        {
          "internalType": "bytes32",
          "name": "s",
          "type": "bytes32"
        }
      ],
      "name": "delegateBySig",
      "outputs": [],
      "stateMutability": "nonpayable",
      "type": "function"
    },
    {
      "inputs": [
        {
          "internalType": "address",
          "name": "account",
          "type": "address"
        }
      ],
      "name": "delegates",
      "outputs": [
        {
          "internalType": "address",
          "name": "",
          "type": "address"
        }
      ],
      "stateMutability": "view",
      "type": "function"
    },
    {
      "inputs": [
        {
          "internalType": "uint256",
          "name": "blockNumber",
          "type": "uint256"
        }
      ],
      "name": "getPastTotalSupply",
      "outputs": [
        {
          "internalType": "uint256",
          "name": "",
          "type": "uint256"
        }
      ],
      "stateMutability": "view",
      "type": "function"
    },
    {
      "inputs": [
        {
          "internalType": "address",
          "name": "account",
          "type": "address"
        },
        {
          "internalType": "uint256",
          "name": "blockNumber",
          "type": "uint256"
        }
      ],
      "name": "getPastVotes",
      "outputs": [
        {
          "internalType": "uint256",
          "name": "",
          "type": "uint256"
        }
      ],
      "stateMutability": "view",
      "type": "function"
    },
    {
      "inputs": [
        {
          "internalType": "address",
          "name": "account",
          "type": "address"
        }
      ],
      "name": "getVotes",
      "outputs": [
        {
          "internalType": "uint256",
          "name": "",
          "type": "uint256"
        }
      ],
      "stateMutability": "view",
      "type": "function"
    },
    {
      "inputs": [
        {
          "internalType": "address",
          "name": "spender",
          "type": "address"
        },
        {
          "internalType": "uint256",
          "name": "addedValue",
          "type": "uint256"
        }
      ],
      "name": "increaseAllowance",
      "outputs": [
        {
          "internalType": "bool",
          "name": "",
          "type": "bool"
        }
      ],
      "stateMutability": "nonpayable",
      "type": "function"
    },
    {
      "inputs": [
        {
          "internalType": "address",
          "name": "to",
          "type": "address"
        },
        {
          "internalType": "uint256",
          "name": "amount",
          "type": "uint256"
        }
      ],
      "name": "mint",
      "outputs": [],
      "stateMutability": "nonpayable",
      "type": "function"
    },
    {
      "inputs": [],
      "name": "name",
      "outputs": [
        {
          "internalType": "string",
          "name": "",
          "type": "string"
        }
      ],
      "stateMutability": "view",
      "type": "function"
    },
    {
      "inputs": [
        {
          "internalType": "address",
          "name": "owner",
          "type": "address"
        }
      ],
      "name": "nonces",
      "outputs": [
        {
          "internalType": "uint256",
          "name": "",
          "type": "uint256"
        }
      ],
      "stateMutability": "view",
      "type": "function"
    },
    {
      "inputs": [
        {
          "internalType": "address",
          "name": "account",
          "type": "address"
        }
      ],
      "name": "numCheckpoints",
      "outputs": [
        {
          "internalType": "uint32",
          "name": "",
          "type": "uint32"
        }
      ],
      "stateMutability": "view",
      "type": "function"
    },
    {
      "inputs": [],
      "name": "owner",
      "outputs": [
        {
          "internalType": "address",
          "name": "",
          "type": "address"
        }
      ],
      "stateMutability": "view",
      "type": "function"
    },
    {
      "inputs": [
        {
          "internalType": "address",
          "name": "owner",
          "type": "address"
        },
        {
          "internalType": "address",
          "name": "spender",
          "type": "address"
        },
        {
          "internalType": "uint256",
          "name": "value",
          "type": "uint256"
        },
        {
          "internalType": "uint256",
          "name": "deadline",
          "type": "uint256"
        },
        {
          "internalType": "uint8",
          "name": "v",
          "type": "uint8"
        },
        {
          "internalType": "bytes32",
          "name": "r",
          "type": "bytes32"
        },
        {
          "internalType": "bytes32",
          "name": "s",
          "type": "bytes32"
        }
      ],
      "name": "permit",
      "outputs": [],
      "stateMutability": "nonpayable",
      "type": "function"
    },
    {
      "inputs": [],
      "name": "renounceOwnership",
      "outputs": [],
      "stateMutability": "nonpayable",
      "type": "function"
    },
    {
      "inputs": [],
      "name": "symbol",
      "outputs": [
        {
          "internalType": "string",
          "name": "",
          "type": "string"
        }
      ],
      "stateMutability": "view",
      "type": "function"
    },
    {
      "inputs": [],
      "name": "totalSupply",
      "outputs": [
        {
          "internalType": "uint256",
          "name": "",
          "type": "uint256"
        }
      ],
      "stateMutability": "view",
      "type": "function"
    },
    {
      "inputs": [
        {
          "internalType": "address",
          "name": "to",
          "type": "address"
        },
        {
          "internalType": "uint256",
          "name": "amount",
          "type": "uint256"
        }
      ],
      "name": "transfer",
      "outputs": [
        {
          "internalType": "bool",
          "name": "",
          "type": "bool"
        }
      ],
      "stateMutability": "nonpayable",
      "type": "function"
    },
    {
      "inputs": [
        {
          "internalType": "address",
          "name": "from",
          "type": "address"
        },
        {
          "internalType": "address",
          "name": "to",
          "type": "address"
        },
        {
          "internalType": "uint256",
          "name": "amount",
          "type": "uint256"
        }
      ],
      "name": "transferFrom",
      "outputs": [
        {
          "internalType": "bool",
          "name": "",
          "type": "bool"
        }
      ],
      "stateMutability": "nonpayable",
      "type": "function"
    },
    {
      "inputs": [
        {
          "internalType": "address",
          "name": "newOwner",
          "type": "address"
        }
      ],
      "name": "transferOwnership",
      "outputs": [],
      "stateMutability": "nonpayable",
      "type": "function"
    }
  ],
  "bytecode": "0x6101606040527f6e71edae12b1b97f4d1f60370fef10105fa2faae0126114a169c64845d6126c9610140908152503480156200003a57600080fd5b50604051620050f6380380620050f6833981810160405281019062000060919062000d36565b82806040518060400160405280600181526020017f310000000000000000000000000000000000000000000000000000000000000081525085858160039080519060200190620000b292919062000bf1565b508060049080519060200190620000cb92919062000bf1565b50505060008280519060200120905060008280519060200120905060007f8b73c3c69bb8fe3d512ecc4cf759cc79239f7b179b0ffacaa9a75d522b39400f90508260e081815250508161010081815250504660a0818152505062000137818484620001bf60201b60201c565b608081815250503073ffffffffffffffffffffffffffffffffffffffff1660c08173ffffffffffffffffffffffffffffffffffffffff1660601b81525050806101208181525050505050505050620001a462000198620001fb60201b60201c565b6200020360201b60201c565b620001b63382620002c960201b60201c565b505050620013d1565b60008383834630604051602001620001dc95949392919062000e9f565b6040516020818303038152906040528051906020012090509392505050565b600033905090565b6000600960009054906101000a900473ffffffffffffffffffffffffffffffffffffffff16905081600960006101000a81548173ffffffffffffffffffffffffffffffffffffffff021916908373ffffffffffffffffffffffffffffffffffffffff1602179055508173ffffffffffffffffffffffffffffffffffffffff168173ffffffffffffffffffffffffffffffffffffffff167f8be0079c531659141344cd1fd0a4f28419497f9722a3daafe3b4186f6b6457e060405160405180910390a35050565b620002e08282620002e460201b620012411760201c565b5050565b620002fb8282620003a260201b620012ce1760201c565b6200030b6200051b60201b60201c565b7bffffffffffffffffffffffffffffffffffffffffffffffffffffffff16620003396200053f60201b60201c565b11156200037d576040517f08c379a0000000000000000000000000000000000000000000000000000000008152600401620003749062000efc565b60405180910390fd5b6200039c60086200054960201b6200142e17836200056160201b60201c565b50505050565b600073ffffffffffffffffffffffffffffffffffffffff168273ffffffffffffffffffffffffffffffffffffffff16141562000415576040517f08c379a00000000000000000000000000000000000000000000000000000000081526004016200040c9062000f62565b60405180910390fd5b62000429600083836200081260201b60201c565b80600260008282546200043d91906200103e565b92505081905550806000808473ffffffffffffffffffffffffffffffffffffffff1673ffffffffffffffffffffffffffffffffffffffff16815260200190815260200160002060008282546200049491906200103e565b925050819055508173ffffffffffffffffffffffffffffffffffffffff16600073ffffffffffffffffffffffffffffffffffffffff167fddf252ad1be2c89b69c2b068fc378daa952ba7f163c4a11628f55a4df523b3ef83604051620004fb919062000f84565b60405180910390a362000517600083836200081760201b60201c565b5050565b60007bffffffffffffffffffffffffffffffffffffffffffffffffffffffff905090565b6000600254905090565b600081836200055991906200103e565b905092915050565b60008060008580549050905060008114620005d657856001826200058691906200109b565b815481106200059a57620005996200121e565b5b9060005260206000200160000160049054906101000a90047bffffffffffffffffffffffffffffffffffffffffffffffffffffffff16620005d9565b60005b7bffffffffffffffffffffffffffffffffffffffffffffffffffffffff1692506200060583858760201c565b91506000811180156200065e575043866001836200062491906200109b565b815481106200063857620006376200121e565b5b9060005260206000200160000160009054906101000a900463ffffffff1663ffffffff16145b15620006ff576200067a826200083460201b620014441760201c565b866001836200068a91906200109b565b815481106200069e576200069d6200121e565b5b9060005260206000200160000160046101000a8154817bffffffffffffffffffffffffffffffffffffffffffffffffffffffff02191690837bffffffffffffffffffffffffffffffffffffffffffffffffffffffff16021790555062000809565b8560405180604001604052806200072143620008a260201b620014af1760201c565b63ffffffff16815260200162000742856200083460201b620014441760201c565b7bffffffffffffffffffffffffffffffffffffffffffffffffffffffff168152509080600181540180825580915050600190039060005260206000200160009091909190915060008201518160000160006101000a81548163ffffffff021916908363ffffffff16021790555060208201518160000160046101000a8154817bffffffffffffffffffffffffffffffffffffffffffffffffffffffff02191690837bffffffffffffffffffffffffffffffffffffffffffffffffffffffff16021790555050505b50935093915050565b505050565b6200082f838383620008f860201b620015021760201c565b505050565b60007bffffffffffffffffffffffffffffffffffffffffffffffffffffffff80168211156200089a576040517f08c379a0000000000000000000000000000000000000000000000000000000008152600401620008919062000f1e565b60405180910390fd5b819050919050565b600063ffffffff8016821115620008f0576040517f08c379a0000000000000000000000000000000000000000000000000000000008152600401620008e79062000f40565b60405180910390fd5b819050919050565b620009108383836200094860201b6200152d1760201c565b6200094362000925846200094d60201b60201c565b62000936846200094d60201b60201c565b83620009b660201b60201c565b505050565b505050565b6000600660008373ffffffffffffffffffffffffffffffffffffffff1673ffffffffffffffffffffffffffffffffffffffff16815260200190815260200160002060009054906101000a900473ffffffffffffffffffffffffffffffffffffffff169050919050565b8173ffffffffffffffffffffffffffffffffffffffff168373ffffffffffffffffffffffffffffffffffffffff1614158015620009f35750600081115b1562000bd457600073ffffffffffffffffffffffffffffffffffffffff168373ffffffffffffffffffffffffffffffffffffffff161462000ae65760008062000a8d600760008773ffffffffffffffffffffffffffffffffffffffff1673ffffffffffffffffffffffffffffffffffffffff16815260200190815260200160002062000bd960201b6200153217856200056160201b60201c565b915091508473ffffffffffffffffffffffffffffffffffffffff167fdec2bacdd2f05b59de34da9b523dff8be42e5e38e818c82fdb0bae774387a724838360405162000adb92919062000fa1565b60405180910390a250505b600073ffffffffffffffffffffffffffffffffffffffff168273ffffffffffffffffffffffffffffffffffffffff161462000bd35760008062000b7a600760008673ffffffffffffffffffffffffffffffffffffffff1673ffffffffffffffffffffffffffffffffffffffff1681526020019081526020016000206200054960201b6200142e17856200056160201b60201c565b915091508373ffffffffffffffffffffffffffffffffffffffff167fdec2bacdd2f05b59de34da9b523dff8be42e5e38e818c82fdb0bae774387a724838360405162000bc892919062000fa1565b60405180910390a250505b5b505050565b6000818362000be991906200109b565b905092915050565b82805462000bff9062001154565b90600052602060002090601f01602090048101928262000c23576000855562000c6f565b82601f1062000c3e57805160ff191683800117855562000c6f565b8280016001018555821562000c6f579182015b8281111562000c6e57825182559160200191906001019062000c51565b5b50905062000c7e919062000c82565b5090565b5b8082111562000c9d57600081600090555060010162000c83565b5090565b600062000cb862000cb28462000ff7565b62000fce565b90508281526020810184848401111562000cd75762000cd662001281565b5b62000ce48482856200111e565b509392505050565b600082601f83011262000d045762000d036200127c565b5b815162000d1684826020860162000ca1565b91505092915050565b60008151905062000d3081620013b7565b92915050565b60008060006060848603121562000d525762000d516200128b565b5b600084015167ffffffffffffffff81111562000d735762000d7262001286565b5b62000d818682870162000cec565b935050602084015167ffffffffffffffff81111562000da55762000da462001286565b5b62000db38682870162000cec565b925050604062000dc68682870162000d1f565b9150509250925092565b62000ddb81620010d6565b82525050565b62000dec81620010ea565b82525050565b600062000e016030836200102d565b915062000e0e82620012a1565b604082019050919050565b600062000e286027836200102d565b915062000e3582620012f0565b604082019050919050565b600062000e4f6026836200102d565b915062000e5c826200133f565b604082019050919050565b600062000e76601f836200102d565b915062000e83826200138e565b602082019050919050565b62000e998162001114565b82525050565b600060a08201905062000eb6600083018862000de1565b62000ec5602083018762000de1565b62000ed4604083018662000de1565b62000ee3606083018562000e8e565b62000ef2608083018462000dd0565b9695505050505050565b6000602082019050818103600083015262000f178162000df2565b9050919050565b6000602082019050818103600083015262000f398162000e19565b9050919050565b6000602082019050818103600083015262000f5b8162000e40565b9050919050565b6000602082019050818103600083015262000f7d8162000e67565b9050919050565b600060208201905062000f9b600083018462000e8e565b92915050565b600060408201905062000fb8600083018562000e8e565b62000fc7602083018462000e8e565b9392505050565b600062000fda62000fed565b905062000fe882826200118a565b919050565b6000604051905090565b600067ffffffffffffffff8211156200101557620010146200124d565b5b620010208262001290565b9050602081019050919050565b600082825260208201905092915050565b60006200104b8262001114565b9150620010588362001114565b9250827fffffffffffffffffffffffffffffffffffffffffffffffffffffffffffffffff0382111562001090576200108f620011c0565b5b828201905092915050565b6000620010a88262001114565b9150620010b58362001114565b925082821015620010cb57620010ca620011c0565b5b828203905092915050565b6000620010e382620010f4565b9050919050565b6000819050919050565b600073ffffffffffffffffffffffffffffffffffffffff82169050919050565b6000819050919050565b60005b838110156200113e57808201518184015260208101905062001121565b838111156200114e576000848401525b50505050565b600060028204905060018216806200116d57607f821691505b60208210811415620011845762001183620011ef565b5b50919050565b620011958262001290565b810181811067ffffffffffffffff82111715620011b757620011b66200124d565b5b80604052505050565b7f4e487b7100000000000000000000000000000000000000000000000000000000600052601160045260246000fd5b7f4e487b7100000000000000000000000000000000000000000000000000000000600052602260045260246000fd5b7f4e487b7100000000000000000000000000000000000000000000000000000000600052603260045260246000fd5b7f4e487b7100000000000000000000000000000000000000000000000000000000600052604160045260246000fd5b600080fd5b600080fd5b600080fd5b600080fd5b6000601f19601f8301169050919050565b7f4552433230566f7465733a20746f74616c20737570706c79207269736b73206f60008201527f766572666c6f77696e6720766f74657300000000000000000000000000000000602082015250565b7f53616665436173743a2076616c756520646f65736e27742066697420696e203260008201527f3234206269747300000000000000000000000000000000000000000000000000602082015250565b7f53616665436173743a2076616c756520646f65736e27742066697420696e203360008201527f3220626974730000000000000000000000000000000000000000000000000000602082015250565b7f45524332303a206d696e7420746f20746865207a65726f206164647265737300600082015250565b620013c28162001114565b8114620013ce57600080fd5b50565b60805160a05160c05160601c60e051610100516101205161014051613cc76200142f6000396000610eb701526000611ad601526000611b1801526000611af701526000611a2c01526000611a8201526000611aab0152613cc76000f3fe608060405234801561001057600080fd5b506004361061018e5760003560e01c8063715018a6116100de578063a457c2d711610097578063d505accf11610071578063d505accf146104e5578063dd62ed3e14610501578063f1127ed814610531578063f2fde38b146105615761018e565b8063a457c2d714610469578063a9059cbb14610499578063c3cda520146104c95761018e565b8063715018a6146103935780637ecebe001461039d5780638da5cb5b146103cd5780638e539e8c146103eb57806395d89b411461041b5780639ab24eb0146104395761018e565b8063395093511161014b578063587cde1e11610125578063587cde1e146102e75780635c19a95c146103175780636fcfff451461033357806370a08231146103635761018e565b8063395093511461026b5780633a46b1a81461029b57806340c10f19146102cb5761018e565b806306fdde0314610193578063095ea7b3146101b157806318160ddd146101e157806323b872dd146101ff578063313ce5671461022f5780633644e5151461024d575b600080fd5b61019b61057d565b6040516101a89190613047565b60405180910390f35b6101cb60048036038101906101c6919061292b565b61060f565b6040516101d89190612ed3565b60405180910390f35b6101e9610632565b6040516101f69190613344565b60405180910390f35b61021960048036038101906102149190612836565b61063c565b6040516102269190612ed3565b60405180910390f35b61023761066b565b60405161024491906133a3565b60405180910390f35b610255610674565b6040516102629190612eee565b60405180910390f35b6102856004803603810190610280919061292b565b610683565b6040516102929190612ed3565b60405180910390f35b6102b560048036038101906102b0919061292b565b61072d565b6040516102c29190613344565b60405180910390f35b6102e560048036038101906102e0919061292b565b6107c1565b005b61030160048036038101906102fc91906127c9565b61084b565b60405161030e9190612eb8565b60405180910390f35b610331600480360381019061032c91906127c9565b6108b4565b005b61034d600480360381019061034891906127c9565b6108c8565b60405161035a9190613388565b60405180910390f35b61037d600480360381019061037891906127c9565b61091c565b60405161038a9190613344565b60405180910390f35b61039b610964565b005b6103b760048036038101906103b291906127c9565b6109ec565b6040516103c49190613344565b60405180910390f35b6103d5610a3c565b6040516103e29190612eb8565b60405180910390f35b61040560048036038101906104009190612a38565b610a66565b6040516104129190613344565b60405180910390f35b610423610abc565b6040516104309190613047565b60405180910390f35b610453600480360381019061044e91906127c9565b610b4e565b6040516104609190613344565b60405180910390f35b610483600480360381019061047e919061292b565b610c5f565b6040516104909190612ed3565b60405180910390f35b6104b360048036038101906104ae919061292b565b610d49565b6040516104c09190612ed3565b60405180910390f35b6104e360048036038101906104de919061296b565b610d6c565b005b6104ff60048036038101906104fa9190612889565b610e70565b005b61051b600480360381019061051691906127f6565b610fb2565b6040516105289190613344565b60405180910390f35b61054b600480360381019061054691906129f8565b611039565b6040516105589190613329565b60405180910390f35b61057b600480360381019061057691906127c9565b611149565b005b60606003805461058c9061356a565b80601f01602080910402602001604051908101604052809291908181526020018280546105b89061356a565b80156106055780601f106105da57610100808354040283529160200191610605565b820191906000526020600020905b8154815290600101906020018083116105e857829003601f168201915b5050505050905090565b60008061061a611548565b9050610627818585611550565b600191505092915050565b6000600254905090565b600080610647611548565b905061065485828561171b565b61065f8585856117a7565b60019150509392505050565b60006012905090565b600061067e611a28565b905090565b60008061068e611548565b9050610722818585600160008673ffffffffffffffffffffffffffffffffffffffff1673ffffffffffffffffffffffffffffffffffffffff16815260200190815260200160002060008973ffffffffffffffffffffffffffffffffffffffff1673ffffffffffffffffffffffffffffffffffffffff1681526020019081526020016000205461071d91906133e5565b611550565b600191505092915050565b6000438210610771576040517f08c379a0000000000000000000000000000000000000000000000000000000008152600401610768906130a9565b60405180910390fd5b6107b9600760008573ffffffffffffffffffffffffffffffffffffffff1673ffffffffffffffffffffffffffffffffffffffff16815260200190815260200160002083611b42565b905092915050565b6107c9611548565b73ffffffffffffffffffffffffffffffffffffffff166107e7610a3c565b73ffffffffffffffffffffffffffffffffffffffff161461083d576040517f08c379a000000000000000000000000000000000000000000000000000000000815260040161083490613249565b60405180910390fd5b6108478282611c4e565b5050565b6000600660008373ffffffffffffffffffffffffffffffffffffffff1673ffffffffffffffffffffffffffffffffffffffff16815260200190815260200160002060009054906101000a900473ffffffffffffffffffffffffffffffffffffffff169050919050565b6108c56108bf611548565b82611c5c565b50565b6000610915600760008473ffffffffffffffffffffffffffffffffffffffff1673ffffffffffffffffffffffffffffffffffffffff168152602001908152602001600020805490506114af565b9050919050565b60008060008373ffffffffffffffffffffffffffffffffffffffff1673ffffffffffffffffffffffffffffffffffffffff168152602001908152602001600020549050919050565b61096c611548565b73ffffffffffffffffffffffffffffffffffffffff1661098a610a3c565b73ffffffffffffffffffffffffffffffffffffffff16146109e0576040517f08c379a00000000000000000000000000000000000000000000000000000000081526004016109d790613249565b60405180910390fd5b6109ea6000611d76565b565b6000610a35600560008473ffffffffffffffffffffffffffffffffffffffff1673ffffffffffffffffffffffffffffffffffffffff168152602001908152602001600020611e3c565b9050919050565b6000600960009054906101000a900473ffffffffffffffffffffffffffffffffffffffff16905090565b6000438210610aaa576040517f08c379a0000000000000000000000000000000000000000000000000000000008152600401610aa1906130a9565b60405180910390fd5b610ab5600883611b42565b9050919050565b606060048054610acb9061356a565b80601f0160208091040260200160405190810160405280929190818152602001828054610af79061356a565b8015610b445780601f10610b1957610100808354040283529160200191610b44565b820191906000526020600020905b815481529060010190602001808311610b2757829003601f168201915b5050505050905090565b600080600760008473ffffffffffffffffffffffffffffffffffffffff1673ffffffffffffffffffffffffffffffffffffffff16815260200190815260200160002080549050905060008114610c3657600760008473ffffffffffffffffffffffffffffffffffffffff1673ffffffffffffffffffffffffffffffffffffffff168152602001908152602001600020600182610bea919061346c565b81548110610bfb57610bfa613662565b5b9060005260206000200160000160049054906101000a90047bffffffffffffffffffffffffffffffffffffffffffffffffffffffff16610c39565b60005b7bffffffffffffffffffffffffffffffffffffffffffffffffffffffff16915050919050565b600080610c6a611548565b90506000600160008373ffffffffffffffffffffffffffffffffffffffff1673ffffffffffffffffffffffffffffffffffffffff16815260200190815260200160002060008673ffffffffffffffffffffffffffffffffffffffff1673ffffffffffffffffffffffffffffffffffffffff16815260200190815260200160002054905083811015610d30576040517f08c379a0000000000000000000000000000000000000000000000000000000008152600401610d27906132e9565b60405180910390fd5b610d3d8286868403611550565b60019250505092915050565b600080610d54611548565b9050610d618185856117a7565b600191505092915050565b83421115610daf576040517f08c379a0000000000000000000000000000000000000000000000000000000008152600401610da6906130c9565b60405180910390fd5b6000610e11610e097fe48329057bfd03d55e49b547132e39cffd9c1820ad7b9d4c5307691425d15adf898989604051602001610dee9493929190612f6a565b60405160208183030381529060405280519060200120611e4a565b858585611e64565b9050610e1c81611e8f565b8614610e5d576040517f08c379a0000000000000000000000000000000000000000000000000000000008152600401610e5490613109565b60405180910390fd5b610e678188611c5c565b50505050505050565b83421115610eb3576040517f08c379a0000000000000000000000000000000000000000000000000000000008152600401610eaa90613189565b60405180910390fd5b60007f0000000000000000000000000000000000000000000000000000000000000000888888610ee28c611e8f565b89604051602001610ef896959493929190612f09565b6040516020818303038152906040528051906020012090506000610f1b82611e4a565b90506000610f2b82878787611e64565b90508973ffffffffffffffffffffffffffffffffffffffff168173ffffffffffffffffffffffffffffffffffffffff1614610f9b576040517f08c379a0000000000000000000000000000000000000000000000000000000008152600401610f9290613209565b60405180910390fd5b610fa68a8a8a611550565b50505050505050505050565b6000600160008473ffffffffffffffffffffffffffffffffffffffff1673ffffffffffffffffffffffffffffffffffffffff16815260200190815260200160002060008373ffffffffffffffffffffffffffffffffffffffff1673ffffffffffffffffffffffffffffffffffffffff16815260200190815260200160002054905092915050565b611041612722565b600760008473ffffffffffffffffffffffffffffffffffffffff1673ffffffffffffffffffffffffffffffffffffffff1681526020019081526020016000208263ffffffff168154811061109857611097613662565b5b906000526020600020016040518060400160405290816000820160009054906101000a900463ffffffff1663ffffffff1663ffffffff1681526020016000820160049054906101000a90047bffffffffffffffffffffffffffffffffffffffffffffffffffffffff167bffffffffffffffffffffffffffffffffffffffffffffffffffffffff167bffffffffffffffffffffffffffffffffffffffffffffffffffffffff1681525050905092915050565b611151611548565b73ffffffffffffffffffffffffffffffffffffffff1661116f610a3c565b73ffffffffffffffffffffffffffffffffffffffff16146111c5576040517f08c379a00000000000000000000000000000000000000000000000000000000081526004016111bc90613249565b60405180910390fd5b600073ffffffffffffffffffffffffffffffffffffffff168173ffffffffffffffffffffffffffffffffffffffff161415611235576040517f08c379a000000000000000000000000000000000000000000000000000000000815260040161122c90613129565b60405180910390fd5b61123e81611d76565b50565b61124b82826112ce565b611253611eed565b7bffffffffffffffffffffffffffffffffffffffffffffffffffffffff16611279610632565b11156112ba576040517f08c379a00000000000000000000000000000000000000000000000000000000081526004016112b190613229565b60405180910390fd5b6112c8600861142e83611f11565b50505050565b600073ffffffffffffffffffffffffffffffffffffffff168273ffffffffffffffffffffffffffffffffffffffff16141561133e576040517f08c379a000000000000000000000000000000000000000000000000000000000815260040161133590613309565b60405180910390fd5b61134a60008383612189565b806002600082825461135c91906133e5565b92505081905550806000808473ffffffffffffffffffffffffffffffffffffffff1673ffffffffffffffffffffffffffffffffffffffff16815260200190815260200160002060008282546113b191906133e5565b925050819055508173ffffffffffffffffffffffffffffffffffffffff16600073ffffffffffffffffffffffffffffffffffffffff167fddf252ad1be2c89b69c2b068fc378daa952ba7f163c4a11628f55a4df523b3ef836040516114169190613344565b60405180910390a361142a6000838361218e565b5050565b6000818361143c91906133e5565b905092915050565b60007bffffffffffffffffffffffffffffffffffffffffffffffffffffffff80168211156114a7576040517f08c379a000000000000000000000000000000000000000000000000000000000815260040161149e90613269565b60405180910390fd5b819050919050565b600063ffffffff80168211156114fa576040517f08c379a00000000000000000000000000000000000000000000000000000000081526004016114f1906132a9565b60405180910390fd5b819050919050565b61150d83838361152d565b6115286115198461084b565b6115228461084b565b8361219e565b505050565b505050565b60008183611540919061346c565b905092915050565b600033905090565b600073ffffffffffffffffffffffffffffffffffffffff168373ffffffffffffffffffffffffffffffffffffffff1614156115c0576040517f08c379a00000000000000000000000000000000000000000000000000000000081526004016115b7906132c9565b60405180910390fd5b600073ffffffffffffffffffffffffffffffffffffffff168273ffffffffffffffffffffffffffffffffffffffff161415611630576040517f08c379a000000000000000000000000000000000000000000000000000000000815260040161162790613149565b60405180910390fd5b80600160008573ffffffffffffffffffffffffffffffffffffffff1673ffffffffffffffffffffffffffffffffffffffff16815260200190815260200160002060008473ffffffffffffffffffffffffffffffffffffffff1673ffffffffffffffffffffffffffffffffffffffff168152602001908152602001600020819055508173ffffffffffffffffffffffffffffffffffffffff168373ffffffffffffffffffffffffffffffffffffffff167f8c5be1e5ebec7d5bd14f71427d1e84f3dd0314c0f7b2291e5b200ac8c7c3b9258360405161170e9190613344565b60405180910390a3505050565b60006117278484610fb2565b90507fffffffffffffffffffffffffffffffffffffffffffffffffffffffffffffffff81146117a15781811015611793576040517f08c379a000000000000000000000000000000000000000000000000000000000815260040161178a90613169565b60405180910390fd5b6117a08484848403611550565b5b50505050565b600073ffffffffffffffffffffffffffffffffffffffff168373ffffffffffffffffffffffffffffffffffffffff161415611817576040517f08c379a000000000000000000000000000000000000000000000000000000000815260040161180e90613289565b60405180910390fd5b600073ffffffffffffffffffffffffffffffffffffffff168273ffffffffffffffffffffffffffffffffffffffff161415611887576040517f08c379a000000000000000000000000000000000000000000000000000000000815260040161187e90613089565b60405180910390fd5b611892838383612189565b60008060008573ffffffffffffffffffffffffffffffffffffffff1673ffffffffffffffffffffffffffffffffffffffff16815260200190815260200160002054905081811015611918576040517f08c379a000000000000000000000000000000000000000000000000000000000815260040161190f906131a9565b60405180910390fd5b8181036000808673ffffffffffffffffffffffffffffffffffffffff1673ffffffffffffffffffffffffffffffffffffffff16815260200190815260200160002081905550816000808573ffffffffffffffffffffffffffffffffffffffff1673ffffffffffffffffffffffffffffffffffffffff16815260200190815260200160002060008282546119ab91906133e5565b925050819055508273ffffffffffffffffffffffffffffffffffffffff168473ffffffffffffffffffffffffffffffffffffffff167fddf252ad1be2c89b69c2b068fc378daa952ba7f163c4a11628f55a4df523b3ef84604051611a0f9190613344565b60405180910390a3611a2284848461218e565b50505050565b60007f000000000000000000000000000000000000000000000000000000000000000073ffffffffffffffffffffffffffffffffffffffff163073ffffffffffffffffffffffffffffffffffffffff16148015611aa457507f000000000000000000000000000000000000000000000000000000000000000046145b15611ad1577f00000000000000000000000000000000000000000000000000000000000000009050611b3f565b611b3c7f00000000000000000000000000000000000000000000000000000000000000007f00000000000000000000000000000000000000000000000000000000000000007f0000000000000000000000000000000000000000000000000000000000000000612397565b90505b90565b6000808380549050905060005b81811015611bc1576000611b6382846123d1565b905084868281548110611b7957611b78613662565b5b9060005260206000200160000160009054906101000a900463ffffffff1663ffffffff161115611bab57809250611bbb565b600181611bb891906133e5565b91505b50611b4f565b60008214611c235784600183611bd7919061346c565b81548110611be857611be7613662565b5b9060005260206000200160000160049054906101000a90047bffffffffffffffffffffffffffffffffffffffffffffffffffffffff16611c26565b60005b7bffffffffffffffffffffffffffffffffffffffffffffffffffffffff169250505092915050565b611c588282611241565b5050565b6000611c678361084b565b90506000611c748461091c565b905082600660008673ffffffffffffffffffffffffffffffffffffffff1673ffffffffffffffffffffffffffffffffffffffff16815260200190815260200160002060006101000a81548173ffffffffffffffffffffffffffffffffffffffff021916908373ffffffffffffffffffffffffffffffffffffffff1602179055508273ffffffffffffffffffffffffffffffffffffffff168273ffffffffffffffffffffffffffffffffffffffff168573ffffffffffffffffffffffffffffffffffffffff167f3134e8a2e6d97e929a7e54011ea5485d7d196dd5f0ba4d4ef95803e8e3fc257f60405160405180910390a4611d7082848361219e565b50505050565b6000600960009054906101000a900473ffffffffffffffffffffffffffffffffffffffff16905081600960006101000a81548173ffffffffffffffffffffffffffffffffffffffff021916908373ffffffffffffffffffffffffffffffffffffffff1602179055508173ffffffffffffffffffffffffffffffffffffffff168173ffffffffffffffffffffffffffffffffffffffff167f8be0079c531659141344cd1fd0a4f28419497f9722a3daafe3b4186f6b6457e060405160405180910390a35050565b600081600001549050919050565b6000611e5d611e57611a28565b836123f7565b9050919050565b6000806000611e758787878761242a565b91509150611e8281612537565b8192505050949350505050565b600080600560008473ffffffffffffffffffffffffffffffffffffffff1673ffffffffffffffffffffffffffffffffffffffff1681526020019081526020016000209050611edc81611e3c565b9150611ee78161270c565b50919050565b60007bffffffffffffffffffffffffffffffffffffffffffffffffffffffff905090565b60008060008580549050905060008114611f7f5785600182611f33919061346c565b81548110611f4457611f43613662565b5b9060005260206000200160000160049054906101000a90047bffffffffffffffffffffffffffffffffffffffffffffffffffffffff16611f82565b60005b7bffffffffffffffffffffffffffffffffffffffffffffffffffffffff169250611fb083858763ffffffff16565b915060008111801561200357504386600183611fcc919061346c565b81548110611fdd57611fdc613662565b5b9060005260206000200160000160009054906101000a900463ffffffff1663ffffffff16145b156120905761201182611444565b8660018361201f919061346c565b815481106120305761202f613662565b5b9060005260206000200160000160046101000a8154817bffffffffffffffffffffffffffffffffffffffffffffffffffffffff02191690837bffffffffffffffffffffffffffffffffffffffffffffffffffffffff160217905550612180565b8560405180604001604052806120a5436114af565b63ffffffff1681526020016120b985611444565b7bffffffffffffffffffffffffffffffffffffffffffffffffffffffff168152509080600181540180825580915050600190039060005260206000200160009091909190915060008201518160000160006101000a81548163ffffffff021916908363ffffffff16021790555060208201518160000160046101000a8154817bffffffffffffffffffffffffffffffffffffffffffffffffffffffff02191690837bffffffffffffffffffffffffffffffffffffffffffffffffffffffff16021790555050505b50935093915050565b505050565b612199838383611502565b505050565b8173ffffffffffffffffffffffffffffffffffffffff168373ffffffffffffffffffffffffffffffffffffffff16141580156121da5750600081115b1561239257600073ffffffffffffffffffffffffffffffffffffffff168373ffffffffffffffffffffffffffffffffffffffff16146122b857600080612261600760008773ffffffffffffffffffffffffffffffffffffffff1673ffffffffffffffffffffffffffffffffffffffff16815260200190815260200160002061153285611f11565b915091508473ffffffffffffffffffffffffffffffffffffffff167fdec2bacdd2f05b59de34da9b523dff8be42e5e38e818c82fdb0bae774387a72483836040516122ad92919061335f565b60405180910390a250505b600073ffffffffffffffffffffffffffffffffffffffff168273ffffffffffffffffffffffffffffffffffffffff16146123915760008061233a600760008673ffffffffffffffffffffffffffffffffffffffff1673ffffffffffffffffffffffffffffffffffffffff16815260200190815260200160002061142e85611f11565b915091508373ffffffffffffffffffffffffffffffffffffffff167fdec2bacdd2f05b59de34da9b523dff8be42e5e38e818c82fdb0bae774387a724838360405161238692919061335f565b60405180910390a250505b5b505050565b600083838346306040516020016123b2959493929190612faf565b6040516020818303038152906040528051906020012090509392505050565b600060028284186123e2919061343b565b8284166123ef91906133e5565b905092915050565b6000828260405160200161240c929190612e81565b60405160208183030381529060405280519060200120905092915050565b6000807f7fffffffffffffffffffffffffffffff5d576e7357a4501ddfe92f46681b20a08360001c111561246557600060039150915061252e565b601b8560ff161415801561247d5750601c8560ff1614155b1561248f57600060049150915061252e565b6000600187878787604051600081526020016040526040516124b49493929190613002565b6020604051602081039080840390855afa1580156124d6573d6000803e3d6000fd5b505050602060405103519050600073ffffffffffffffffffffffffffffffffffffffff168173ffffffffffffffffffffffffffffffffffffffff1614156125255760006001925092505061252e565b80600092509250505b94509492505050565b6000600481111561254b5761254a613604565b5b81600481111561255e5761255d613604565b5b141561256957612709565b6001600481111561257d5761257c613604565b5b8160048111156125905761258f613604565b5b14156125d1576040517f08c379a00000000000000000000000000000000000000000000000000000000081526004016125c890613069565b60405180910390fd5b600260048111156125e5576125e4613604565b5b8160048111156125f8576125f7613604565b5b1415612639576040517f08c379a0000000000000000000000000000000000000000000000000000000008152600401612630906130e9565b60405180910390fd5b6003600481111561264d5761264c613604565b5b8160048111156126605761265f613604565b5b14156126a1576040517f08c379a0000000000000000000000000000000000000000000000000000000008152600401612698906131c9565b60405180910390fd5b6004808111156126b4576126b3613604565b5b8160048111156126c7576126c6613604565b5b1415612708576040517f08c379a00000000000000000000000000000000000000000000000000000000081526004016126ff906131e9565b60405180910390fd5b5b50565b6001816000016000828254019250508190555050565b6040518060400160405280600063ffffffff16815260200160007bffffffffffffffffffffffffffffffffffffffffffffffffffffffff1681525090565b60008135905061276f81613c1e565b92915050565b60008135905061278481613c35565b92915050565b60008135905061279981613c4c565b92915050565b6000813590506127ae81613c63565b92915050565b6000813590506127c381613c7a565b92915050565b6000602082840312156127df576127de613691565b5b60006127ed84828501612760565b91505092915050565b6000806040838503121561280d5761280c613691565b5b600061281b85828601612760565b925050602061282c85828601612760565b9150509250929050565b60008060006060848603121561284f5761284e613691565b5b600061285d86828701612760565b935050602061286e86828701612760565b925050604061287f8682870161278a565b9150509250925092565b600080600080600080600060e0888a0312156128a8576128a7613691565b5b60006128b68a828b01612760565b97505060206128c78a828b01612760565b96505060406128d88a828b0161278a565b95505060606128e98a828b0161278a565b94505060806128fa8a828b016127b4565b93505060a061290b8a828b01612775565b92505060c061291c8a828b01612775565b91505092959891949750929550565b6000806040838503121561294257612941613691565b5b600061295085828601612760565b92505060206129618582860161278a565b9150509250929050565b60008060008060008060c0878903121561298857612987613691565b5b600061299689828a01612760565b96505060206129a789828a0161278a565b95505060406129b889828a0161278a565b94505060606129c989828a016127b4565b93505060806129da89828a01612775565b92505060a06129eb89828a01612775565b9150509295509295509295565b60008060408385031215612a0f57612a0e613691565b5b6000612a1d85828601612760565b9250506020612a2e8582860161279f565b9150509250929050565b600060208284031215612a4e57612a4d613691565b5b6000612a5c8482850161278a565b91505092915050565b612a6e816134a0565b82525050565b612a7d816134b2565b82525050565b612a8c816134be565b82525050565b612aa3612a9e826134be565b61359c565b82525050565b6000612ab4826133be565b612abe81856133c9565b9350612ace818560208601613537565b612ad781613696565b840191505092915050565b6000612aef6018836133c9565b9150612afa826136a7565b602082019050919050565b6000612b126023836133c9565b9150612b1d826136d0565b604082019050919050565b6000612b35601f836133c9565b9150612b408261371f565b602082019050919050565b6000612b58601d836133c9565b9150612b6382613748565b602082019050919050565b6000612b7b601f836133c9565b9150612b8682613771565b602082019050919050565b6000612b9e6019836133c9565b9150612ba98261379a565b602082019050919050565b6000612bc16026836133c9565b9150612bcc826137c3565b604082019050919050565b6000612be46022836133c9565b9150612bef82613812565b604082019050919050565b6000612c076002836133da565b9150612c1282613861565b600282019050919050565b6000612c2a601d836133c9565b9150612c358261388a565b602082019050919050565b6000612c4d601d836133c9565b9150612c58826138b3565b602082019050919050565b6000612c706026836133c9565b9150612c7b826138dc565b604082019050919050565b6000612c936022836133c9565b9150612c9e8261392b565b604082019050919050565b6000612cb66022836133c9565b9150612cc18261397a565b604082019050919050565b6000612cd9601e836133c9565b9150612ce4826139c9565b602082019050919050565b6000612cfc6030836133c9565b9150612d07826139f2565b604082019050919050565b6000612d1f6020836133c9565b9150612d2a82613a41565b602082019050919050565b6000612d426027836133c9565b9150612d4d82613a6a565b604082019050919050565b6000612d656025836133c9565b9150612d7082613ab9565b604082019050919050565b6000612d886026836133c9565b9150612d9382613b08565b604082019050919050565b6000612dab6024836133c9565b9150612db682613b57565b604082019050919050565b6000612dce6025836133c9565b9150612dd982613ba6565b604082019050919050565b6000612df1601f836133c9565b9150612dfc82613bf5565b602082019050919050565b604082016000820151612e1d6000850182612e54565b506020820151612e306020850182612e36565b50505050565b612e3f816134e8565b82525050565b612e4e81613510565b82525050565b612e5d8161351a565b82525050565b612e6c8161351a565b82525050565b612e7b8161352a565b82525050565b6000612e8c82612bfa565b9150612e988285612a92565b602082019150612ea88284612a92565b6020820191508190509392505050565b6000602082019050612ecd6000830184612a65565b92915050565b6000602082019050612ee86000830184612a74565b92915050565b6000602082019050612f036000830184612a83565b92915050565b600060c082019050612f1e6000830189612a83565b612f2b6020830188612a65565b612f386040830187612a65565b612f456060830186612e45565b612f526080830185612e45565b612f5f60a0830184612e45565b979650505050505050565b6000608082019050612f7f6000830187612a83565b612f8c6020830186612a65565b612f996040830185612e45565b612fa66060830184612e45565b95945050505050565b600060a082019050612fc46000830188612a83565b612fd16020830187612a83565b612fde6040830186612a83565b612feb6060830185612e45565b612ff86080830184612a65565b9695505050505050565b60006080820190506130176000830187612a83565b6130246020830186612e72565b6130316040830185612a83565b61303e6060830184612a83565b95945050505050565b600060208201905081810360008301526130618184612aa9565b905092915050565b6000602082019050818103600083015261308281612ae2565b9050919050565b600060208201905081810360008301526130a281612b05565b9050919050565b600060208201905081810360008301526130c281612b28565b9050919050565b600060208201905081810360008301526130e281612b4b565b9050919050565b6000602082019050818103600083015261310281612b6e565b9050919050565b6000602082019050818103600083015261312281612b91565b9050919050565b6000602082019050818103600083015261314281612bb4565b9050919050565b6000602082019050818103600083015261316281612bd7565b9050919050565b6000602082019050818103600083015261318281612c1d565b9050919050565b600060208201905081810360008301526131a281612c40565b9050919050565b600060208201905081810360008301526131c281612c63565b9050919050565b600060208201905081810360008301526131e281612c86565b9050919050565b6000602082019050818103600083015261320281612ca9565b9050919050565b6000602082019050818103600083015261322281612ccc565b9050919050565b6000602082019050818103600083015261324281612cef565b9050919050565b6000602082019050818103600083015261326281612d12565b9050919050565b6000602082019050818103600083015261328281612d35565b9050919050565b600060208201905081810360008301526132a281612d58565b9050919050565b600060208201905081810360008301526132c281612d7b565b9050919050565b600060208201905081810360008301526132e281612d9e565b9050919050565b6000602082019050818103600083015261330281612dc1565b9050919050565b6000602082019050818103600083015261332281612de4565b9050919050565b600060408201905061333e6000830184612e07565b92915050565b60006020820190506133596000830184612e45565b92915050565b60006040820190506133746000830185612e45565b6133816020830184612e45565b9392505050565b600060208201905061339d6000830184612e63565b92915050565b60006020820190506133b86000830184612e72565b92915050565b600081519050919050565b600082825260208201905092915050565b600081905092915050565b60006133f082613510565b91506133fb83613510565b9250827fffffffffffffffffffffffffffffffffffffffffffffffffffffffffffffffff038211156134305761342f6135a6565b5b828201905092915050565b600061344682613510565b915061345183613510565b925082613461576134606135d5565b5b828204905092915050565b600061347782613510565b915061348283613510565b925082821015613495576134946135a6565b5b828203905092915050565b60006134ab826134c8565b9050919050565b60008115159050919050565b6000819050919050565b600073ffffffffffffffffffffffffffffffffffffffff82169050919050565b60007bffffffffffffffffffffffffffffffffffffffffffffffffffffffff82169050919050565b6000819050919050565b600063ffffffff82169050919050565b600060ff82169050919050565b60005b8381101561355557808201518184015260208101905061353a565b83811115613564576000848401525b50505050565b6000600282049050600182168061358257607f821691505b6020821081141561359657613595613633565b5b50919050565b6000819050919050565b7f4e487b7100000000000000000000000000000000000000000000000000000000600052601160045260246000fd5b7f4e487b7100000000000000000000000000000000000000000000000000000000600052601260045260246000fd5b7f4e487b7100000000000000000000000000000000000000000000000000000000600052602160045260246000fd5b7f4e487b7100000000000000000000000000000000000000000000000000000000600052602260045260246000fd5b7f4e487b7100000000000000000000000000000000000000000000000000000000600052603260045260246000fd5b600080fd5b6000601f19601f8301169050919050565b7f45434453413a20696e76616c6964207369676e61747572650000000000000000600082015250565b7f45524332303a207472616e7366657220746f20746865207a65726f206164647260008201527f6573730000000000000000000000000000000000000000000000000000000000602082015250565b7f4552433230566f7465733a20626c6f636b206e6f7420796574206d696e656400600082015250565b7f4552433230566f7465733a207369676e61747572652065787069726564000000600082015250565b7f45434453413a20696e76616c6964207369676e6174757265206c656e67746800600082015250565b7f4552433230566f7465733a20696e76616c6964206e6f6e636500000000000000600082015250565b7f4f776e61626c653a206e6577206f776e657220697320746865207a65726f206160008201527f6464726573730000000000000000000000000000000000000000000000000000602082015250565b7f45524332303a20617070726f766520746f20746865207a65726f20616464726560008201527f7373000000000000000000000000000000000000000000000000000000000000602082015250565b7f1901000000000000000000000000000000000000000000000000000000000000600082015250565b7f45524332303a20696e73756666696369656e7420616c6c6f77616e6365000000600082015250565b7f45524332305065726d69743a206578706972656420646561646c696e65000000600082015250565b7f45524332303a207472616e7366657220616d6f756e742065786365656473206260008201527f616c616e63650000000000000000000000000000000000000000000000000000602082015250565b7f45434453413a20696e76616c6964207369676e6174757265202773272076616c60008201527f7565000000000000000000000000000000000000000000000000000000000000602082015250565b7f45434453413a20696e76616c6964207369676e6174757265202776272076616c60008201527f7565000000000000000000000000000000000000000000000000000000000000602082015250565b7f45524332305065726d69743a20696e76616c6964207369676e61747572650000600082015250565b7f4552433230566f7465733a20746f74616c20737570706c79207269736b73206f60008201527f766572666c6f77696e6720766f74657300000000000000000000000000000000602082015250565b7f4f776e61626c653a2063616c6c6572206973206e6f7420746865206f776e6572600082015250565b7f53616665436173743a2076616c756520646f65736e27742066697420696e203260008201527f3234206269747300000000000000000000000000000000000000000000000000602082015250565b7f45524332303a207472616e736665722066726f6d20746865207a65726f20616460008201527f6472657373000000000000000000000000000000000000000000000000000000602082015250565b7f53616665436173743a2076616c756520646f65736e27742066697420696e203360008201527f3220626974730000000000000000000000000000000000000000000000000000602082015250565b7f45524332303a20617070726f76652066726f6d20746865207a65726f2061646460008201527f7265737300000000000000000000000000000000000000000000000000000000602082015250565b7f45524332303a2064656372656173656420616c6c6f77616e63652062656c6f7760008201527f207a65726f000000000000000000000000000000000000000000000000000000602082015250565b7f45524332303a206d696e7420746f20746865207a65726f206164647265737300600082015250565b613c27816134a0565b8114613c3257600080fd5b50565b613c3e816134be565b8114613c4957600080fd5b50565b613c5581613510565b8114613c6057600080fd5b50565b613c6c8161351a565b8114613c7757600080fd5b50565b613c838161352a565b8114613c8e57600080fd5b5056fea2646970667358221220a8bd1c0eb2039ed74f1b3c0523057e7c5793eae5a9792ef582ce59aa1dfa549064736f6c63430008070033",
  "linkReferences": {},
  "deployedLinkReferences": {}
}