{
  "_format": "hh-sol-artifact-1",
  "contractName": "DaoNFT",
  "sourceName": "contracts/GovernanceNFT.sol",
  "abi": [
    {
      "inputs": [
        {
          "internalType": "string",
          "name": "name",
          "type": "string"
        },
        {
          "internalType": "string",
          "name": "symbol",
          "type": "string"
        }
      ],
      "stateMutability": "nonpayable",
      "type": "constructor"
    },
    {
      "anonymous": false,
      "inputs": [
        {
          "indexed": true,
          "internalType": "address",
          "name": "owner",
          "type": "address"
        },
        {
          "indexed": true,
          "internalType": "address",
          "name": "approved",
          "type": "address"
        },
        {
          "indexed": true,
          "internalType": "uint256",
          "name": "tokenId",
          "type": "uint256"
        }
      ],
      "name": "Approval",
      "type": "event"
    },
    {
      "anonymous": false,
      "inputs": [
        {
          "indexed": true,
          "internalType": "address",
          "name": "owner",
          "type": "address"
        },
        {
          "indexed": true,
          "internalType": "address",
          "name": "operator",
          "type": "address"
        },
        {
          "indexed": false,
          "internalType": "bool",
          "name": "approved",
          "type": "bool"
        }
      ],
      "name": "ApprovalForAll",
      "type": "event"
    },
    {
      "anonymous": false,
      "inputs": [
        {
          "indexed": true,
          "internalType": "address",
          "name": "delegator",
          "type": "address"
        },
        {
          "indexed": true,
          "internalType": "address",
          "name": "fromDelegate",
          "type": "address"
        },
        {
          "indexed": true,
          "internalType": "address",
          "name": "toDelegate",
          "type": "address"
        }
      ],
      "name": "DelegateChanged",
      "type": "event"
    },
    {
      "anonymous": false,
      "inputs": [
        {
          "indexed": true,
          "internalType": "address",
          "name": "delegate",
          "type": "address"
        },
        {
          "indexed": false,
          "internalType": "uint256",
          "name": "previousBalance",
          "type": "uint256"
        },
        {
          "indexed": false,
          "internalType": "uint256",
          "name": "newBalance",
          "type": "uint256"
        }
      ],
      "name": "DelegateVotesChanged",
      "type": "event"
    },
    {
      "anonymous": false,
      "inputs": [
        {
          "indexed": true,
          "internalType": "address",
          "name": "from",
          "type": "address"
        },
        {
          "indexed": true,
          "internalType": "address",
          "name": "to",
          "type": "address"
        },
        {
          "indexed": true,
          "internalType": "uint256",
          "name": "tokenId",
          "type": "uint256"
        }
      ],
      "name": "Transfer",
      "type": "event"
    },
    {
      "inputs": [],
      "name": "DOMAIN_SEPARATOR",
      "outputs": [
        {
          "internalType": "bytes32",
          "name": "",
          "type": "bytes32"
        }
      ],
      "stateMutability": "view",
      "type": "function"
    },
    {
      "inputs": [
        {
          "internalType": "address",
          "name": "to",
          "type": "address"
        },
        {
          "internalType": "uint256",
          "name": "tokenId",
          "type": "uint256"
        }
      ],
      "name": "approve",
      "outputs": [],
      "stateMutability": "nonpayable",
      "type": "function"
    },
    {
      "inputs": [
        {
          "internalType": "address",
          "name": "owner",
          "type": "address"
        }
      ],
      "name": "balanceOf",
      "outputs": [
        {
          "internalType": "uint256",
          "name": "",
          "type": "uint256"
        }
      ],
      "stateMutability": "view",
      "type": "function"
    },
    {
      "inputs": [
        {
          "internalType": "address",
          "name": "delegatee",
          "type": "address"
        }
      ],
      "name": "delegate",
      "outputs": [],
      "stateMutability": "nonpayable",
      "type": "function"
    },
    {
      "inputs": [
        {
          "internalType": "address",
          "name": "delegatee",
          "type": "address"
        },
        {
          "internalType": "uint256",
          "name": "nonce",
          "type": "uint256"
        },
        {
          "internalType": "uint256",
          "name": "expiry",
          "type": "uint256"
        },
        {
          "internalType": "uint8",
          "name": "v",
          "type": "uint8"
        },
        {
          "internalType": "bytes32",
          "name": "r",
          "type": "bytes32"
        },
        {
          "internalType": "bytes32",
          "name": "s",
          "type": "bytes32"
        }
      ],
      "name": "delegateBySig",
      "outputs": [],
      "stateMutability": "nonpayable",
      "type": "function"
    },
    {
      "inputs": [
        {
          "internalType": "address",
          "name": "account",
          "type": "address"
        }
      ],
      "name": "delegates",
      "outputs": [
        {
          "internalType": "address",
          "name": "",
          "type": "address"
        }
      ],
      "stateMutability": "view",
      "type": "function"
    },
    {
      "inputs": [
        {
          "internalType": "uint256",
          "name": "tokenId",
          "type": "uint256"
        }
      ],
      "name": "getApproved",
      "outputs": [
        {
          "internalType": "address",
          "name": "",
          "type": "address"
        }
      ],
      "stateMutability": "view",
      "type": "function"
    },
    {
      "inputs": [
        {
          "internalType": "uint256",
          "name": "blockNumber",
          "type": "uint256"
        }
      ],
      "name": "getPastTotalSupply",
      "outputs": [
        {
          "internalType": "uint256",
          "name": "",
          "type": "uint256"
        }
      ],
      "stateMutability": "view",
      "type": "function"
    },
    {
      "inputs": [
        {
          "internalType": "address",
          "name": "account",
          "type": "address"
        },
        {
          "internalType": "uint256",
          "name": "blockNumber",
          "type": "uint256"
        }
      ],
      "name": "getPastVotes",
      "outputs": [
        {
          "internalType": "uint256",
          "name": "",
          "type": "uint256"
        }
      ],
      "stateMutability": "view",
      "type": "function"
    },
    {
      "inputs": [
        {
          "internalType": "address",
          "name": "account",
          "type": "address"
        }
      ],
      "name": "getVotes",
      "outputs": [
        {
          "internalType": "uint256",
          "name": "",
          "type": "uint256"
        }
      ],
      "stateMutability": "view",
      "type": "function"
    },
    {
      "inputs": [
        {
          "internalType": "address",
          "name": "owner",
          "type": "address"
        },
        {
          "internalType": "address",
          "name": "operator",
          "type": "address"
        }
      ],
      "name": "isApprovedForAll",
      "outputs": [
        {
          "internalType": "bool",
          "name": "",
          "type": "bool"
        }
      ],
      "stateMutability": "view",
      "type": "function"
    },
    {
      "inputs": [
        {
          "internalType": "address",
          "name": "account",
          "type": "address"
        },
        {
          "internalType": "uint256",
          "name": "tokenId",
          "type": "uint256"
        }
      ],
      "name": "mint",
      "outputs": [],
      "stateMutability": "nonpayable",
      "type": "function"
    },
    {
      "inputs": [],
      "name": "name",
      "outputs": [
        {
          "internalType": "string",
          "name": "",
          "type": "string"
        }
      ],
      "stateMutability": "view",
      "type": "function"
    },
    {
      "inputs": [
        {
          "internalType": "address",
          "name": "owner",
          "type": "address"
        }
      ],
      "name": "nonces",
      "outputs": [
        {
          "internalType": "uint256",
          "name": "",
          "type": "uint256"
        }
      ],
      "stateMutability": "view",
      "type": "function"
    },
    {
      "inputs": [
        {
          "internalType": "uint256",
          "name": "tokenId",
          "type": "uint256"
        }
      ],
      "name": "ownerOf",
      "outputs": [
        {
          "internalType": "address",
          "name": "",
          "type": "address"
        }
      ],
      "stateMutability": "view",
      "type": "function"
    },
    {
      "inputs": [
        {
          "internalType": "address",
          "name": "from",
          "type": "address"
        },
        {
          "internalType": "address",
          "name": "to",
          "type": "address"
        },
        {
          "internalType": "uint256",
          "name": "tokenId",
          "type": "uint256"
        }
      ],
      "name": "safeTransferFrom",
      "outputs": [],
      "stateMutability": "nonpayable",
      "type": "function"
    },
    {
      "inputs": [
        {
          "internalType": "address",
          "name": "from",
          "type": "address"
        },
        {
          "internalType": "address",
          "name": "to",
          "type": "address"
        },
        {
          "internalType": "uint256",
          "name": "tokenId",
          "type": "uint256"
        },
        {
          "internalType": "bytes",
          "name": "_data",
          "type": "bytes"
        }
      ],
      "name": "safeTransferFrom",
      "outputs": [],
      "stateMutability": "nonpayable",
      "type": "function"
    },
    {
      "inputs": [
        {
          "internalType": "address",
          "name": "operator",
          "type": "address"
        },
        {
          "internalType": "bool",
          "name": "approved",
          "type": "bool"
        }
      ],
      "name": "setApprovalForAll",
      "outputs": [],
      "stateMutability": "nonpayable",
      "type": "function"
    },
    {
      "inputs": [
        {
          "internalType": "bytes4",
          "name": "interfaceId",
          "type": "bytes4"
        }
      ],
      "name": "supportsInterface",
      "outputs": [
        {
          "internalType": "bool",
          "name": "",
          "type": "bool"
        }
      ],
      "stateMutability": "view",
      "type": "function"
    },
    {
      "inputs": [],
      "name": "symbol",
      "outputs": [
        {
          "internalType": "string",
          "name": "",
          "type": "string"
        }
      ],
      "stateMutability": "view",
      "type": "function"
    },
    {
      "inputs": [
        {
          "internalType": "uint256",
          "name": "tokenId",
          "type": "uint256"
        }
      ],
      "name": "tokenURI",
      "outputs": [
        {
          "internalType": "string",
          "name": "",
          "type": "string"
        }
      ],
      "stateMutability": "view",
      "type": "function"
    },
    {
      "inputs": [
        {
          "internalType": "address",
          "name": "from",
          "type": "address"
        },
        {
          "internalType": "address",
          "name": "to",
          "type": "address"
        },
        {
          "internalType": "uint256",
          "name": "tokenId",
          "type": "uint256"
        }
      ],
      "name": "transferFrom",
      "outputs": [],
      "stateMutability": "nonpayable",
      "type": "function"
    }
  ],
  "bytecode": "0x6101406040523480156200001257600080fd5b50604051620049c9380380620049c98339818101604052810190620000389190620002cc565b816040518060400160405280600181526020017f310000000000000000000000000000000000000000000000000000000000000081525083838160009080519060200190620000899291906200019e565b508060019080519060200190620000a29291906200019e565b50505060008280519060200120905060008280519060200120905060007f8b73c3c69bb8fe3d512ecc4cf759cc79239f7b179b0ffacaa9a75d522b39400f90508260e081815250508161010081815250504660a081815250506200010e8184846200016260201b60201c565b608081815250503073ffffffffffffffffffffffffffffffffffffffff1660c08173ffffffffffffffffffffffffffffffffffffffff1660601b8152505080610120818152505050505050505050620005ad565b600083838346306040516020016200017f95949392919062000384565b6040516020818303038152906040528051906020012090509392505050565b828054620001ac90620004be565b90600052602060002090601f016020900481019282620001d057600085556200021c565b82601f10620001eb57805160ff19168380011785556200021c565b828001600101855582156200021c579182015b828111156200021b578251825591602001919060010190620001fe565b5b5090506200022b91906200022f565b5090565b5b808211156200024a57600081600090555060010162000230565b5090565b6000620002656200025f846200040a565b620003e1565b9050828152602081018484840111156200028457620002836200058d565b5b6200029184828562000488565b509392505050565b600082601f830112620002b157620002b062000588565b5b8151620002c38482602086016200024e565b91505092915050565b60008060408385031215620002e657620002e562000597565b5b600083015167ffffffffffffffff81111562000307576200030662000592565b5b620003158582860162000299565b925050602083015167ffffffffffffffff81111562000339576200033862000592565b5b620003478582860162000299565b9150509250929050565b6200035c8162000440565b82525050565b6200036d8162000454565b82525050565b6200037e816200047e565b82525050565b600060a0820190506200039b600083018862000362565b620003aa602083018762000362565b620003b9604083018662000362565b620003c8606083018562000373565b620003d7608083018462000351565b9695505050505050565b6000620003ed62000400565b9050620003fb8282620004f4565b919050565b6000604051905090565b600067ffffffffffffffff82111562000428576200042762000559565b5b62000433826200059c565b9050602081019050919050565b60006200044d826200045e565b9050919050565b6000819050919050565b600073ffffffffffffffffffffffffffffffffffffffff82169050919050565b6000819050919050565b60005b83811015620004a85780820151818401526020810190506200048b565b83811115620004b8576000848401525b50505050565b60006002820490506001821680620004d757607f821691505b60208210811415620004ee57620004ed6200052a565b5b50919050565b620004ff826200059c565b810181811067ffffffffffffffff8211171562000521576200052062000559565b5b80604052505050565b7f4e487b7100000000000000000000000000000000000000000000000000000000600052602260045260246000fd5b7f4e487b7100000000000000000000000000000000000000000000000000000000600052604160045260246000fd5b600080fd5b600080fd5b600080fd5b600080fd5b6000601f19601f8301169050919050565b60805160a05160c05160601c60e05161010051610120516143c96200060060003960006113c401526000611406015260006113e50152600061131a015260006113700152600061139901526143c96000f3fe608060405234801561001057600080fd5b50600436106101425760003560e01c80636352211e116100b85780639ab24eb01161007c5780639ab24eb0146103ad578063a22cb465146103dd578063b88d4fde146103f9578063c3cda52014610415578063c87b56dd14610431578063e985e9c51461046157610142565b80636352211e146102cf57806370a08231146102ff5780637ecebe001461032f5780638e539e8c1461035f57806395d89b411461038f57610142565b80633644e5151161010a5780633644e515146101fd5780633a46b1a81461021b57806340c10f191461024b57806342842e0e14610267578063587cde1e146102835780635c19a95c146102b357610142565b806301ffc9a71461014757806306fdde0314610177578063081812fc14610195578063095ea7b3146101c557806323b872dd146101e1575b600080fd5b610161600480360381019061015c9190612dc3565b610491565b60405161016e919061339f565b60405180910390f35b61017f610573565b60405161018c91906134b2565b60405180910390f35b6101af60048036038101906101aa9190612e1d565b610605565b6040516101bc9190613338565b60405180910390f35b6101df60048036038101906101da9190612cf6565b61068a565b005b6101fb60048036038101906101f69190612be0565b6107a2565b005b610205610802565b60405161021291906133ba565b60405180910390f35b61023560048036038101906102309190612cf6565b610811565b60405161024291906137f4565b60405180910390f35b61026560048036038101906102609190612cf6565b61086c565b005b610281600480360381019061027c9190612be0565b61087a565b005b61029d60048036038101906102989190612b73565b61089a565b6040516102aa9190613338565b60405180910390f35b6102cd60048036038101906102c89190612b73565b610903565b005b6102e960048036038101906102e49190612e1d565b61091d565b6040516102f69190613338565b60405180910390f35b61031960048036038101906103149190612b73565b6109cf565b60405161032691906137f4565b60405180910390f35b61034960048036038101906103449190612b73565b610a87565b60405161035691906137f4565b60405180910390f35b61037960048036038101906103749190612e1d565b610ad7565b60405161038691906137f4565b60405180910390f35b610397610b36565b6040516103a491906134b2565b60405180910390f35b6103c760048036038101906103c29190612b73565b610bc8565b6040516103d491906137f4565b60405180910390f35b6103f760048036038101906103f29190612cb6565b610c18565b005b610413600480360381019061040e9190612c33565b610c2e565b005b61042f600480360381019061042a9190612d36565b610c90565b005b61044b60048036038101906104469190612e1d565b610d94565b60405161045891906134b2565b60405180910390f35b61047b60048036038101906104769190612ba0565b610da6565b604051610488919061339f565b60405180910390f35b60007f80ac58cd000000000000000000000000000000000000000000000000000000007bffffffffffffffffffffffffffffffffffffffffffffffffffffffff1916827bffffffffffffffffffffffffffffffffffffffffffffffffffffffff1916148061055c57507f5b5e139f000000000000000000000000000000000000000000000000000000007bffffffffffffffffffffffffffffffffffffffffffffffffffffffff1916827bffffffffffffffffffffffffffffffffffffffffffffffffffffffff1916145b8061056c575061056b82610e3a565b5b9050919050565b60606000805461058290613a59565b80601f01602080910402602001604051908101604052809291908181526020018280546105ae90613a59565b80156105fb5780601f106105d0576101008083540402835291602001916105fb565b820191906000526020600020905b8154815290600101906020018083116105de57829003601f168201915b5050505050905090565b600061061082610ea4565b61064f576040517f08c379a000000000000000000000000000000000000000000000000000000000815260040161064690613734565b60405180910390fd5b6004600083815260200190815260200160002060009054906101000a900473ffffffffffffffffffffffffffffffffffffffff169050919050565b60006106958261091d565b90508073ffffffffffffffffffffffffffffffffffffffff168373ffffffffffffffffffffffffffffffffffffffff161415610706576040517f08c379a00000000000000000000000000000000000000000000000000000000081526004016106fd90613794565b60405180910390fd5b8073ffffffffffffffffffffffffffffffffffffffff16610725610f10565b73ffffffffffffffffffffffffffffffffffffffff16148061075457506107538161074e610f10565b610da6565b5b610793576040517f08c379a000000000000000000000000000000000000000000000000000000000815260040161078a90613654565b60405180910390fd5b61079d8383610f18565b505050565b6107b36107ad610f10565b82610fd1565b6107f2576040517f08c379a00000000000000000000000000000000000000000000000000000000081526004016107e9906137b4565b60405180910390fd5b6107fd8383836110af565b505050565b600061080c611316565b905090565b600061086482600860008673ffffffffffffffffffffffffffffffffffffffff1673ffffffffffffffffffffffffffffffffffffffff16815260200190815260200160002061143090919063ffffffff16565b905092915050565b6108768282611588565b5050565b61089583838360405180602001604052806000815250610c2e565b505050565b6000600760008373ffffffffffffffffffffffffffffffffffffffff1673ffffffffffffffffffffffffffffffffffffffff16815260200190815260200160002060009054906101000a900473ffffffffffffffffffffffffffffffffffffffff169050919050565b600061090d610f10565b90506109198183611762565b5050565b6000806002600084815260200190815260200160002060009054906101000a900473ffffffffffffffffffffffffffffffffffffffff169050600073ffffffffffffffffffffffffffffffffffffffff168173ffffffffffffffffffffffffffffffffffffffff1614156109c6576040517f08c379a00000000000000000000000000000000000000000000000000000000081526004016109bd90613694565b60405180910390fd5b80915050919050565b60008073ffffffffffffffffffffffffffffffffffffffff168273ffffffffffffffffffffffffffffffffffffffff161415610a40576040517f08c379a0000000000000000000000000000000000000000000000000000000008152600401610a3790613674565b60405180910390fd5b600360008373ffffffffffffffffffffffffffffffffffffffff1673ffffffffffffffffffffffffffffffffffffffff168152602001908152602001600020549050919050565b6000610ad0600a60008473ffffffffffffffffffffffffffffffffffffffff1673ffffffffffffffffffffffffffffffffffffffff168152602001908152602001600020611876565b9050919050565b6000438210610b1b576040517f08c379a0000000000000000000000000000000000000000000000000000000008152600401610b12906136b4565b60405180910390fd5b610b2f82600961143090919063ffffffff16565b9050919050565b606060018054610b4590613a59565b80601f0160208091040260200160405190810160405280929190818152602001828054610b7190613a59565b8015610bbe5780601f10610b9357610100808354040283529160200191610bbe565b820191906000526020600020905b815481529060010190602001808311610ba157829003601f168201915b5050505050905090565b6000610c11600860008473ffffffffffffffffffffffffffffffffffffffff1673ffffffffffffffffffffffffffffffffffffffff168152602001908152602001600020611884565b9050919050565b610c2a610c23610f10565b838361191f565b5050565b610c3f610c39610f10565b83610fd1565b610c7e576040517f08c379a0000000000000000000000000000000000000000000000000000000008152600401610c75906137b4565b60405180910390fd5b610c8a84848484611a8c565b50505050565b83421115610cd3576040517f08c379a0000000000000000000000000000000000000000000000000000000008152600401610cca90613634565b60405180910390fd5b6000610d35610d2d7fe48329057bfd03d55e49b547132e39cffd9c1820ad7b9d4c5307691425d15adf898989604051602001610d1294939291906133d5565b60405160208183030381529060405280519060200120611ae8565b858585611b02565b9050610d4081611b2d565b8614610d81576040517f08c379a0000000000000000000000000000000000000000000000000000000008152600401610d78906134f4565b60405180910390fd5b610d8b8188611762565b50505050505050565b6060610d9f82611b8b565b9050919050565b6000600560008473ffffffffffffffffffffffffffffffffffffffff1673ffffffffffffffffffffffffffffffffffffffff16815260200190815260200160002060008373ffffffffffffffffffffffffffffffffffffffff1673ffffffffffffffffffffffffffffffffffffffff16815260200190815260200160002060009054906101000a900460ff16905092915050565b60007f01ffc9a7000000000000000000000000000000000000000000000000000000007bffffffffffffffffffffffffffffffffffffffffffffffffffffffff1916827bffffffffffffffffffffffffffffffffffffffffffffffffffffffff1916149050919050565b60008073ffffffffffffffffffffffffffffffffffffffff166002600084815260200190815260200160002060009054906101000a900473ffffffffffffffffffffffffffffffffffffffff1673ffffffffffffffffffffffffffffffffffffffff1614159050919050565b600033905090565b816004600083815260200190815260200160002060006101000a81548173ffffffffffffffffffffffffffffffffffffffff021916908373ffffffffffffffffffffffffffffffffffffffff160217905550808273ffffffffffffffffffffffffffffffffffffffff16610f8b8361091d565b73ffffffffffffffffffffffffffffffffffffffff167f8c5be1e5ebec7d5bd14f71427d1e84f3dd0314c0f7b2291e5b200ac8c7c3b92560405160405180910390a45050565b6000610fdc82610ea4565b61101b576040517f08c379a0000000000000000000000000000000000000000000000000000000008152600401611012906135f4565b60405180910390fd5b60006110268361091d565b90508073ffffffffffffffffffffffffffffffffffffffff168473ffffffffffffffffffffffffffffffffffffffff16148061109557508373ffffffffffffffffffffffffffffffffffffffff1661107d84610605565b73ffffffffffffffffffffffffffffffffffffffff16145b806110a657506110a58185610da6565b5b91505092915050565b8273ffffffffffffffffffffffffffffffffffffffff166110cf8261091d565b73ffffffffffffffffffffffffffffffffffffffff1614611125576040517f08c379a000000000000000000000000000000000000000000000000000000000815260040161111c90613554565b60405180910390fd5b600073ffffffffffffffffffffffffffffffffffffffff168273ffffffffffffffffffffffffffffffffffffffff161415611195576040517f08c379a000000000000000000000000000000000000000000000000000000000815260040161118c90613594565b60405180910390fd5b6111a0838383611cdd565b6111ab600082610f18565b6001600360008573ffffffffffffffffffffffffffffffffffffffff1673ffffffffffffffffffffffffffffffffffffffff16815260200190815260200160002060008282546111fb9190613958565b925050819055506001600360008473ffffffffffffffffffffffffffffffffffffffff1673ffffffffffffffffffffffffffffffffffffffff168152602001908152602001600020600082825461125291906138d1565b92505081905550816002600083815260200190815260200160002060006101000a81548173ffffffffffffffffffffffffffffffffffffffff021916908373ffffffffffffffffffffffffffffffffffffffff160217905550808273ffffffffffffffffffffffffffffffffffffffff168473ffffffffffffffffffffffffffffffffffffffff167fddf252ad1be2c89b69c2b068fc378daa952ba7f163c4a11628f55a4df523b3ef60405160405180910390a4611311838383611ce2565b505050565b60007f000000000000000000000000000000000000000000000000000000000000000073ffffffffffffffffffffffffffffffffffffffff163073ffffffffffffffffffffffffffffffffffffffff1614801561139257507f000000000000000000000000000000000000000000000000000000000000000046145b156113bf577f0000000000000000000000000000000000000000000000000000000000000000905061142d565b61142a7f00000000000000000000000000000000000000000000000000000000000000007f00000000000000000000000000000000000000000000000000000000000000007f0000000000000000000000000000000000000000000000000000000000000000611cf2565b90505b90565b6000438210611474576040517f08c379a000000000000000000000000000000000000000000000000000000000815260040161146b90613614565b60405180910390fd5b60008360000180549050905060005b818110156114f85760006114978284611d2c565b9050848660000182815481106114b0576114af613bfc565b5b9060005260206000200160000160009054906101000a900463ffffffff1663ffffffff1611156114e2578092506114f2565b6001816114ef91906138d1565b91505b50611483565b6000821461155d57846000016001836115119190613958565b8154811061152257611521613bfc565b5b9060005260206000200160000160049054906101000a90047bffffffffffffffffffffffffffffffffffffffffffffffffffffffff16611560565b60005b7bffffffffffffffffffffffffffffffffffffffffffffffffffffffff169250505092915050565b600073ffffffffffffffffffffffffffffffffffffffff168273ffffffffffffffffffffffffffffffffffffffff1614156115f8576040517f08c379a00000000000000000000000000000000000000000000000000000000081526004016115ef906136f4565b60405180910390fd5b61160181610ea4565b15611641576040517f08c379a000000000000000000000000000000000000000000000000000000000815260040161163890613574565b60405180910390fd5b61164d60008383611cdd565b6001600360008473ffffffffffffffffffffffffffffffffffffffff1673ffffffffffffffffffffffffffffffffffffffff168152602001908152602001600020600082825461169d91906138d1565b92505081905550816002600083815260200190815260200160002060006101000a81548173ffffffffffffffffffffffffffffffffffffffff021916908373ffffffffffffffffffffffffffffffffffffffff160217905550808273ffffffffffffffffffffffffffffffffffffffff16600073ffffffffffffffffffffffffffffffffffffffff167fddf252ad1be2c89b69c2b068fc378daa952ba7f163c4a11628f55a4df523b3ef60405160405180910390a461175e60008383611ce2565b5050565b600061176d8361089a565b905081600760008573ffffffffffffffffffffffffffffffffffffffff1673ffffffffffffffffffffffffffffffffffffffff16815260200190815260200160002060006101000a81548173ffffffffffffffffffffffffffffffffffffffff021916908373ffffffffffffffffffffffffffffffffffffffff1602179055508173ffffffffffffffffffffffffffffffffffffffff168173ffffffffffffffffffffffffffffffffffffffff168473ffffffffffffffffffffffffffffffffffffffff167f3134e8a2e6d97e929a7e54011ea5485d7d196dd5f0ba4d4ef95803e8e3fc257f60405160405180910390a4611871818361186c86611d52565b611d64565b505050565b600081600001549050919050565b60008082600001805490509050600081146118f657826000016001826118aa9190613958565b815481106118bb576118ba613bfc565b5b9060005260206000200160000160049054906101000a90047bffffffffffffffffffffffffffffffffffffffffffffffffffffffff166118f9565b60005b7bffffffffffffffffffffffffffffffffffffffffffffffffffffffff16915050919050565b8173ffffffffffffffffffffffffffffffffffffffff168373ffffffffffffffffffffffffffffffffffffffff16141561198e576040517f08c379a0000000000000000000000000000000000000000000000000000000008152600401611985906135b4565b60405180910390fd5b80600560008573ffffffffffffffffffffffffffffffffffffffff1673ffffffffffffffffffffffffffffffffffffffff16815260200190815260200160002060008473ffffffffffffffffffffffffffffffffffffffff1673ffffffffffffffffffffffffffffffffffffffff16815260200190815260200160002060006101000a81548160ff0219169083151502179055508173ffffffffffffffffffffffffffffffffffffffff168373ffffffffffffffffffffffffffffffffffffffff167f17307eab39ab6107e8899845ad3d59bd9653f200f220920489ca2b5937696c3183604051611a7f919061339f565b60405180910390a3505050565b611a978484846110af565b611aa384848484611f71565b611ae2576040517f08c379a0000000000000000000000000000000000000000000000000000000008152600401611ad990613534565b60405180910390fd5b50505050565b6000611afb611af5611316565b83612108565b9050919050565b6000806000611b138787878761213b565b91509150611b2081612248565b8192505050949350505050565b600080600a60008473ffffffffffffffffffffffffffffffffffffffff1673ffffffffffffffffffffffffffffffffffffffff1681526020019081526020016000209050611b7a81611876565b9150611b858161241d565b50919050565b6060611b9682610ea4565b611bd5576040517f08c379a0000000000000000000000000000000000000000000000000000000008152600401611bcc90613714565b60405180910390fd5b6000600660008481526020019081526020016000208054611bf590613a59565b80601f0160208091040260200160405190810160405280929190818152602001828054611c2190613a59565b8015611c6e5780601f10611c4357610100808354040283529160200191611c6e565b820191906000526020600020905b815481529060010190602001808311611c5157829003601f168201915b505050505090506000611c7f612433565b9050600081511415611c95578192505050611cd8565b600082511115611cca578082604051602001611cb29291906132dd565b60405160208183030381529060405292505050611cd8565b611cd38461244a565b925050505b919050565b505050565b611ced8383836124f1565b505050565b60008383834630604051602001611d0d95949392919061341a565b6040516020818303038152906040528051906020012090509392505050565b60006002828418611d3d9190613927565b828416611d4a91906138d1565b905092915050565b6000611d5d826109cf565b9050919050565b8173ffffffffffffffffffffffffffffffffffffffff168373ffffffffffffffffffffffffffffffffffffffff1614158015611da05750600081115b15611f6c57600073ffffffffffffffffffffffffffffffffffffffff168373ffffffffffffffffffffffffffffffffffffffff1614611e8857600080611e3161250d84600860008973ffffffffffffffffffffffffffffffffffffffff1673ffffffffffffffffffffffffffffffffffffffff1681526020019081526020016000206125239092919063ffffffff16565b915091508473ffffffffffffffffffffffffffffffffffffffff167fdec2bacdd2f05b59de34da9b523dff8be42e5e38e818c82fdb0bae774387a7248383604051611e7d92919061380f565b60405180910390a250505b600073ffffffffffffffffffffffffffffffffffffffff168273ffffffffffffffffffffffffffffffffffffffff1614611f6b57600080611f1461255184600860008873ffffffffffffffffffffffffffffffffffffffff1673ffffffffffffffffffffffffffffffffffffffff1681526020019081526020016000206125239092919063ffffffff16565b915091508373ffffffffffffffffffffffffffffffffffffffff167fdec2bacdd2f05b59de34da9b523dff8be42e5e38e818c82fdb0bae774387a7248383604051611f6092919061380f565b60405180910390a250505b5b505050565b6000611f928473ffffffffffffffffffffffffffffffffffffffff16612567565b156120fb578373ffffffffffffffffffffffffffffffffffffffff1663150b7a02611fbb610f10565b8786866040518563ffffffff1660e01b8152600401611fdd9493929190613353565b602060405180830381600087803b158015611ff757600080fd5b505af192505050801561202857506040513d601f19601f820116820180604052508101906120259190612df0565b60015b6120ab573d8060008114612058576040519150601f19603f3d011682016040523d82523d6000602084013e61205d565b606091505b506000815114156120a3576040517f08c379a000000000000000000000000000000000000000000000000000000000815260040161209a90613534565b60405180910390fd5b805181602001fd5b63150b7a0260e01b7bffffffffffffffffffffffffffffffffffffffffffffffffffffffff1916817bffffffffffffffffffffffffffffffffffffffffffffffffffffffff191614915050612100565b600190505b949350505050565b6000828260405160200161211d929190613301565b60405160208183030381529060405280519060200120905092915050565b6000807f7fffffffffffffffffffffffffffffff5d576e7357a4501ddfe92f46681b20a08360001c111561217657600060039150915061223f565b601b8560ff161415801561218e5750601c8560ff1614155b156121a057600060049150915061223f565b6000600187878787604051600081526020016040526040516121c5949392919061346d565b6020604051602081039080840390855afa1580156121e7573d6000803e3d6000fd5b505050602060405103519050600073ffffffffffffffffffffffffffffffffffffffff168173ffffffffffffffffffffffffffffffffffffffff1614156122365760006001925092505061223f565b80600092509250505b94509492505050565b6000600481111561225c5761225b613b9e565b5b81600481111561226f5761226e613b9e565b5b141561227a5761241a565b6001600481111561228e5761228d613b9e565b5b8160048111156122a1576122a0613b9e565b5b14156122e2576040517f08c379a00000000000000000000000000000000000000000000000000000000081526004016122d9906134d4565b60405180910390fd5b600260048111156122f6576122f5613b9e565b5b81600481111561230957612308613b9e565b5b141561234a576040517f08c379a000000000000000000000000000000000000000000000000000000000815260040161234190613514565b60405180910390fd5b6003600481111561235e5761235d613b9e565b5b81600481111561237157612370613b9e565b5b14156123b2576040517f08c379a00000000000000000000000000000000000000000000000000000000081526004016123a9906135d4565b60405180910390fd5b6004808111156123c5576123c4613b9e565b5b8160048111156123d8576123d7613b9e565b5b1415612419576040517f08c379a0000000000000000000000000000000000000000000000000000000008152600401612410906136d4565b60405180910390fd5b5b50565b6001816000016000828254019250508190555050565b606060405180602001604052806000815250905090565b606061245582610ea4565b612494576040517f08c379a000000000000000000000000000000000000000000000000000000000815260040161248b90613774565b60405180910390fd5b600061249e612433565b905060008151116124be57604051806020016040528060008152506124e9565b806124c88461258a565b6040516020016124d99291906132dd565b6040516020818303038152906040525b915050919050565b6124fd838360016126eb565b6125088383836127ab565b505050565b6000818361251b9190613958565b905092915050565b6000806125458561254061253688611884565b868863ffffffff16565b6127b0565b91509150935093915050565b6000818361255f91906138d1565b905092915050565b6000808273ffffffffffffffffffffffffffffffffffffffff163b119050919050565b606060008214156125d2576040518060400160405280600181526020017f300000000000000000000000000000000000000000000000000000000000000081525090506126e6565b600082905060005b600082146126045780806125ed90613abc565b915050600a826125fd9190613927565b91506125da565b60008167ffffffffffffffff8111156126205761261f613c2b565b5b6040519080825280601f01601f1916602001820160405280156126525781602001600182028036833780820191505090505b5090505b600085146126df5760018261266b9190613958565b9150600a8561267a9190613b0f565b603061268691906138d1565b60f81b81838151811061269c5761269b613bfc565b5b60200101907effffffffffffffffffffffffffffffffffffffffffffffffffffffffffffff1916908160001a905350600a856126d89190613927565b9450612656565b8093505050505b919050565b600073ffffffffffffffffffffffffffffffffffffffff168373ffffffffffffffffffffffffffffffffffffffff16141561273b576127386125518260096125239092919063ffffffff16565b50505b600073ffffffffffffffffffffffffffffffffffffffff168273ffffffffffffffffffffffffffffffffffffffff16141561278b5761278861250d8260096125239092919063ffffffff16565b50505b6127a66127978461089a565b6127a08461089a565b83611d64565b505050565b505050565b60008060008460000180549050905060006127ca86611884565b9050600082118015612820575043866000016001846127e99190613958565b815481106127fa576127f9613bfc565b5b9060005260206000200160000160009054906101000a900463ffffffff1663ffffffff16145b156128b05761282e856129b2565b8660000160018461283f9190613958565b815481106128505761284f613bfc565b5b9060005260206000200160000160046101000a8154817bffffffffffffffffffffffffffffffffffffffffffffffffffffffff02191690837bffffffffffffffffffffffffffffffffffffffffffffffffffffffff1602179055506129a3565b8560000160405180604001604052806128c843612a1d565b63ffffffff1681526020016128dc886129b2565b7bffffffffffffffffffffffffffffffffffffffffffffffffffffffff168152509080600181540180825580915050600190039060005260206000200160009091909190915060008201518160000160006101000a81548163ffffffff021916908363ffffffff16021790555060208201518160000160046101000a8154817bffffffffffffffffffffffffffffffffffffffffffffffffffffffff02191690837bffffffffffffffffffffffffffffffffffffffffffffffffffffffff16021790555050505b80859350935050509250929050565b60007bffffffffffffffffffffffffffffffffffffffffffffffffffffffff8016821115612a15576040517f08c379a0000000000000000000000000000000000000000000000000000000008152600401612a0c90613754565b60405180910390fd5b819050919050565b600063ffffffff8016821115612a68576040517f08c379a0000000000000000000000000000000000000000000000000000000008152600401612a5f906137d4565b60405180910390fd5b819050919050565b6000612a83612a7e8461385d565b613838565b905082815260208101848484011115612a9f57612a9e613c5f565b5b612aaa848285613a17565b509392505050565b600081359050612ac181614309565b92915050565b600081359050612ad681614320565b92915050565b600081359050612aeb81614337565b92915050565b600081359050612b008161434e565b92915050565b600081519050612b158161434e565b92915050565b600082601f830112612b3057612b2f613c5a565b5b8135612b40848260208601612a70565b91505092915050565b600081359050612b5881614365565b92915050565b600081359050612b6d8161437c565b92915050565b600060208284031215612b8957612b88613c69565b5b6000612b9784828501612ab2565b91505092915050565b60008060408385031215612bb757612bb6613c69565b5b6000612bc585828601612ab2565b9250506020612bd685828601612ab2565b9150509250929050565b600080600060608486031215612bf957612bf8613c69565b5b6000612c0786828701612ab2565b9350506020612c1886828701612ab2565b9250506040612c2986828701612b49565b9150509250925092565b60008060008060808587031215612c4d57612c4c613c69565b5b6000612c5b87828801612ab2565b9450506020612c6c87828801612ab2565b9350506040612c7d87828801612b49565b925050606085013567ffffffffffffffff811115612c9e57612c9d613c64565b5b612caa87828801612b1b565b91505092959194509250565b60008060408385031215612ccd57612ccc613c69565b5b6000612cdb85828601612ab2565b9250506020612cec85828601612ac7565b9150509250929050565b60008060408385031215612d0d57612d0c613c69565b5b6000612d1b85828601612ab2565b9250506020612d2c85828601612b49565b9150509250929050565b60008060008060008060c08789031215612d5357612d52613c69565b5b6000612d6189828a01612ab2565b9650506020612d7289828a01612b49565b9550506040612d8389828a01612b49565b9450506060612d9489828a01612b5e565b9350506080612da589828a01612adc565b92505060a0612db689828a01612adc565b9150509295509295509295565b600060208284031215612dd957612dd8613c69565b5b6000612de784828501612af1565b91505092915050565b600060208284031215612e0657612e05613c69565b5b6000612e1484828501612b06565b91505092915050565b600060208284031215612e3357612e32613c69565b5b6000612e4184828501612b49565b91505092915050565b612e538161398c565b82525050565b612e628161399e565b82525050565b612e71816139aa565b82525050565b612e88612e83826139aa565b613b05565b82525050565b6000612e998261388e565b612ea381856138a4565b9350612eb3818560208601613a26565b612ebc81613c6e565b840191505092915050565b6000612ed282613899565b612edc81856138b5565b9350612eec818560208601613a26565b612ef581613c6e565b840191505092915050565b6000612f0b82613899565b612f1581856138c6565b9350612f25818560208601613a26565b80840191505092915050565b6000612f3e6018836138b5565b9150612f4982613c7f565b602082019050919050565b6000612f616014836138b5565b9150612f6c82613ca8565b602082019050919050565b6000612f84601f836138b5565b9150612f8f82613cd1565b602082019050919050565b6000612fa76032836138b5565b9150612fb282613cfa565b604082019050919050565b6000612fca6025836138b5565b9150612fd582613d49565b604082019050919050565b6000612fed601c836138b5565b9150612ff882613d98565b602082019050919050565b60006130106002836138c6565b915061301b82613dc1565b600282019050919050565b60006130336024836138b5565b915061303e82613dea565b604082019050919050565b60006130566019836138b5565b915061306182613e39565b602082019050919050565b60006130796022836138b5565b915061308482613e62565b604082019050919050565b600061309c602c836138b5565b91506130a782613eb1565b604082019050919050565b60006130bf6020836138b5565b91506130ca82613f00565b602082019050919050565b60006130e26018836138b5565b91506130ed82613f29565b602082019050919050565b60006131056038836138b5565b915061311082613f52565b604082019050919050565b6000613128602a836138b5565b915061313382613fa1565b604082019050919050565b600061314b6029836138b5565b915061315682613ff0565b604082019050919050565b600061316e601a836138b5565b91506131798261403f565b602082019050919050565b60006131916022836138b5565b915061319c82614068565b604082019050919050565b60006131b46020836138b5565b91506131bf826140b7565b602082019050919050565b60006131d76031836138b5565b91506131e2826140e0565b604082019050919050565b60006131fa602c836138b5565b91506132058261412f565b604082019050919050565b600061321d6027836138b5565b91506132288261417e565b604082019050919050565b6000613240602f836138b5565b915061324b826141cd565b604082019050919050565b60006132636021836138b5565b915061326e8261421c565b604082019050919050565b60006132866031836138b5565b91506132918261426b565b604082019050919050565b60006132a96026836138b5565b91506132b4826142ba565b604082019050919050565b6132c881613a00565b82525050565b6132d781613a0a565b82525050565b60006132e98285612f00565b91506132f58284612f00565b91508190509392505050565b600061330c82613003565b91506133188285612e77565b6020820191506133288284612e77565b6020820191508190509392505050565b600060208201905061334d6000830184612e4a565b92915050565b60006080820190506133686000830187612e4a565b6133756020830186612e4a565b61338260408301856132bf565b81810360608301526133948184612e8e565b905095945050505050565b60006020820190506133b46000830184612e59565b92915050565b60006020820190506133cf6000830184612e68565b92915050565b60006080820190506133ea6000830187612e68565b6133f76020830186612e4a565b61340460408301856132bf565b61341160608301846132bf565b95945050505050565b600060a08201905061342f6000830188612e68565b61343c6020830187612e68565b6134496040830186612e68565b61345660608301856132bf565b6134636080830184612e4a565b9695505050505050565b60006080820190506134826000830187612e68565b61348f60208301866132ce565b61349c6040830185612e68565b6134a96060830184612e68565b95945050505050565b600060208201905081810360008301526134cc8184612ec7565b905092915050565b600060208201905081810360008301526134ed81612f31565b9050919050565b6000602082019050818103600083015261350d81612f54565b9050919050565b6000602082019050818103600083015261352d81612f77565b9050919050565b6000602082019050818103600083015261354d81612f9a565b9050919050565b6000602082019050818103600083015261356d81612fbd565b9050919050565b6000602082019050818103600083015261358d81612fe0565b9050919050565b600060208201905081810360008301526135ad81613026565b9050919050565b600060208201905081810360008301526135cd81613049565b9050919050565b600060208201905081810360008301526135ed8161306c565b9050919050565b6000602082019050818103600083015261360d8161308f565b9050919050565b6000602082019050818103600083015261362d816130b2565b9050919050565b6000602082019050818103600083015261364d816130d5565b9050919050565b6000602082019050818103600083015261366d816130f8565b9050919050565b6000602082019050818103600083015261368d8161311b565b9050919050565b600060208201905081810360008301526136ad8161313e565b9050919050565b600060208201905081810360008301526136cd81613161565b9050919050565b600060208201905081810360008301526136ed81613184565b9050919050565b6000602082019050818103600083015261370d816131a7565b9050919050565b6000602082019050818103600083015261372d816131ca565b9050919050565b6000602082019050818103600083015261374d816131ed565b9050919050565b6000602082019050818103600083015261376d81613210565b9050919050565b6000602082019050818103600083015261378d81613233565b9050919050565b600060208201905081810360008301526137ad81613256565b9050919050565b600060208201905081810360008301526137cd81613279565b9050919050565b600060208201905081810360008301526137ed8161329c565b9050919050565b600060208201905061380960008301846132bf565b92915050565b600060408201905061382460008301856132bf565b61383160208301846132bf565b9392505050565b6000613842613853565b905061384e8282613a8b565b919050565b6000604051905090565b600067ffffffffffffffff82111561387857613877613c2b565b5b61388182613c6e565b9050602081019050919050565b600081519050919050565b600081519050919050565b600082825260208201905092915050565b600082825260208201905092915050565b600081905092915050565b60006138dc82613a00565b91506138e783613a00565b9250827fffffffffffffffffffffffffffffffffffffffffffffffffffffffffffffffff0382111561391c5761391b613b40565b5b828201905092915050565b600061393282613a00565b915061393d83613a00565b92508261394d5761394c613b6f565b5b828204905092915050565b600061396382613a00565b915061396e83613a00565b92508282101561398157613980613b40565b5b828203905092915050565b6000613997826139e0565b9050919050565b60008115159050919050565b6000819050919050565b60007fffffffff0000000000000000000000000000000000000000000000000000000082169050919050565b600073ffffffffffffffffffffffffffffffffffffffff82169050919050565b6000819050919050565b600060ff82169050919050565b82818337600083830152505050565b60005b83811015613a44578082015181840152602081019050613a29565b83811115613a53576000848401525b50505050565b60006002820490506001821680613a7157607f821691505b60208210811415613a8557613a84613bcd565b5b50919050565b613a9482613c6e565b810181811067ffffffffffffffff82111715613ab357613ab2613c2b565b5b80604052505050565b6000613ac782613a00565b91507fffffffffffffffffffffffffffffffffffffffffffffffffffffffffffffffff821415613afa57613af9613b40565b5b600182019050919050565b6000819050919050565b6000613b1a82613a00565b9150613b2583613a00565b925082613b3557613b34613b6f565b5b828206905092915050565b7f4e487b7100000000000000000000000000000000000000000000000000000000600052601160045260246000fd5b7f4e487b7100000000000000000000000000000000000000000000000000000000600052601260045260246000fd5b7f4e487b7100000000000000000000000000000000000000000000000000000000600052602160045260246000fd5b7f4e487b7100000000000000000000000000000000000000000000000000000000600052602260045260246000fd5b7f4e487b7100000000000000000000000000000000000000000000000000000000600052603260045260246000fd5b7f4e487b7100000000000000000000000000000000000000000000000000000000600052604160045260246000fd5b600080fd5b600080fd5b600080fd5b600080fd5b6000601f19601f8301169050919050565b7f45434453413a20696e76616c6964207369676e61747572650000000000000000600082015250565b7f566f7465733a20696e76616c6964206e6f6e6365000000000000000000000000600082015250565b7f45434453413a20696e76616c6964207369676e6174757265206c656e67746800600082015250565b7f4552433732313a207472616e7366657220746f206e6f6e20455243373231526560008201527f63656976657220696d706c656d656e7465720000000000000000000000000000602082015250565b7f4552433732313a207472616e736665722066726f6d20696e636f72726563742060008201527f6f776e6572000000000000000000000000000000000000000000000000000000602082015250565b7f4552433732313a20746f6b656e20616c7265616479206d696e74656400000000600082015250565b7f1901000000000000000000000000000000000000000000000000000000000000600082015250565b7f4552433732313a207472616e7366657220746f20746865207a65726f2061646460008201527f7265737300000000000000000000000000000000000000000000000000000000602082015250565b7f4552433732313a20617070726f766520746f2063616c6c657200000000000000600082015250565b7f45434453413a20696e76616c6964207369676e6174757265202773272076616c60008201527f7565000000000000000000000000000000000000000000000000000000000000602082015250565b7f4552433732313a206f70657261746f7220717565727920666f72206e6f6e657860008201527f697374656e7420746f6b656e0000000000000000000000000000000000000000602082015250565b7f436865636b706f696e74733a20626c6f636b206e6f7420796574206d696e6564600082015250565b7f566f7465733a207369676e617475726520657870697265640000000000000000600082015250565b7f4552433732313a20617070726f76652063616c6c6572206973206e6f74206f7760008201527f6e6572206e6f7220617070726f76656420666f7220616c6c0000000000000000602082015250565b7f4552433732313a2062616c616e636520717565727920666f7220746865207a6560008201527f726f206164647265737300000000000000000000000000000000000000000000602082015250565b7f4552433732313a206f776e657220717565727920666f72206e6f6e657869737460008201527f656e7420746f6b656e0000000000000000000000000000000000000000000000602082015250565b7f566f7465733a20626c6f636b206e6f7420796574206d696e6564000000000000600082015250565b7f45434453413a20696e76616c6964207369676e6174757265202776272076616c60008201527f7565000000000000000000000000000000000000000000000000000000000000602082015250565b7f4552433732313a206d696e7420746f20746865207a65726f2061646472657373600082015250565b7f45524337323155524953746f726167653a2055524920717565727920666f722060008201527f6e6f6e6578697374656e7420746f6b656e000000000000000000000000000000602082015250565b7f4552433732313a20617070726f76656420717565727920666f72206e6f6e657860008201527f697374656e7420746f6b656e0000000000000000000000000000000000000000602082015250565b7f53616665436173743a2076616c756520646f65736e27742066697420696e203260008201527f3234206269747300000000000000000000000000000000000000000000000000602082015250565b7f4552433732314d657461646174613a2055524920717565727920666f72206e6f60008201527f6e6578697374656e7420746f6b656e0000000000000000000000000000000000602082015250565b7f4552433732313a20617070726f76616c20746f2063757272656e74206f776e6560008201527f7200000000000000000000000000000000000000000000000000000000000000602082015250565b7f4552433732313a207472616e736665722063616c6c6572206973206e6f74206f60008201527f776e6572206e6f7220617070726f766564000000000000000000000000000000602082015250565b7f53616665436173743a2076616c756520646f65736e27742066697420696e203360008201527f3220626974730000000000000000000000000000000000000000000000000000602082015250565b6143128161398c565b811461431d57600080fd5b50565b6143298161399e565b811461433457600080fd5b50565b614340816139aa565b811461434b57600080fd5b50565b614357816139b4565b811461436257600080fd5b50565b61436e81613a00565b811461437957600080fd5b50565b61438581613a0a565b811461439057600080fd5b5056fea264697066735822122010a56cca80228af0c336ffb70b26c7ea814fe0f00e3ec6f9a6d5a6cf411d4b0f64736f6c63430008070033",
  "linkReferences": {},
  "deployedLinkReferences": {}
}